:020000040800F2
:1000000008A00020D95D0008F55D0008F75D000834
:10001000F95D0008FB5D0008FD5D000800000000C0
:10002000000000000000000000000000B15E0008B9
:10003000FF5D000800000000CB4600081B1400080C
:10004000B55E0008B95E0008BD5E0008C15E00082C
:10005000C55E0008C95E0008CD5E0008D15E0008DC
:10006000D55E0008D95E0008DD5E0008E15E00088C
:10007000E55E0008E95E0008ED5E0008F15E00083C
:10008000F55E0008F95E0008FD5E0008015F0008EB
:10009000055F0008095F00080D5F0008115F000898
:1000A000155F0008195F00081D5F0008215F000848
:1000B000255F0008295F00082D5F0008315F0008F8
:1000C000355F0008395F00083D5F0008415F0008A8
:1000D000455F0008495F00084D5F0008515F000858
:1000E000555F0008595F00085D5F0008615F000808
:1000F000655F0008695F00086D5F0008715F0008B8
:10010000755F0008795F00087D5F0008815F000867
:10011000855F0008895F00088D5F0008915F000817
:10012000955F0008995F00089D5F0008A15F0008C7
:100130002DE9FE4F84B00400119D139E189F5FF0BF
:100140000009DFF864040078002803D047F24A1061
:10015000388019E1002C03D147F2AD10388013E14B
:100160000598002803D147F24F1038800CE1002D8C
:1001700003D146F62F60388006E1DFF86806006894
:10018000864203D246F630603880FDE01298B042D5
:1001900003D346F631603880F6E09DF84000202811
:1001A00003D346F273203880EEE09DF8400000282B
:1001B00007D1DFF83406844203D046F2732038803A
:1001C000E2E09DF840001F2807D1DFF820068442B6
:1001D00003D046F273203880D6E0200000F0F3FB15
:1001E00000203880BDF85C00C00710D5BDF85C0069
:1001F00080070CD5AA4600208346B34507D20020CD
:10020000CAF800001AF1040A1BF1010BF5E7129875
:1002100015EB80000290BDF85C0001900096029BF7
:100220002A000699059801F064F882460598A062B4
:100230000698E062049820629DF8400084F8370038
:10024000C4F800A00298A060159860651598002871
:1002500004D1DFF89C050068A06501E01598A06551
:10026000169860606562A663BDF85C00A0870020F8
:1002700080465FFA88F8B8F1000F08D100205FFAD5
:1002800088F814EB8801C86718F10108F1E7BDF898
:10029000501014F1640001F07EF9200001F008F81C
:1002A00001F014FA814601F077FADFF830050078A2
:1002B000401CDFF828150870DFF8200500780128B9
:1002C00001D102F010F801F07BFA484601F002FA81
:1002D00094F8370002F0F8F8200001F053FF2000F6
:1002E00000F01FFBDFF80C050088401CDFF8041548
:1002F0000880DFF80405007801282BD001F0E6F92A
:10030000814601F049FADFF8D4040078401EDFF896
:10031000CC140870DFF8C4040078002814D101F070
:10032000ECFFDFF8BC040088002807D001F048FA91
:10033000484601F0CFF901F0B5FF0AE001F040FABC
:10034000484601F0C7F904E001F03AFA484601F0E6
:10035000C1F919E001F0BAF9814601F01DFADFF8A0
:100360007C040078401EDFF874140870DFF86C0419
:100370000078002801D101F0C0FF01F021FA4846C1
:1003800001F0A8F901F0CCFB07B0BDE8F08F70B523
:1003900004000D000026DFF810020078002803D0CA
:1003A00047F24E102880C8E0DFF84004844203D1B1
:1003B00047F24C102880C0E0DFF82C04844203D1BF
:1003C00047F24D102880B8E0002C0DD101F07EF9E5
:1003D000060001F0E1F9DFF8D4010068040001F043
:1003E000EFF9300001F076F901F070F9060001F044
:1003F000D3F9DFF8E8030078401CDFF8E013087059
:10040000DFF8D8030078012801D101F06CFF01F07A
:10041000D7F9300001F05EF994F8360000280BD0CF
:10042000022812D00DD304280AD00ED306280CD0EF
:1004300007D3072809D01EE0200001F000FF49E0A3
:1004400048E0200002F0E0F944E0200002F0DCF98E
:1004500094F83400002808D0401E07D0401E04D075
:10046000401E032802D9001F04D103E0200001F040
:1004700060FDFFE72EE001F029F9060001F08CF99C
:10048000DFF858030078401EDFF850130870DFF8DB
:100490004C030078002814D101F02FFFDFF840034F
:1004A0000088002807D001F08BF9300001F012F924
:1004B00001F0F8FE0AE001F083F9300001F00AF9DA
:1004C00004E001F07DF9300001F004F946F62D60FA
:1004D000288032E014F1640001F037F8200000F0C9
:1004E000F2FE200000F037FADFF808030088401E13
:1004F000DFF800130880200000F065FAFF2084F880
:10050000360001F0E3F8060001F046F9DFF8CC020E
:100510000078401EDFF8C4120870DFF8C0020078CF
:10052000002801D101F0E9FE01F04AF9300001F0A4
:10053000D1F80020288001F0F3FA70BD7FB50400E7
:100540000D00002601F0C2F8060001F025F9002C8C
:1005500003D016480068844208D101F031F9300018
:1005600001F0B8F847F2571028801BE001F028F995
:10057000300001F0AFF80C48007800280ED0039549
:100580000020029000200190002000900023002213
:100590002100DFF8CC0802F08BFA03E029002000EC
:1005A00000F0AFFB7FBD0000FA8F0020D48F002049
:1005B0002DE9F84304000D0016001F005FF000094C
:1005C000DFF8A0080078002804D046F2AE1038808A
:1005D000002000E1ADB22800002802D0B0F5004FA5
:1005E00002D1002E07D004E045F6256038800020B7
:1005F000F1E00020306001F069F8814601F0CCF8AC
:10060000DFF8F80A0068406C00283FD0DFF8EC0AF9
:100610000068406C401EDFF8E41A09684864DFF89F
:10062000DC0A0068406C8046002E04D0DFF8CC0A5B
:100630000068006C306002F09BFCDFF8C01A0968AB
:10064000096C401ADFF8B41A0968C1F8A400DFF891
:10065000AC0A0068D0F8A800DFF8A01A0968D1F841
:10066000A410884209D2DFF8940A0068D0F8A400E8
:10067000DFF8881A0968C1F8A80001F0A1F8484617
:1006800001F028F8002038804046A4E0280409D56D
:1006900001F096F8484601F01DF846F2B010388097
:1006A000002098E04D480078002809D001F088F833
:1006B000484601F00FF846F66350388000208AE083
:1006C00046480078401C4549087044480078012895
:1006D00001D101F008FE01F073F8484600F0FAFF7E
:1006E000230007220021002001F052FB00F0EEFF62
:1006F000814601F051F839480078401E37490870AA
:1007000036480078002801D101F0F7FD01F058F8D3
:10071000484600F0DFFF01F003FA00F0D7FF814602
:1007200001F03AF8DFF8D409006890F835000028A5
:1007300004D001282ED0032837D03EE0002E26D04A
:10074000DFF8B8090068006C306002F011FCDFF8D7
:10075000AC190968096C401ADFF8A0190968C1F8DA
:10076000A400DFF898090068D0F8A800DFF88C1919
:100770000968D1F8A410884209D2DFF8800900681E
:10078000D0F8A400DFF874190968C1F8A8000020A7
:10079000388015E0002E04D0DFF860090068006C96
:1007A000306046F2A91038800AE0002E01D0002007
:1007B000306047F2D920388002E046F62E6038805B
:1007C000DFF838090068406C804600F0F9FF4846C1
:1007D00000F080FF4046BDE8F2830000FF8F00205C
:1007E000E48F00206C5E0008948A0020CC890020F1
:1007F000988F0020F88F0020FB8F00202DE9F04714
:1008000004000D0016001F005FF0000ADFF8540618
:100810000078002803D047F25910388051E0002DAD
:1008200003D146F2D52038804BE0002E03D146F2AA
:10083000D520388045E000F049FF824600F0ACFF4B
:10084000002C03D1DFF8F0090068040020680028BC
:100850000CD100F0B5FF504600F03CFF00202860AE
:100860000020306047F2521038802AE094F83C00B3
:10087000C0070CD400F0A4FF504600F02BFF00206E
:1008800028600020306047F25410388019E000F0F2
:1008900097FF504600F01EFF00208046606A8146A8
:1008A000D9F80000002804D119F1040918F1010851
:1008B000F6E7C5F80080A06BB0EB080030600020C0
:1008C0003880BDE8F08730B585B004000D00DFF852
:1008D0006C09844203D147F25B1028801FE0DFF8E7
:1008E0006009844203D147F25C10288017E0DFF8EA
:1008F0007405007800280ED0039500200290002097
:10090000019000200090002300222100DFF834092C
:1009100002F0CEF803E02900200000F0F1FB05B062
:1009200030BD0021C0F8BC10DFF81C19096800298F
:1009300003D10021C0F8C01009E0DFF80C190968E4
:10094000C0F8C010DFF800190968C1F8BC00DFF872
:10095000F81808607047D0F8BC301A00D0F8C030E2
:100960001900002A0BD1DFF8E0381960002902D005
:100970000023C1F8BC300023C0F8C03012E00029C9
:1009800006D10023C2F8C0300023C0F8BC3009E013
:10099000C2F8C010C1F8BC200023C0F8C03000234A
:1009A000C0F8BC3070470021DFF89C28116000219E
:1009B000DFF8982811800021DFF8942811600021C9
:1009C00001807047000070B5040000202060002006
:1009D000A060002060600020E06000202061002016
:1009E00060610020A0610020E061DFF868082062FB
:1009F000002060620020A0620020E06200202063EE
:100A00000020E087002020640020E0650020A4F89A
:100A10006000002114F1640000F0BDFD002060675B
:100A20000020A0670020C4F880000020A4F88800FF
:100A30000020C4F8840000200500EDB2002D06D18E
:100A40000020EDB214EB8501C8676D1CF5E70020AE
:100A500060640020C4F8A4000020C4F8A8000020AE
:100A6000A063002084F88A000020C4F8B0000020B1
:100A7000C4F8AC000020A0875FF00040A064002014
:100A8000E06400202065002060650020A065002053
:100A9000A4F88C000020A4F88E000020C4F8900078
:100AA0000020C4F8940002F063FA0600C4F89860CD
:100AB0000020C4F89C000020C4F8B4000020C4F852
:100AC000B800002084F83400002084F835000020AD
:100AD00084F83600202084F837000020C4F8BC00D9
:100AE0000020C4F8C000D7A0C4F8C40070BD2DE930
:100AF000FC4704000D0016001F00DDF82880DDF81B
:100B00002C905FF0000A00F0E1FD824600F044FE08
:100B1000DFF820070078401CDFF818170870DFF8AE
:100B200014070078012801D101F0DDFB00F048FE38
:100B3000504600F0CFFD002C03D1DFF8C00500685F
:100B400004000020A9F8000094F8360000280BD01B
:100B5000022842D008D3042806D03ED306283CD031
:100B600002D3072839D09BE0CDF80490CDF800805F
:100B70003B009BB2320092B2290014F1640000F0F5
:100B800014FD00F0A3FD824600F006FEDFF8A40687
:100B90000078401EDFF89C160870DFF89806007891
:100BA000002814D101F0A9FBDFF8AC06008800286A
:100BB00007D000F005FE504600F08CFD01F072FBFE
:100BC0000AE000F0FDFD504600F084FD04E000F076
:100BD000F7FD504600F07EFD91E094F834000228C5
:100BE00025D1CDF8008033009BB22A0021000020DF
:100BF00001F0E5F900F06AFD824600F0CDFDDFF876
:100C000034060078401EDFF82C160870DFF8240642
:100C10000078002801D101F070FB00F0D1FD5046B2
:100C200000F058FD38043AD400F07AFF37E0CDF8F0
:100C30000490CDF800803B009BB2320092B22900B4
:100C400014F1640000F0B1FC00F040FD824600F0B9
:100C5000A3FDDFF8E0050078401EDFF8D815087026
:100C6000DFF8D0050078002814D101F046FBDFF84A
:100C7000E8050088002807D000F0A2FD504600F0EB
:100C800029FD01F00FFB0AE000F09AFD504600F04C
:100C900021FD04E000F094FD504600F01BFD2EE025
:100CA00000F014FD824600F077FDDFF8880500783B
:100CB000401EDFF880150870DFF8780500780028FE
:100CC00014D101F01AFBDFF890050088002807D046
:100CD00000F076FD504600F0FDFC01F0E3FA0AE07A
:100CE00000F06EFD504600F0F5FC04E000F068FDF9
:100CF000504600F0EFFC46F62D60A9F80000BDE874
:100D0000F38770B504000D00002600F0DFFC06003C
:100D100000F042FD0020288094F8360000280328C7
:100D200008D9001F0FD0401E48D0401E58D0401E8A
:100D300068D079E000F044FD300000F0CBFC47F2D1
:100D40005310288079E0DFF8EC040078401CDFF8CD
:100D5000E4140870DFF8DC040078012801D101F008
:100D6000C2FA00F02DFD300000F0B4FC94F88A00C7
:100D7000401E84F88A0094F88A00002805D10020DB
:100D800084F83600200001F073FB00F09FFC0600A1
:100D900000F002FDDFF89C040078401EDFF8941498
:100DA0000870DFF890040078002801D101F0A5FA5E
:100DB00000F006FD300000F08DFC3EE094F88A0063
:100DC000401E84F88A0094F88A00002802D101208D
:100DD00084F8360000F0F4FC300000F07BFC2CE0DE
:100DE00094F88A00401E84F88A0094F88A0000284B
:100DF00002D1022084F8360000F0E2FC300000F05E
:100E000069FC1AE094F88A00401E84F88A0094F87D
:100E10008A00002802D1032084F8360000F0D0FCBC
:100E2000300000F057FC08E000F0CAFC300000F091
:100E300051FC46F62D60288001E000F071FE70BD87
:100E4000000000002000000080B5DFF8EC0300681F
:100E500000F044FA69460020FFF799FA01BD00004E
:100E600054524553FA8F00202DE9F84304000D0039
:100E700016001F005FF0000900F028FC814600F01A
:100E80008BFCDFF8B0030078401CDFF8A813087073
:100E9000DFF8A0030078012801D101F024FA00F066
:100EA0008FFC484600F016FC002C02D193480068E5
:100EB000040026640020388094F8360000280BD007
:100EC000022867D008D3042806D063D3062861D04F
:100ED00002D307285ED0E1E0606C10F1010F2CD145
:100EE00000F0F4FB814600F057FCD2480078401E29
:100EF000D0490870CF480078002814D101F0FDF9DE
:100F0000DFF854030088002807D000F059FC484659
:100F100000F0E0FB01F0C6F90AE000F051FC4846A1
:100F200000F0D8FB04E000F04BFC484600F0D2FB98
:100F300046F6C55038800020DDE0606C401C6064DF
:100F4000606C804600F0C2FB814600F025FCB94889
:100F50000078401EB7490870B6480078002813D1C1
:100F600001F0CBF9BC480088002807D000F028FC2D
:100F7000484600F0AFFB01F095F90AE000F020FCD4
:100F8000484600F0A7FB04E000F01AFC484600F0D9
:100F9000A1FBAFE094F83400072822D1009600238B
:100FA00000222100002001F00AF8606C804600F069
:100FB0008DFB814600F0F0FB9E480078401E9D4965
:100FC00008709C480078002801D101F096F900F0E3
:100FD000F7FB484600F07EFB28045ED400F0A0FD3D
:100FE0005BE0606C10F1010F2BD100F06FFB8146CC
:100FF00000F0D2FB8F480078401E8E4908708D4863
:101000000078002813D101F078F99348008800286F
:1010100007D000F0D5FB484600F05CFB01F042F938
:101020000AE000F0CDFB484600F054FB04E000F07D
:10103000C7FB484600F04EFB46F6C55038800020FE
:1010400059E0606C401C6064606C804600F03EFBC0
:10105000814600F0A1FB77480078401E7549087072
:1010600074480078002813D101F047F97A480088C5
:10107000002807D000F0A4FB484600F02BFB01F04D
:1010800011F90AE000F09CFB484600F023FB04E065
:1010900000F096FB484600F01DFB2BE000F016FB2D
:1010A000814600F079FB63480078401E6149087072
:1010B00060480078002813D101F01FF966480088C5
:1010C000002807D000F07CFB484600F003FB01F04D
:1010D000E9F80AE000F074FB484600F0FBFA04E08F
:1010E00000F06EFB484600F0F5FA46F62D603880B9
:1010F000002080464046BDE8F2830000D48F0020E7
:1011000070B504000D00002600F0E0FA060000F0C3
:1011100043FB002C02D148480068040046480068A0
:1011200084420CD143480078002808D000F048FBE6
:10113000300000F0CFFA46F66350288078E00020B7
:10114000288094F83600002809D0401E36D0401E72
:1011500040D0401E4AD0401E032853D95DE0354898
:101160000078401C3349087032480078012801D1CA
:1011700001F0B9F800F024FB300000F0ABFA0420D5
:1011800084F83600012084F88A00200001F057F826
:1011900000F09CFA060000F0FFFA26480078401E96
:1011A0002449087023480078002801D101F0A5F8EF
:1011B00000F006FB300000F08DFA37E0052084F8DF
:1011C0003600012084F88A0000F0FAFA300000F0BE
:1011D00081FA2BE0062084F83600012084F88A008A
:1011E00000F0EEFA300000F075FA1FE0072084F8F6
:1011F0003600012084F88A0000F0E2FA300000F0A6
:1012000069FA13E094F88A00401C84F88A0000F020
:10121000D7FA300000F05EFA08E000F0D1FA3000B2
:1012200000F058FA46F62D60288001E000F078FCC6
:1012300070BD0000FF8F0020D48F0020CC890020DB
:10124000948A002054535553B48F0020F88F002007
:10125000B08F0020145E0008E48F002080B5854820
:101260000068002802D083480068804701BD824A98
:101270001268100000221100804A1268914204D2C4
:1012800000220260001D491CF6E77B4A12687B4B76
:101290001B6812EB8302121F794B1A60704780B5EE
:1012A00078480068002802D076480068804701BD71
:1012B00010B5040074480068002803D0200072496B
:1012C0000968884710BD10B5040070480068002800
:1012D00003D020006D490968884710BD10B504008F
:1012E0006B480068002803D02000694909688847D6
:1012F00010BD70B40400039D12EB85063000001F82
:101300005FF080760660001F0460001F614E06607B
:10131000001F5FF012360660001F5FF003360660A4
:10132000001F5FF002360660001F0360001F0160AF
:10133000001F5FF011360660001F5FF01036066078
:10134000001F5FF009360660001F5FF00836066078
:10135000001F5FF007360660001F5FF0063606606C
:10136000001F5FF005360660001F5FF00436066060
:1013700070BC704738B548480068002802D046481D
:101380000068804701F0F4FD0400444800684449C7
:101390000968884215D041480068D0F89800201AA2
:1013A0003E490968C1F894003C480068D0F89C00A8
:1013B0003A490968D1F89410081838490968C1F801
:1013C0009C0037480068C0F8984000F0B3F9050069
:1013D00032480068D0F8B400A84203D22F48006811
:1013E000C0F8B4502D480068D0F8B8002D490968FD
:1013F000884205D22B48006828490968C1F8B8001E
:1014000000202849086031BD80B5274800680028C1
:1014100002D025480068804701BD10B5002400F0C7
:1014200055F9040000F0B8F920480078401C1F4925
:10143000087000F0C5F9200000F04CF901F054FFED
:1014400000F00AFB10BD421E194B1A60194A1268BF
:1014500011000902090A174A1160174A126852F06E
:101460000502154B1A60144A126852F00202124B20
:101470001A607047588F0020445E0008485E0008DC
:10148000448F00205C8F00204C8F0020508F002064
:10149000548F0020490E0008608F0020D48F002058
:1014A000D88F0020948F0020648F0020FA8F0020B6
:1014B00014E000E020ED00E010E000E070B47E4DAC
:1014C0002D68002D03D145F21E7505803BE07B4D54
:1014D0002D88002D03D145F21D75058033E0764D32
:1014E0002D682900744D2D682A001032734D2D8807
:1014F0006D1E2C0000252B009BB2A4B2A3420AD281
:101500000A6000254D6000250D810025CD60103159
:1015100010325B1CF0E700250D6000254D600025B2
:101520000D810025CD60644D2D68654E3560634D9D
:101530002D88634EB5800025614EF5800025604EF4
:1015400035810025058070BC704710B401004B89BF
:1015500018004B89002B1BD00B681A00584B1B68D6
:1015600013604B68564C2360554BDB884C891B1B22
:10157000534CE380524B9B884C89E318504CA3801A
:1015800000234B8100238B8100230B6000234B60E1
:1015900080B210BC7047018100224281002282810A
:1015A00000220260002242607047F0B5059C069D53
:1015B000B0F80AC0B0F808E0F44504D346F2935CF2
:1015C000A5F800C075E0DFF8F8C0BCF804C0BCF1B5
:1015D000000F04D145F21D7CA5F800C069E0DFF8DA
:1015E000E0C0DCF800C06646D6F800C0DFF8D0E006
:1015F000CEF800C0DFF8C8C0BCF804C0BCF1010CD4
:10160000DFF8BCE0AEF804C0DFF8B4C0BCF806C038
:101610001CF1010CDFF8A8E0AEF806C0DFF8A0C0AE
:10162000BCF808C0DFF898E0BEF806E0F44507D241
:10163000DFF88CC0BCF806C0DFF884E0AEF808C064
:10164000B0F80AC0BCF1000F0AD1066046605FF036
:10165000010CA0F80AC05FF0000CC6F800C017E04B
:101660005FEAC36C09D4D0F800C067463E600660EC
:101670005FF0000CC6F800C004E0D0F804C0C6F863
:1016800000C04660B0F80AC01CF1010CA0F80AC006
:10169000B0F80CC0B0F80AE0F44503D2B0F80AC0C4
:1016A000A0F80CC071603281F4605FF0000CA5F806
:1016B00000C0F0BD00000000545E0008E6360008DF
:1016C0001C8F002072B6704762B67047EFF310802F
:1016D00072B6704780F31088704730BF704720BFE4
:1016E0007047B0FA80F0704790FAA0F0B0FA80F03E
:1016F000704790FAA0F0704780B500F086F800F0CF
:101700008BF800F07EF801BD10B50024FFF7DEFF76
:10171000040000F041F81021DFF8900101F03DFED7
:1017200000F04EF82000FFF7D5FF10BDDFF8801164
:101730000860704738B5002500F00CF80400FFF78A
:10174000C5FF050000205B4908602800FFF7C2FFC5
:10175000200032BD70B50026FFF7B8FF06005548DF
:10176000006804003000FFF7B5FF200000F090F89B
:101770000500280070BD70B50026FFF7A7FF060022
:101780004D48006804003000FFF7A4FF200000F07F
:101790007FF80500280070BD80B548480088401CCF
:1017A0004649088046480088002803D101F0E0FB44
:1017B0004449086042480088401C4149088001BDF6
:1017C00010B53F480088401E3D4908803C480088CD
:1017D000002815D101F0CCFB3B4908603A4800686D
:1017E00038490968401A040032480068A04201D212
:1017F0003048046030480068A04201D22E4804609E
:1018000010BD80B5FFF780FF01BD80B500202849DD
:10181000086001F096FB01BD70B500260020274945
:101820000880002026490880002026490860002002
:101830002549086000201F49086000201E490860F3
:1018400000202249086000200400FFF73FFF060047
:1018500000200500ADB2002D0BD100201549086015
:10186000FFF79AFFFFF7ACFF1248006804196D1CE0
:10187000F0E70120B4FBF0F01449086000200D49A6
:10188000086000200C4908603000FFF723FF70BD9E
:10189000010008000D4A1268824203D20B4A126806
:1018A000801A01E000221000704700000C8F002019
:1018B000288F0020388F00203C8F0020E08F0020F0
:1018C000E28F00202C8F0020308F0020348F0020EA
:1018D00070B50400FFF7CBFC0020DFF83C1808705F
:1018E0000020DFF8381808700020DFF8341808707E
:1018F0000020DFF8301808600020DFF8701808605A
:101900000020DFF86C1808700020DFF868180870F5
:101910000020DFF8641808700020DFF86018086005
:101920000020DFF85C1808600020DFF898180860D5
:101930000020DFF894180870DFF8900800680A218A
:10194000B0FBF1F0DFF888180860DFF8880800685D
:10195000002810D0DFF8800800680500002D0AD0AC
:10196000DFF8700800680600002E04D0761E002004
:1019700028602D1DF8E70020DFF8601808600020BF
:10198000DFF85C1808600020DFF8581808600020B5
:10199000DFF8541808600020DFF8501808600020B5
:1019A000DFF84C1808600020DFF8F4180860002009
:1019B000DFF87819087000F069FD00F084FB200062
:1019C00001F03AFD2088002845D1200001F08CFE6E
:1019D000208800283FD12000FFF770FD20880028D4
:1019E00039D1200001F08EFE2088002833D120005C
:1019F00001F096FE208800282DD1200001F04CFF38
:101A00002088002827D12000FEF7CDFF208800285D
:101A100021D1200001F0CDF9208800281BD1200021
:101A200000F08DF92088002815D1200000F092FDEB
:101A3000208800280FD1200002F071FA20880028A9
:101A400009D1200002F0F8FA2088002803D102F022
:101A500093FC02F0AFFD70BD10B50024DFF8BC06AA
:101A6000007801285BD1FFF731FE0400DFF8A806FB
:101A70000078002803D12000FFF72CFE4FE0DFF8AC
:101A800098060078401EDFF890160870DFF8880688
:101A90000078002803D02000FFF71CFE3FE0DFF8AD
:101AA00080060078002803D02000FFF713FE36E000
:101AB00000F0F7FCDFF8BC160870DFF87408DFF8F8
:101AC000B41609780C2202FB01000068DFF89C16AE
:101AD0000860DFF898060068DFF848160968884251
:101AE00003D12000FFF7F6FD19E0DFF8800600685B
:101AF000D0F89000401CDFF874160968C1F8900017
:101B0000DFF8DC080068401CDFF8D41808605FF0DC
:101B10008050DFF8D01808602000FFF7DBFD10BD13
:101B200010B50024DFF8F005007800283ED1DFF87A
:101B3000F0050078002839D1FFF7C8FD040000F057
:101B4000B0FCDFF830160870DFF8E407DFF8241681
:101B500009780C2202FB01000068DFF8101608600B
:101B6000DFF808060068DFF8BC150968884203D171
:101B70002000FFF7AFFD19E0DFF8F0050068D0F8AE
:101B80009000401CDFF8E4150968C1F89000DFF808
:101B900050080068401CDFF8481808605FF080506B
:101BA000DFF8401808602000FFF794FD10BD38B53D
:101BB00004000025DFF860050078002803D046F611
:101BC0006250208026E0DFF854050078012803D019
:101BD00045F6896020801DE0DFF80C080078FA28BF
:101BE00003DB45F20920208014E0FFF76FFD0500BC
:101BF000FFF7D2FDDFF8F0070078401CDFF8E817A8
:101C0000087000F070FBFFF7DBFD2800FFF762FDB6
:101C10000020208031BD38B504000025DFF8F8042D
:101C20000078002803D046F66550208036E0DFF8C3
:101C3000EC040078012803D045F6896020802DE06F
:101C4000DFF8A4070078002803D146F6645020800E
:101C500024E0FFF73BFD0500FFF79EFDDFF8880756
:101C60000078401EDFF880170870DFF87C070078E6
:101C7000002808D0FFF7A4FD2800FFF72BFD46F64B
:101C8000635020800AE000F038FBFFF799FD280040
:101C9000FFF720FDFFF744FF0020208031BD10B585
:101CA0000400DFF878040078002826D100F0F9FB62
:101CB000DFF8C0140870DFF8BC040078DFF8B01457
:101CC0000870DFF86C06DFF8AC1409780C2202FB10
:101CD00001000068DFF894140860DFF890040068E1
:101CE000DFF8401408600120DFF83014087002F0BB
:101CF000DDFC43F69920208002E045F68A602080D2
:101D000010BD38B505000024FFF7E0FC0400FFF724
:101D100043FDDFF8D8060068401CDFF8D0160860E5
:101D2000DFF8CC060068401CDFF8C4160860FFF737
:101D300047FD2000FFF7CEFCFFF790FAE4E710B56F
:101D40008AB004000020DFF8A416086008940B2075
:101D50000790002006900020059000200490DFF8F6
:101D6000940600680390DFF8900600680290DFF8A0
:101D70008C06006801901F2000900023DFF8802669
:101D8000DFF88016DFF88006FEF7D2F90AB010BD42
:101D90002DE9F04104000D0016001F00DFF8840358
:101DA000006880F834600020DFF87813096881F853
:101DB00035003900DFF86C03006800F03BFB002DB4
:101DC0000FD015F108008046E56001222100DFF800
:101DD0005403006800F017F82100404600F06CF84A
:101DE00009E00020DFF83C130968C8870020DFF80D
:101DF000341309680863DFF82C030168280000F039
:101E00001DF8BDE8F08110B4C287016300242300EF
:101E10009BB292B293420FD200244C6000240C601B
:101E200000240C6100244C6100240C830024CC614C
:101E3000886020315B1CEBE710BC704730B4002891
:101E40000CD04568C1F8C45010F108052A00156887
:101E50002B009D682C00256AC56113E091F8345071
:101E6000022D02D0072D05D009E0DFF8A055C1F8FA
:101E7000C45007E0DFF89855C1F8C45002E00DA542
:101E8000C1F8C45030BC704730B40AA5C1F8C45082
:101E900010F108052A0015682B00002B04D09D685E
:101EA0002C00256AC56101E002A5C56130BC704700
:101EB0000000000020000000F0B48F683B0093F8A1
:101EC00037703A000789002F08D1012707810027C2
:101ED0004F6000270F600160416028E007897F1C88
:101EE000078107683E00002E08D0B7683C0094F8D0
:101EF0003770D2B2BA4201D37668F4E7002E07D128
:101F000000274F6047683D000D60696041600EE04A
:101F10003768002F05D1316000270F604E600160E7
:101F200005E037683D000D604E6069603160F0BCCF
:101F300070472DE9F0410400206B0600E08F05009A
:101F4000ADB2002D0BD0F068804618F108000700F4
:101F50003100380000F009F820366D1EF0E700204F
:101F6000E08700202063BDE8F08110B40489012CD3
:101F700004D1002404600024446017E00C68002CA5
:101F800005D14C68230000241C6003600EE04C68FF
:101F9000002C05D10C68220000245460426005E04A
:101FA0000C6822004C68230053601A600489641E88
:101FB000048100244C6000240C6010BC70472DE9A3
:101FC000F04182B004000D0016001F00DDF82080F3
:101FD00095F8360000280BD002280AD008D3042830
:101FE00006D006D306282DD002D307282AD052E0E7
:101FF00051E095F83400032809D1CDF800803B006A
:102000009BB232002900200000F047F804E0EE65A2
:10201000A5F86070C5F84080002C06D02800FFF7B6
:1020200088FF29002000FFF72FFF280000F020FA8A
:10203000002085F83600002085F83500002085F85E
:10204000340028E095F83400032809D1CDF8008049
:102050003B009BB232002900200000F01EF804E093
:10206000EE65A5F86070C5F84080280000F0CCFB54
:10207000002C06D02800FFF75CFF29002000FFF7A6
:1020800003FF042085F83600002085F83500002085
:1020900085F83400FFE7BDE8F381F0B4049C0F6BD2
:1020A0003E00CF8F3D00ADB2002D0AD0F768B84298
:1020B00004D1306172613383F46102E020366D1E19
:1020C000F1E7F0BC704700221000C0B220280DD20A
:1020D000974AC0B20C2303FB0022110000220A81A0
:1020E00000220A6000224A60401CEEE7704710B5EB
:1020F000040094F8370000F0E7F994F837001C4921
:102100000978884203D1200000F03CF802E020006A
:1021100000F00AF810BD0000FA8F0020FB8F0020AD
:10212000FF8F0020D48F002030B4814B90F83740CF
:102130000C2505FB043319000B89002B08D1012362
:102140000B810023C36000230361086048600AE03C
:102150000B895B1C0B810B68C360002303610B6858
:102160001A001061086030BC70470000D88F002052
:10217000FC8F0020FD8F0020FE8F00208C8F002020
:10218000908F002030B46A4B90F837400C2505FB47
:10219000043319000B89002B08D101230B81002384
:1021A000C360002303610860486009E00B895B1C81
:1021B0000B810023C3604B681A000261D060486045
:1021C00030BC7047948F002000900020705E0008A3
:1021D000988F0020485E0008445E00084C8F002065
:1021E000508F0020548F0020588F00205C8F0020DB
:1021F000608F002010B40489002C02D0022C01D082
:102200000DD21AE004682100446822000A6100240B
:10221000CC6000241461D160026041600DE004686C
:10222000210044682200CC68230000241C610024A3
:10223000CC600A61D1600360416010BC7047F8B5A2
:1022400004003B4894F837100C2202FB0100050003
:1022500020690600E0680700002E13D1002F0AD184
:1022600000202881002028600020686094F8370052
:1022700000F042F90FE02889401E288100203861D3
:102280002F6008E02889401E2881F760002F01D1C7
:102290006E6000E03E61002020610020E060F1BD42
:1022A000648F002010B50024FFF710FA040000200E
:1022B0005849087058485949086058480068D0F88B
:1022C0009000401C55490968C1F8900044480068D6
:1022D000401C434908605FF080504249086020007C
:1022E000FFF7F8F910BD80B53F480078012803D109
:1022F00000F03EFE4A49086001BD10B53A4800783A
:10230000002811D100F034FE45490968401A040044
:1023100044480068A04201D2424804604248006834
:10232000A04201D24048046010BD0000039000208C
:102330004486002070B5040000263C48007801283F
:102340004CD1FFF7C3F90600FFF726FA2068050015
:10235000002D05D1FFF734FA3000FFF7BBF93DE05F
:102360002948854205D1FFF72BFA3000FFF7B2F973
:1023700034E0A86D002802D0A86D401EA865A86DA5
:10238000002805D0FFF71CFA3000FFF7A3F925E07D
:102390002089022805DAFFF713FA3000FFF79AF9CF
:1023A0001CE011480078002805D0FFF709FA30003A
:1023B000FFF790F912E02000FFF71CFF20680500EE
:1023C000686D002803D11A480068A86501E0686DAF
:1023D000A865FFF7F5F93000FFF77CF970BD000044
:1023E000B08F002004ED00E0FF8F0020688F0020F8
:1023F000A08F0020245E0008205E00081C5E0008FC
:10240000031D00086C5D0008CC8900200C5E0008EC
:10241000E85D0008FD8F0020948A0020D88F0020FE
:102420008C8F0020908F0020948F0020009000203F
:10243000988F002038B504000D00002D11D06B4698
:1024400002222900200000F0EBF8BDF8000000286F
:1024500003D1032084F8360006E0022084F8360019
:1024600002E0022084F836002000FFF7E8FE31BDCC
:1024700010B50400200000F0C7F994F836004007BA
:1024800002D42000FFF733FE10BD0A00002108002F
:10249000002805D10021244A42F82010401CF7E70B
:1024A000704738B5002005001F4804002068002848
:1024B00002D12035241DF9E72068FFF712F94019F1
:1024C00005002800C0B232BD30B4C0B244092300B8
:1024D000C0B210F01F04220001242100D2F11F0419
:1024E000A140114CDBB254F823400C430E4DDBB23B
:1024F00045F8234030BC704730B4C0B244092300D3
:10250000C0B210F01F04220001242100D2F11F04E8
:10251000A140054CDBB254F823408C43024DDBB2A2
:1025200045F8234030BC7047488F00201CB504009C
:102530006B4601AA00210020FEF73AF8BDF8000022
:102540000028F5D1DFF8280500780128F0D100F047
:1025500093F9EDE710B58AB004000020DFF81415F8
:1025600008600020DFF81015086000F042F8DFF87E
:102570000C050068002803D147F21220208036E0C5
:10258000DFF8FC040068DFF8FC140968884203D215
:1025900047F2132020802AE0DFF8EC0400781F289F
:1025A00003D347F21120208021E008940B200790EC
:1025B000002006900020059000200490DFF8C00461
:1025C00000680390DFF8C40400680290DFF8AC04F0
:1025D00000680190DFF8B004007800900023DFF875
:1025E000B024DFF8B014DFF8B004FDF7A1FD0AB0A5
:1025F00010BD00221000DFF8A424128880B290429F
:102600000DD2DFF89C2480B212EBC0021100002230
:102610000A6000228A800022CA80401CEBE77047D3
:102620002DE9F04792B2042A23D1DFF84884D8F884
:102630000080B1EB0808B8F101084446DFF8648473
:10264000444510D35FF00008C0F84C805FF00008EC
:10265000C0F850805FF00008C0F81C8047F27E2868
:10266000A3F80080CEE0C16414F10108C0F85080E6
:1026700048E0002935D092B2082A28D1D0F8488005
:1026800011EB08084546DFF8EC83D8F80080B5EB7D
:102690000808B8F1010844468C4201D2C56407E03D
:1026A000DFF8D083D8F8008011EB0808C0F84C8020
:1026B000D0F84C80DFF8BC93D9F80090B8EB09084B
:1026C000C0F85080D0F84C80C0F848801AE0DFF89D
:1026D000A483D8F8008011EB0808C0F84C8001658D
:1026E00010E05FF00008C0F84C805FF00008C0F810
:1026F00050805FF00008C0F81C8047F27E28A3F8E5
:1027000000807FE0D0F84C80DFF89093B9F800901B
:10271000B8FBF9FA09FB1A88C646DFF884831FFA6A
:102720008EFE18EBCE084646B6F80480B8F1000FCE
:102730000DD15FF00008C0F814805FF00008C0F809
:10274000188030605FF00108A6F804804BE0D6F8EE
:102750000080C446BCF1000F3FD0DCF84C80DFF8AD
:102760001493D9F80090B8EB0908CCF85080DCF845
:102770005080D0F85090C84513D2DCF81480B8F1DE
:10278000000F02D0DCF814C0E4E75FF00008C0F8E6
:102790001480C0F818C0CCF814005FF00008C446DC
:1027A000D8E7DCF81880B8F1000F09D15FF0000815
:1027B000C0F81880C0F814C0CCF81800306008E0E9
:1027C000DCF8188047468761C0F814C07861CCF8FF
:1027D00018005FF00008C446BCE7B6F8048018F1A2
:1027E0000108A6F80480B6F80680B6F80490C8453B
:1027F00003D2B6F80480A6F80680C6615FF0000830
:10280000A3F80080BDE8F08710B4C4692100002956
:102810001FD0002404650C68844207D1446922005B
:102820000A60002A0AD00024946107E0846922002B
:10283000446923005361002B00D09A610024446155
:10284000002484610024C4610024C4648C88641E54
:102850008C8010BC704700221000904A128880B211
:10286000904208D28E4A80B212EBC00211000022C0
:10287000CA80401CF1E770472DE9F84F5FF0000B6C
:10288000FEF724FF8346FEF787FF87480078401C49
:102890008549087084480078012801D1FFF723FD9D
:1028A000FEF78EFF5846FEF715FF00F061FB8146EC
:1028B00070480068401C6F490860784800886D497E
:1028C00009686C4A1268B2FBF0F200FB12108046F5
:1028D00073481FFA88F810EBC80005002868060046
:1028E00000200400E4B2002C40F08D80002E00F0A7
:1028F00087807069070096F8360000280BD0022800
:1029000009D009D3042806D01AD3062803D03CD313
:1029100007284ED072E071E0F06C56490968401A01
:10292000306554480068F16C884206D1002086F872
:1029300036003000FFF79CFD01E0012004005DE05F
:10294000F06C4C490968401A30654A480068F16CDF
:10295000884217D10020F0650020A6F8600000F042
:1029600007FB30643000FFF7E4FA3000FFF780FD2A
:10297000002086F83600032086F83500002086F80F
:10298000340001E00120040038E0F06C39490968A6
:10299000401A306537480068F16C884206D104203F
:1029A00086F836003000FFF72FFF01E00120040019
:1029B00024E0F06C2F490968401A30652D48006802
:1029C000F16C884217D10020F0650020A6F8600065
:1029D00000F0CEFA30643000FFF7ABFA3000FFF7BA
:1029E00013FF042086F83600032086F83500002007
:1029F00086F8340001E001200400FFE73E0071E7A3
:102A0000012004006EE700F0B3FAB0EB0900824643
:102A100019480068504502D21748C0F800A0FEF7D8
:102A200055FE8346FEF7B8FE1F480078401E1E493B
:102A300008701D480078002813D1FFF75EFC1B4882
:102A40000088002807D0FEF7BBFE5846FEF742FE7E
:102A5000FFF728FC0AE0FEF7B3FE5846FEF73AFE01
:102A600004E0FEF7ADFE5846FEF734FEBDE8F18FF8
:102A7000FB8F0020B88F0020BC8F0020745E000800
:102A80007C5E00086C5E0008D35F0008785E00087A
:102A90002D250008945D0008248C0020E2540008D5
:102AA000B48D00200100FFFFFF8F0020E48F002085
:102AB0002DE9F14F0D0016001F00DDF828800B9C5A
:102AC000DDF83090DDF834A05FF0000BFEF7FEFD7E
:102AD0008346FEF761FEDFF8C0030088DFF8BC1311
:102AE000098888425AD2DFF8B0030088401CDFF81A
:102AF000A8130880DFF8A8030088DFF89C13098872
:102B0000884205D2DFF890030088DFF8941308802C
:102B10000098DFF8901309680860DFF88803006800
:102B20008560DFF880030068C660DFF8780300681E
:102B30000782DFF870030068C0F81480DFF86403D0
:102B400000680483DFF85C030068C0F81C90DFF8BD
:102B5000540300684068DFF84C1308600120DFF878
:102B600048130881DFF84403DFF83C130860DFF8FE
:102B70003C03DFF8341348600020FFF7A5FCDFF8C2
:102B800030030078002805D0DFF824030078DFF850
:102B9000241308700020AAF8000009E0DFF81803E9
:102BA0000088401CC449088044F25360AAF8000021
:102BB000FEF706FE5846FEF78DFDBDE8F18F10B515
:102BC00084B0BE4800680068BD4988423BD0BD491A
:102BD000884212D0BC4988425ED0BC4988423FD06E
:102BE000BB4988426CD0BB4988424ED0BA49884222
:102BF0005FD0BA49884211D089E002A80090AF485E
:102C00000068C369AD480068028BAC480068416940
:102C1000AA480068806800F01BFC78E002A80190D8
:102C2000A6480068C0690090A4480068038BA348C8
:102C30000068028AA1480068C168A04800688068EE
:102C400000F077FD63E002AB9C480068C2699B48D6
:102C50000068018B99480068806800F026FE56E005
:102C600002A8019095480068C069009093480068E8
:102C7000038B92480068028A90480068C1688F48B8
:102C800000688068FDF733FF41E002A98B480068C7
:102C90008068FEF736F83AE002AB88480068C269FF
:102CA00086480068018B854800688068FEF7DCF87C
:102CB0002DE002A9814800688068FEF721FA26E02D
:102CC00079487C4909780C2202FB0100FFF732FBAE
:102CD00002AB7A480068C26900218148FEF7C4F857
:102CE00080480068401E7F4908607E4800680028D0
:102CF0000CD17D4800687B49086000F039F9040078
:102D000002AB220000217948FEF7AEF8FFE71FBDB5
:102D10002DE9F0418046002700200400E4B2002C99
:102D2000FAD1FEF7D3FC0700FEF736FD5A480088BB
:102D3000002815D100205C49088100205A4908600C
:102D40000020594948600020FFF7D6FBFEF738FD08
:102D50003800FEF7BFFCFEF7E3FE01200400DDE7CC
:102D6000FEF72EFD3800FEF7B5FC00F001F9050076
:102D7000FFF725FF00F0FCF8401B06005C480068E8
:102D8000B04201D25A480660FEF7A0FC0700FEF7E9
:102D900003FD4A4800684068484908603E4800888A
:102DA000401E3D490880FEF70BFD3800FEF792FCFF
:102DB000B4E7F0B589B0040000203F4908804D48D1
:102DC0000068002803D144F25260208062E033485A
:102DD0000088022803DA44F2546020805AE0002080
:102DE000434908604348006805002E002036002053
:102DF00007002A480088BFB2874210D23E482860A8
:102E00000020A8600020E86000202882002068617F
:102E1000002028836E60203520367F1CE9E7203DA6
:102E20003448006806006E601E480660234806604D
:102E30000020194908800020194908802F4800689F
:102E4000002803D144F25560208023E02C4800681C
:102E50002C490968884203D244F25660208019E068
:102E60000894032007900020069000200590002081
:102E700004902348006803902348006802901F488C
:102E800000680190002000900023204A2049074854
:102E9000FDF74EF909B0F0BDE48F00208A24000848
:102EA000E68F0020708F002044860020948A002046
:102EB000FC8F0020FE8F0020E88F0020748F002000
:102EC00053454D41464C414754534947544D534750
:102ED0005449434B545245535453555351554555FA
:102EE000248C0020D08F0020CC8F0020EC8C002080
:102EF000788F00202C5E00084E4F4E45345E00084F
:102F00003C5E00086C5E0008385E0008112D000869
:102F1000F45C000880B502F0F1F902BD38B5FFF7A6
:102F2000F9FF040014480068B4FBF0F00500280025
:102F3000FEF789FA31BD80B502F014FAFFF7EEFF13
:102F400001BD10B50D48006850F080700B49086055
:102F500000200B4908600B48006850F00100094947
:102F60000860FFF7D7FF04002000FEF7DFFB10BD6D
:102F70000348006870470000705E0008FCED00E048
:102F8000041000E0001000E0F8B504000D00160089
:102F90000027DFF88C030078002803D047F2752063
:102FA000308082E0DFF87C030078002803D046F60A
:102FB0006350308079E0ADB22800002805D00228A7
:102FC00003D0042808D0082807D1002C03D147F2E9
:102FD0007E20308069E004E003E045F62560308023
:102FE00063E0FEF773FB0700FEF7D6FBDFF8340360
:102FF0000078401CDFF82C130870DFF828030078F5
:10300000012801D1FFF76FF9FEF7DAFB3800FEF770
:1030100061FB0120DFF81013096881F836003300E6
:103020002A0092B22100DFF800030068FFF7F8FAE7
:103030003088002818D0FEF749FB0700FEF7ACFBEC
:10304000DFF8E0020078401EDFF8D8120870DFF8E1
:10305000D4020078002801D1FFF74FF9FEF7B0FB4A
:103060003800FEF737FB20E0DFF8BC020068FFF70E
:10307000E6F8FEF72BFB0700FEF78EFBDFF8A40255
:103080000078401EDFF89C120870DFF89802007884
:10309000002801D1FFF731F9FEF792FB3800FEF767
:1030A00019FBFEF73DFD00203080F1BD2DE9FE4FFC
:1030B00005000E0093461F000C9CDDF834805FF085
:1030C000000ADFF85C020078002804D047F275207F
:1030D000A8F8000006E1DFF84C020078002804D0D0
:1030E00046F66350A8F80000FCE014F00E00ADF8BE
:1030F0000000BDF80000002805D0022803D00428F5
:1031000014D0082813D1002F0FD11FFA8BFBBBF16D
:10311000000F0AD1B6B2002E07D1ADB2002D04D1F6
:1031200047F27E20A8F80000DCE005E004E045F668
:103130002560A8F80000D5E04FF6E1710C4202D1FD
:103140005FF0000901E05FF001095FFA89F9B9F168
:10315000010F04D145F62560A8F80000C2E0C4F3D1
:10316000001080B210F001008DF802009DF80200FE
:10317000012821D0B7F57A7F04D347F27B20A8F845
:103180000000AFE01FFA8BFBBBF13C0F04DB47F202
:103190007A20A8F80000A5E0B6B23C2E04DB47F286
:1031A0007920A8F800009DE0ADB2642D17DB47F24E
:1031B0007820A8F8000095E0B6B242F2107086427E
:1031C00004DB47F27920A8F800008BE0ADB2B5F53A
:1031D0007A7F04DB47F27820A8F8000082E05348A9
:1031E00000680190ADB24FF46160B6B23C2101FBC2
:1031F00006F100FB05101FFA8BFB1BEB0000019989
:10320000019A4FF4FA73DDF804C0B3FBFCF3DB1949
:103210005A434FF47A73B2FBF3F201FB00200290A1
:10322000029800285AD0FEF751FA8246FEF7B4FA07
:103230003C480078401C3B4908703A480078012817
:1032400001D1FFF750F8FEF7BBFA5046FEF742FAFD
:1032500001203549096881F836004346BDF8002051
:10326000029931480068FFF7DBF9B8F80000002840
:1032700015D0FEF72BFA8246FEF78EFA2948007821
:10328000401E2849087027480078002801D1FFF720
:1032900034F8FEF795FA5046FEF71CFA22E0224871
:1032A0000068FEF7CCFFFEF711FA8246FEF774FACB
:1032B0001C480078401E1B4908701A4800780028F6
:1032C00001D1FFF71AF8FEF77BFA5046FEF702FA33
:1032D000FEF726FC0020A8F8000003E047F27E205D
:1032E000A8F80000BDE8F78F30B585B0FEF78CF880
:1032F000FFF73EFE040004A8039002940020019012
:10330000002000900023002209480A4909780C2572
:1033100005FB01010848FFF7CBFB05B030BD0000FD
:10332000FA8F0020FF8F0020D48F0020705E0008ED
:1033300044860020FC8F00205449434BDFF8E810FE
:103340000800DFF8E8100160DFF8DC1041600021C0
:1033500081600021C16000210161002141610021E3
:1033600081610021C161002101620021016300210E
:10337000C16200214162DFF8B8108163DFF8B0104C
:10338000C1634FF4D84101644FF4D8414164DFF880
:103390009810DFF8A0201160704738B504000D00C8
:1033A0002A000021200000F001F831BD2DE9F04194
:1033B000002A37D0002835D05FF0000E74465FF049
:1033C000000EF446BCF1040F05D22402C9B20C432E
:1033D0001CF1010CF6E713005FF0040EB0FBFEF8E1
:1033E00008FB1E085FFA88F847460600002F0BD03E
:1033F000BC46002B08D0BCF1040F05D23170761CFE
:103400005B1E1CF1010CF4E73500042B03D32C6088
:103410002D1D1B1FF9E72E00002B03D03170761CE9
:103420005B1EF9E7BDE8F081C48E0020484541509D
:1034300004000020408F00200021934A11600021E9
:10344000024A11800021018070470000EA8F0020AD
:103450002DE9F24F84B0834614001D000E9E5FF0EC
:10346000000AFEF733F98246FEF796F9A4B220006F
:10347000002809D001280ED0B0F5004F04D048F242
:103480000101884207D00DE0DBF8200004990843D1
:10349000CBF8200010E0DBF8200004998843CBF83B
:1034A000200009E0FEF78CF95046FEF713F945F6C7
:1034B000256030800020DFE0CBF824501BF10800AD
:1034C000009000980089002809D1FEF779F950464C
:1034D000FEF700F900203080DBF82000CCE06948DE
:1034E0000078401C6749087066480078012801D1BF
:1034F000FEF7F9FEFEF764F95046FEF7EBF8009888
:1035000000688046D8F808008146B9F1000F00F045
:103510008A80D8F80400019099F8880010F00F0014
:10352000ADF80800BDF80800012824D0022833D0E7
:10353000042802D0082810D03DE0DBF82000D9F89C
:10354000801008400700D9F88000874204D12A0083
:103550003900484600F09AF859E0DBF82000D9F825
:10356000801008400700002F04D02A003900484688
:1035700000F08CF84BE0DBF82000D9F8801031EA3D
:1035800000000700D9F88000874204D12A003900E2
:10359000484600F07BF83AE0DBF82000D9F88010CC
:1035A00031EA00000700002F04D02A003900484605
:1035B00000F06CF82BE0FEF789F88246FEF7ECF895
:1035C00030480078401E2F4908702E4800780028A7
:1035D00013D1FEF792FE2A480088002807D0FEF794
:1035E000EFF85046FEF776F8FEF75CFE0AE0FEF7CD
:1035F000E7F85046FEF76EF804E0FEF7E1F85046B3
:10360000FEF768F843F6FF203080002034E0019890
:103610008046B8F1000F03D0D8F80800814674E75F
:103620000020814671E7FEF751F88246FEF7B4F8B4
:1036300014480078401E134908701248007800288A
:1036400001D1FEF75AFEFEF7BBF85046FEF742F8EE
:10365000200401D4FEF764FAFEF738F88246FEF73C
:103660009BF8DBF820000390FEF7AAF85046FEF71F
:1036700031F800203080039805B0BDE8F08F0000DD
:10368000E48F0020FF8F00207C8F002070B50400A5
:103690000D001600C4F88450002084F83500002086
:1036A00084F83400266494F8360000280BD00228F1
:1036B0000AD008D3042806D006D306280BD002D39C
:1036C000072808D00BE00AE02000FEF7D1FE00201A
:1036D00084F8360003E0042084F83600FFE7200079
:1036E000FEF727FC70BD64000021054A116000212F
:1036F000024A11800021018070470000EC8F0020F9
:10370000808F00200021054A11600021024A1180AB
:103710000021018070470000EE8F0020848F002080
:1037200000215C4A11600021584A1180002101806B
:1037300070472DE9F04F87B004000D0016001F0000
:10374000DDF84080DDF844905FF0000BFDF7BEFF30
:103750008346FEF721F84C480078401C4A4908701F
:1037600049480078012801D1FEF7BDFDFEF728F891
:103770005846FDF7AFFF14F1080004900498008943
:1037800000283DD1F80603D40020ADF8080002E07F
:103790001020ADF80800CDF80490CDF80080BDF8F9
:1037A0000830320092B2290014F12000FDF7FDFE2E
:1037B000FDF78CFF8346FDF7EFFF33480078401E8E
:1037C0003149087030480078002813D1FEF795FD84
:1037D0002F480088002807D0FDF7F2FF5846FDF774
:1037E00079FFFEF75FFD0AE0FDF7EAFF5846FDF7B7
:1037F00071FF04E0FDF7E4FF5846FDF76BFF3FE083
:10380000B80503D504980089824601E0012082466C
:103810000498006803901FFA8AFABAF1000F13D0D7
:10382000039880680590039840680690CDF8008062
:1038300033009BB22A0005992000FEF7C0FB0698D2
:103840000390BAF1010AE6E7FDF740FF8346FDF772
:10385000A3FF0D480078401E0B4908700A48007805
:10386000002801D1FEF749FDFDF7AAFF5846FDF7F4
:1038700031FF380401D4FEF753F90020A9F8000005
:1038800007B0BDE8F08F0000FF8F0020F08F002010
:10389000E48F0020888F00200021484A1160002119
:1038A000454A11800021018070472DE9F04F85B015
:1038B00004000D0016001F005FF0000AFDF706FF70
:1038C0008246FDF769FF14F1080001900198008914
:1038D00000281CD1206A10F1010F09D1FDF770FFFB
:1038E0005046FDF7F7FE46F6C550388000205EE0F2
:1038F000206A401C2062206A83466662FDF760FFF2
:103900005046FDF7E7FE0020388058464FE0294832
:103910000078401C2749087026480078012801D10A
:10392000FEF7E1FCFDF74CFF5046FDF7D3FEA8057E
:1039300003D501980089804601E001208046019866
:10394000006881461FFA88F8B8F1000F11D0D9F845
:1039500008000290D9F8040003900096002300228A
:1039600002992000FEF72BFB03988146B8F101086D
:10397000E8E7206A8346FDF7A9FE8246FDF70CFFC3
:103980000C480078401E0B4908700A48007800284F
:1039900001D1FEF7B2FCFDF713FF5046FDF79AFE8A
:1039A000280401D4FEF7BCF800203880584605B042
:1039B000BDE8F08FFF8F0020F28F00209C8F002049
:1039C0002DE9F04104005FF00008FDF77FFE80461E
:1039D000FDF7E2FE0020DFF8D81508600020DFF8D0
:1039E000D41508800020DFF8D01508800020DFF80B
:1039F000CC1508600020DFF8C81508600020DFF84B
:103A0000C41508600020DFF8C01508600020DFF84A
:103A1000BC1508600020DFF8B8150881FDF7D0FE5E
:103A20004046FDF757FEFDF751FE8046FDF7B4FE18
:103A3000DFF8A00500680500FDF7C2FE4046FDF76F
:103A400049FE002D2FD0FDF741FE8046FDF7A4FE74
:103A50000020C5F8B4000020C5F8B8000020A86711
:103A60000020C5F8A8000020C5F890000020A5F8A7
:103A70008C000020A5F88E000020C5F89C000020D6
:103A8000C5F8A000FFF774FAC5F8980015F16400B6
:103A900006000020B081D5F8C050FDF791FE4046E9
:103AA000FDF718FECDE7FDF711FE8046FDF774FE29
:103AB000DFF8240500680700FDF782FE4046FDF7A9
:103AC00009FE002F10D0FDF701FE8046FDF764FED1
:103AD00017F1200006000020B081BF69FDF770FEDD
:103AE0004046FDF7F7FDECE7FEF7B5FE00F082FB80
:103AF00000202080BDE8F08170B582B0040000266F
:103B00006946DFF8D804FCF7DEFEBDF800000028A7
:103B100003D0BDF80000208062E06A460021022048
:103B2000FFF732FABDF80000002803D0BDF800000E
:103B3000208055E0FDF7CAFD0600FDF72DFE0020B0
:103B4000DFF89C140860FDF73BFE3000FDF7C2FD76
:103B500000200500DFF88C040068DFF88C14096889
:103B6000884208D2DFF880040068DFF8781409681A
:103B7000B0FBF1F00500002D06D1DFF86C04006801
:103B80000A21B0FBF1F005006A4600212800FFF78A
:103B9000FBF96946DFF84404FCF7D0FCBDF80000EF
:103BA000002803D0BDF80000208019E0FDF78EFD4D
:103BB0000600FDF7F1FD0020DFF800140860DFF8D3
:103BC00020040068DFF8241408600120DFF82014C6
:103BD0000870FDF7F5FD3000FDF77CFD002020802A
:103BE00073BD2DE9F04F87B083465FF0000ADFF820
:103BF00000040078012808D002AA0021DFF8E403BD
:103C000000684000FFF7C0F9F1E702A8FFF7D8FE0F
:103C100000200190DFF8CC030068DFF8CC130968BE
:103C2000884208D2DFF8C0030068DFF8B8130968DB
:103C3000B0FBF1F001900198002806D1DFF8A8034D
:103C400000680A21B0FBF1F00190FFF791F90590AF
:103C5000FDF791FDDFF870130860FDF737FD824630
:103C6000FDF79AFDDFF878030068DFF88813086035
:103C70000020DFF86C130860FDF7A2FD5046FDF749
:103C800029FDDFF870030068DFF8601309688842D7
:103C90004ED2DFF858030068DFF85C13884205D283
:103CA00042F2107080460120814625E0CF4800682E
:103CB000DFF84813884205D24FF47A7080460A2014
:103CC000814619E0C9480068CD49884204D2642081
:103CD0008046642081460FE0C4480068C949884294
:103CE00005D20A2080464FF47A70814604E0012014
:103CF000804642F210708146BC480068B0FBF9F083
:103D0000069042F21070BB49096801FB08F1069A5F
:103D1000B1FBF2F1401ABC490880A7480088BA49B3
:103D20000988884208D2B8480088A349088003E07F
:103D300042F21070B4490880FDF7B1FA0020050086
:103D4000FDF7C4FC8246FDF727FDA2480068070086
:103D5000FDF736FD5046FDF7BDFC002F52D0FDF7B4
:103D6000B5FC8246FDF718FDA8480078401CA7491D
:103D70000870A6480078012801D1FEF7B4FAFDF7D3
:103D80001FFD5046FDF7A6FCD7F89C00C7F8A00021
:103D90000020C7F89C00FDF799FC8246FDF7FCFC6B
:103DA0009A480078401E9949087098480078002881
:103DB00013D1FEF7A2FA96480088002807D0FDF735
:103DC000FFFC5046FDF786FCFEF76CFA0AE0FDF7B3
:103DD000F7FC5046FDF77EFC04E0FDF7F1FC504691
:103DE000FDF778FCD7F8A0004519FDF76FFC824677
:103DF000FDF7D2FCD7F8C070FDF7E2FC5046FDF7A6
:103E000069FCAAE7002D2CD07B48854205D242F2FE
:103E100010700600012000901EE07848854205D20F
:103E20004FF47A7006000A20009015E0744885422D
:103E300004D264200600642000900DE071488542A1
:103E400005D20A2006004FF47A70009004E00120A9
:103E5000060042F2107000900098B5FBF0F004905C
:103E600003E00020060001200490FDF72FFC8246AD
:103E7000FDF792FC574800680700FDF7A1FC50468B
:103E8000FDF728FC002F2DD0D7F8A00000FB06F08E
:103E90000499B0FBF1F00400A4B242F21170844224
:103EA00002D342F210700400A7F88C40B7F88E00DD
:103EB000A4B2A04201D2A7F88E4002AB17F1AC0227
:103EC00017F1B0013800FCF799FCFDF7FFFB8246C3
:103ED000FDF762FCD7F8C070FDF772FC5046FDF7A5
:103EE000F9FBCFE74B480078012805D1002049496C
:103EF000087002A8FFF764FDFFF73AF80599401A29
:103F000003902E4800680399884202D203982B49F7
:103F1000086002AA00210198FFF736F895E610B56F
:103F20008AB0040000202E49086000203149086052
:103F300000202E49086000202D49087000203549D6
:103F4000087035480068002803D146F62B602080B1
:103F50002CE03248006832490968884203D246F6AC
:103F60002C60208022E02F4800781F2803D346F6DB
:103F70002A6020801AE00894032007900020069011
:103F800000200590002004902448006803902648F3
:103F90000068029020480068019022480078009054
:103FA0000023224A22492348FCF7C2F80AB010BD78
:103FB000788F0020E68F0020F68F0020AC8F002045
:103FC000BC8F0020C48F00206C8F0020908F0020B9
:103FD0001C8F0020B48F0020888F0020EC8C0020E4
:103FE000A08F0020585E0008705E0008A48F00209B
:103FF00002900020A88F0020801A060000093D00D2
:10400000005A62020084D717F48F0020FF8F00202F
:10401000E48F0020019000205C5E0008645E0008D0
:104020006C5E0008D25F0008605E0008E33B000899
:10403000805D00085C8B002070B58AB00400002011
:10404000BE490860BE480068002808D0BD48006826
:10405000BB490968B0FBF1F0BB49086006E0B9480C
:1040600000680A21B0FBF1F0B7490860B648006863
:10407000B64908600020B04908600020B4490860D3
:1040800000200500B3480088ADB285420CD2B2488A
:10409000ADB210EBC50006000020B0800020F0801B
:1040A000002030606D1CEDE7AC480068002803D1AB
:1040B00047F2473020802DE0A9480068A9490968E7
:1040C000884203D247F24830208023E0A648007897
:1040D0001F2803D347F2463020801BE008940B20B2
:1040E00007900020069000200590002004909C4836
:1040F000006803909D48006802909848006801900D
:1041000099480078009000230FF265129849994869
:10411000FCF70EF80AB070BDF0B4022680F82A60F1
:1041200089B2012905D1466A834F3F68BE1986616D
:104130000DE0066A002E05D1466A7F4F3F68BE1922
:10414000866104E0066A7C4F3F68BE198661866915
:10415000804F3F88B6FBF7FC07FB1C6635007E4EA0
:10416000ADB216EBC50632001668002E07D1002648
:1041700006610026466110600126968032E086695D
:104180006D4F3F68F61BC66116683400002C26D0C0
:10419000A669694F3F68F61BE661E669C769BE42DA
:1041A0000BD22669002E01D02469EFE700260661B4
:1041B0004461206100263400E8E76669002E05D1DD
:1041C0000026466104616061106005E066693300A5
:1041D000436104611861606100263400D6E7968867
:1041E000761C9680D6889788BE4201D29688D68063
:1041F000F0BC704700221100564A128889B29142E1
:1042000008D2554A89B212EBC10210000022C280C6
:10421000491CF1E77047F0B485694E4E3688B5FB0E
:10422000F6F706FB17552C004B4DA4B215EBC40551
:1042300029000D68854207D105692A000A60002A15
:104240000AD00025556107E045692A0005692B0061
:104250001361002B00D05A61012580F82A500025F7
:104260000561002545618D886D1E8D80F0BC70470D
:104270002DE9FE4F83466B4602AA00210020FCF781
:1042800097F96846FDF793FCFEF772FE81462A48CF
:104290000068401C284908602E48008826490968A3
:1042A000254A1268B2FBF0F200FB121080462A4841
:1042B0001FFA88F810EBC80001900198006806000A
:1042C00000200400E4B2002C26D1002E21D0306959
:1042D000070019480068B169884217D13000FFF71C
:1042E0009AFF308D022804D101213000FFF714FF1E
:1042F00002E0032086F82A00B068050028000028A4
:1043000002D0F1683000A8473E00DBE7012004003E
:10431000D8E701200400D5E7FEF72AFEB0EB09003C
:1043200082466846FDF777FC094800685045A2D2EE
:104330000748C0F800A09EE7C88F0020C08F00206B
:10434000885E0008705E0008CC8F0020D08F0020AF
:10435000C48F0020325D00083C8E00208C5E000877
:10436000945E00086C5E0008D45F0008905E000850
:10437000545D0008EC8C0020474B1800474B1A0096
:10438000474B1800474B1800474B1A00474B180083
:10439000474B1900474B1800474B1800474B180074
:1043A000474B1800474B1900474B1900474B190062
:1043B000474B1800474B1900474B1800474B190053
:1043C000474B1800474B1900474B1900474B190042
:1043D000474B1900474B1800474B1800474B180034
:1043E000474B1900474B1800474B1800474B190023
:1043F000474B1900474B1900474B1900474B190011
:10440000474B1900474B1900474B1800474B180002
:10441000474B1800474B1800474B1900474B1900F2
:10442000474B1900474B1800474B1800474B1800E3
:10443000474B1900474B1900474B1900474B1A00CF
:10444000474B1900474B1800474B1800474B1800C3
:10445000474B1800474B1800474B1800474B1800B4
:10446000474B1900474B1800474B1800474B1900A2
:10447000474B1900474B1800474B1800474B190092
:10448000474B1800474B1800474B1900474B190082
:10449000474B1900704700BFD55F0008AC5E0008AD
:1044A000D65F0008D75F0008A45E0008D85F000848
:1044B000385C0008D95F0008DA5F0008DB5F00089D
:1044C000DC5F00083E5D0008A45F0008A65F0008EE
:1044D000DD5F0008D45C0008DE5F0008A85F00080C
:1044E000DF5F0008AA5F0008AC5F0008AE5F00084D
:1044F000E05B0008E05F0008E15F0008E25F0008A1
:10450000B05F0008E35F0008E45F0008B25F0008E6
:10451000B45F0008B65F0008B85F0008BA5F000823
:10452000BC5F0008B05B0008E55F0008E65F0008BC
:10453000E75F0008E85F0008BE5F0008E95F000869
:10454000605C0008EA5F0008EB5F0008EC5F0008B1
:10455000ED5F0008C05F0008C25F0008A85E0008A9
:10456000EE5F0008EF5F0008F05F0008F15F0008F1
:10457000F25F0008F35F0008F45F0008F55F0008D1
:10458000C45F0008F65F0008F75F0008C65F000818
:10459000C85F0008F85F0008F95F00087C5B00084E
:1045A000FA5F0008FB5F0008CA5F0008CC5F0008E4
:1045B000CE5F000814481548154816481648174895
:1045C000174818481848194819481A481A481B48E3
:1045D0001B481C481C481D481D481E481E481F48B3
:1045E0001F48204820482148214822482248234883
:1045F0002348244824482548254826482648274853
:104600002748284828487047A05E00081C5E00081C
:10461000205E0008245E0008285E00082C5E00086A
:104620008A240008305E0008345E0008385E000806
:104630003C5E0008405E0008445E0008485E0008DA
:104640004C5E0008E6360008505E0008545E000824
:10465000D25F0008585E00085C5E0008605E0008DB
:10466000645E0008685E00086C5E0008705E00080A
:10467000D35F0008745E0008785E00087C5E000866
:10468000805E0008E2540008845E0008D45F0008E1
:10469000885E00088C5E0008905E0008945E00084A
:1046A000985E0008325D00089C5E00081748FF21F4
:1046B0000170002080F309881548016881F308889B
:1046C00014481549016062B6FEE772B6EFF309803F
:1046D00028B1203880E8F00F10490968086000B55B
:1046E0000F4880475DF804EB0E480F490A780270C6
:1046F0000A480E490A680260106890E8F00F2030FE
:1047000080F309884EF0040E62B6704722ED00E097
:10471000448F002004ED00E000000010D48F002042
:1047200075130008FC8F0020FD8F0020D88F00201B
:1047300038B5040000252078C00740F10D81DFF86E
:10474000E40B006810F00C0004280BD0DFF8D40B49
:10475000006810F00C0008282AD1DFF8C80B0068A8
:10476000C00325D54FF48040B0FA80F050F020000F
:10477000C0B24009C0B2012803D1DFF8AC0B006819
:1047800006E04FF48040B0FA80F0DFF8A00B00683C
:104790004FF48041B1FA81F111F01F01C840C00708
:1047A00040F1DA806068002840F0D6800120A6E35E
:1047B000DFF8740B006830F48030DFF86C1B0860A1
:1047C000DFF8640B006830F48020DFF85C1B0860C1
:1047D00000F047FE05004FF48040B0FA80F050F042
:1047E0002000C0B24009C0B2012803D1DFF8380B65
:1047F000006806E04FF48040B0FA80F0DFF82C0B40
:1048000000684FF48041B1FA81F111F01F01C840F6
:10481000C00706D500F025FE401B6528DBD303202A
:104820006DE36068B0F5803F08D1DFF8FC0A0068EE
:1048300050F48030DFF8F01A086038E06068002833
:1048400010D1DFF8E40A006830F48030DFF8D81ABD
:104850000860DFF8D40A006830F48020DFF8C81A56
:10486000086024E06068B0F5A02F10D1DFF8B80A26
:10487000006850F48020DFF8B01A0860DFF8A80A5A
:10488000006850F48030DFF8A01A08600FE0DFF80D
:10489000980A006830F48030DFF88C1A0860DFF87E
:1048A000880A006830F48020DFF87C1A08606068AD
:1048B000002828D000F0D5FD05004FF48040B0FA64
:1048C00080F050F02000C0B24009C0B2012803D1EE
:1048D000DFF8540A006806E04FF48040B0FA80F038
:1048E000DFF8480A00684FF48041B1FA81F111F015
:1048F0001F01C840C0072FD400F0B3FD401B65283E
:10490000DBD30320FBE200F0ACFD05004FF4804058
:10491000B0FA80F050F02000C0B24009C0B20128C7
:1049200003D1DFF8040A006806E04FF48040B0FAD3
:1049300080F0DFF8F80900684FF48041B1FA81F1A6
:1049400011F01F01C840C00706D500F08AFD401BCA
:104950006528DBD30320D2E22078800740F1BF80B6
:10496000DFF8C009006810F00C0F0BD0DFF8B409B5
:10497000006810F00C00082839D1DFF8A809006899
:10498000C00334D45FF08040B0FA80F050F02000D3
:10499000C0B24009C0B2012803D1DFF88C09006819
:1049A00006E05FF08040B0FA80F0DFF88009006830
:1049B0005FF08041B1FA81F111F01F01C840C007DA
:1049C00004D52069012801D0012098E2DFF85809B8
:1049D00000685FF0F851B1FA81F130F0F8006269D7
:1049E00012FA01F10843DFF84019086077E0206906
:1049F000002842D001205FF00041B1FA81F1DFF8D8
:104A0000302942F8210000F02CFD05005FF08040C5
:104A1000B0FA80F050F02000C0B24009C0B20128C6
:104A200003D1DFF80409006806E05FF08040B0FAC7
:104A300080F0DFF8F80800685FF08041B1FA81F19A
:104A400011F01F01C840C00706D400F00AFD401B4A
:104A50000328DBD3032052E2DFF8CC0800685FF0C4
:104A6000F851B1FA81F130F0F800626912FA01F1FF
:104A70000843DFF8B418086031E000205FF000411F
:104A8000B1FA81F1DFF8A82842F8210000F0E9FC32
:104A900005005FF08040B0FA80F050F02000C0B216
:104AA0004009C0B2012803D1DFF87C08006806E0A5
:104AB0005FF08040B0FA80F0DFF8700800685FF0C7
:104AC0008041B1FA81F111F01F01C840C00706D53D
:104AD00000F0C7FC401B0328DBD303200FE2207843
:104AE000000754D5A06900282AD001205FF00041BA
:104AF000B1FA81F1DFF83C2842F8210000F0B1FC66
:104B000005005FF08040B0FA80F05FF08040B0FABE
:104B100080F0DFF8180800685FF08041B1FA81F199
:104B200011F01F01C840C00706D400F09AFC401BDA
:104B30000328E6D30320E2E1012000F095FC26E003
:104B400000205FF00041B1FA81F1DFF8E82742F878
:104B5000210000F086FC05005FF08040B0FA80F094
:104B60005FF08040B0FA80F0DFF8C00700685FF0C7
:104B70008041B1FA81F111F01F01C840C00706D58C
:104B800000F06FFC401B0328E6D30320B7E1207838
:104B9000400740F1FE80DFF8A007006850F0805029
:104BA000DFF894170860DFF89007006810F0805075
:104BB00000900098DFF88407006850F48070DFF8F8
:104BC0007C17086000F04DFC0500DFF870070068F6
:104BD000C00506D400F045FC401B6528F5D3032032
:104BE0008DE1DFF85C07006840084000DFF85017EF
:104BF0000860DFF84C07006830F00400DFF8401769
:104C0000086000F02EFC05005FF08040B0FA80F0F4
:104C10005FF08040B0FA80F050F04000C0B2400930
:104C2000C0B2022803D1DFF81807006802E0DFF8FD
:104C3000FC0600685FF08041B1FA81F111F01F01BC
:104C4000C840C00708D500F00CFC401B41F2893178
:104C50008842D9D3032052E1E068012808D1DFF867
:104C6000E006006850F00100DFF8D416086037E075
:104C7000E068002810D1DFF8C8060068400840004E
:104C8000DFF8BC160860DFF8B806006830F00400F2
:104C9000DFF8AC16086023E0E068052810D1DFF8E3
:104CA000A006006850F00400DFF894160860DFF8F2
:104CB0009006006850F00100DFF8841608600FE0ED
:104CC000DFF87C06006840084000DFF874160860D2
:104CD000DFF86C06006830F00400DFF86416086046
:104CE000E06800282AD000F0BCFB05005FF080409F
:104CF000B0FA80F05FF08040B0FA80F050F04000F1
:104D0000C0B24009C0B2022803D1DFF834060068FF
:104D100002E0DFF8180600685FF08041B1FA81F127
:104D200011F01F01C840C00733D400F09AFB401BAC
:104D300041F289318842D9D30320E0E000F091FBB1
:104D400005005FF08040B0FA80F05FF08040B0FA7C
:104D500080F050F04000C0B24009C0B2022803D138
:104D6000DFF8DC05006802E0DFF8C00500685FF0EE
:104D70008041B1FA81F111F01F01C840C00708D588
:104D800000F06FFB401B41F289318842D9D30320E8
:104D9000B5E0E069002800F0B180DFF88805006820
:104DA00010F00C00082800F0A780E069022875D1F7
:104DB00000208021B1FA81F1DFF8742542F821004A
:104DC00000F04FFB05004020B0FA80F050F02000CA
:104DD000C0B24009C0B2012803D1DFF84C05006819
:104DE00005E04020B0FA80F0DFF84005006840217F
:104DF000B1FA81F111F01F01C840C00706D500F0DB
:104E000030FB401B0328DED3032078E0206AB0F596
:104E1000803F09D1DFF80C05006830F40030A1684C
:104E20000843DFF800150860DFF8F804006830F484
:104E30007410216A0843616A0843DFF8E8140860C7
:104E400001208021B1FA81F1DFF8E42442F8210049
:104E500000F007FB05004020B0FA80F050F0200081
:104E6000C0B24009C0B2012803D1DFF8BC04006819
:104E700005E04020B0FA80F0DFF8B004006840217F
:104E8000B1FA81F111F01F01C840C00736D400F01B
:104E9000E8FA401B0328DED3032030E00020802105
:104EA000B1FA81F1DFF8882442F8210000F0D9FA44
:104EB00005004020B0FA80F050F02000C0B2400958
:104EC000C0B2012803D1DFF86004006805E040208B
:104ED000B0FA80F0DFF8540400684021B1FA81F1A3
:104EE00011F01F01C840C00708D500F0BAFA401BF6
:104EF0000328DED3032002E0012000E0002032BDC1
:104F000070B504000D000026DFF83804006810F0CA
:104F10000700A84280F0CE80DFF828040068C008AF
:104F2000C0002843DFF81C140860DFF8180400688C
:104F300010F00700A84201D0012099E120788007F5
:104F400009D5DFF80404006830F0F000A1680843D8
:104F5000DFF8F41308602078C00740F16E816068C4
:104F6000012820D14FF48040B0FA80F050F02000AA
:104F7000C0B24009C0B2012803D1DFF8AC03006819
:104F800006E04FF48040B0FA80F0DFF8A00300683C
:104F90004FF48041B1FA81F111F01F01C840C00700
:104FA00043D4012064E1606802281DD14020B0FA9A
:104FB00080F050F02000C0B24009C0B2012803D1F7
:104FC000DFF86403006805E04020B0FA80F0DFF805
:104FD0005C0300684021B1FA81F111F01F01C84063
:104FE000C00722D4012043E15FF08040B0FA80F096
:104FF00050F02000C0B24009C0B2012803D1DFF850
:105000002803006806E05FF08040B0FA80F0DFF827
:105010001C0300685FF08041B1FA81F111F01F01BB
:10502000C840C00701D4012022E1DFF81C0300685A
:105030008008800061680843DFF80C13086000F006
:1050400010FA06006068012810D1DFF8FC02006841
:1050500010F00C00042800F0F08000F002FA801B31
:1050600041F289318842F0D3032001E160680228CF
:1050700010D1DFF8D402006810F00C00082800F00E
:10508000DC8000F0EEF9801B41F289318842F0D3D8
:105090000320EDE0DFF8B002006810F00C0F00F024
:1050A000CC8000F0DEF9801B41F289318842F1D3D7
:1050B0000320DDE02078800709D5DFF88C02006846
:1050C00030F0F000A1680843DFF87C120860207817
:1050D000C00740F1A380606801281FD14FF48040D1
:1050E000B0FA80F050F02000C0B24009C0B20128F0
:1050F00002D18D48006806E04FF48040B0FA80F09D
:10510000DFF8280200684FF48041B1FA81F111F014
:105110001F01C840C00741D40120A9E060680228EF
:105120001CD14020B0FA80F050F02000C0B24009FD
:10513000C0B2012802D17C48006805E04020B0FAE6
:1051400080F0DFF8E80100684021B1FA81F111F048
:105150001F01C840C00721D4012089E05FF08040D2
:10516000B0FA80F050F02000C0B24009C0B201286F
:1051700002D16D48006806E05FF08040B0FA80F030
:10518000DFF8A80100685FF08041B1FA81F111F009
:105190001F01C840C00701D4012069E0DFF8A80161
:1051A00000688008800061680843DFF89C1108608F
:1051B00000F057F90600606801280FD1DFF8880178
:1051C000006810F00C00042828D000F04AF9801B79
:1051D00041F289318842F1D3032049E06068022816
:1051E0000ED15948006810F00C00082816D000F0C5
:1051F00038F9801B41F289318842F2D3032037E02D
:105200005148006810F00C0F08D000F02AF9801BFC
:1052100041F289318842F3D3032029E049480068EC
:10522000C008C0002843474908604648006810F09D
:105230000700A84201D001201AE02078400707D5D6
:105240004148006830F4E060E16808433E49086086
:105250002078000708D53C48006830F46050216988
:1052600050EAC10038490860002000F0E8F800204A
:1052700070BDF0B585B001A83449102200F006F9E0
:1052800033480088ADF800000021002200230024EC
:105290000020244D2D68290011F00C05042D02D0AA
:1052A000082D03D026E02B4D280025E001AD11F498
:1052B00070164FF47057B7FA87F7FE40755D2C00F3
:1052C000CD0311D5174D2D686E4615F400354FF4FA
:1052D0008047B7FA87F7FD40AD5D2A001D4DB5FB4D
:1052E000F2F565432B0003E01B4D05FB04F52B0095
:1052F000180001E0174D280005B0F0BD80B5FFF79C
:10530000B8FF084909685FF07062B2FA82F2134B85
:1053100011F0F001D140C95CC84011490860104843
:10532000006802BD04100240001002402410024038
:1053300000004242800442421C10024000700040C3
:10534000201002400020024004100240B85D000816
:10535000D05F000800127A0000093D00C85D000817
:105360000000002000B585B02948006850F0080012
:10537000274908602648006810F00800009000984F
:105380002348006850F48070214908602048006874
:1053900010F48070009000981D48006850F48070F0
:1053A0001B4908601A48006810F48070009000984B
:1053B00000220121174800F000FA0022402116487F
:1053C00000F0FBF900228021134800F0F6F90120DB
:1053D0000190012002900220049001A90D4800F0E4
:1053E00081F840200190012002900220049001A940
:1053F000094800F077F880200190012002900220F7
:10540000049001A9044800F06DF805B000BD00004B
:1054100018100240000C01400020014080B51948DE
:10542000006850F0100017490860032000F056FA99
:10543000002000F004F800F08FFA002002BD10B543
:105440000400FFF75BFF4FF47A71B0FBF1F000F05E
:105450005EFA002221005FF0FF3000F045FA0020E4
:1054600010BD09480068704711B581B00024FFF7EE
:10547000F8FF0400FFF7F5FF001B01998842F9D3FC
:1054800013BD000000200240DC8F0020103A07D33B
:1054900030B4B1E83810103AA0E83810F9D230BC76
:1054A000530724BFB1E80810A0E8081044BF51F822
:1054B000043B40F8043BD20724BF31F8022B20F80C
:1054C000022B44BF0B7803707047083A07D3B1E84A
:1054D0000810083A40F8043B40F804CBF7D25307D1
:1054E000E4E711002DE9F8410023002400250026FF
:1054F0005FF0000E5FF0000C6246102A80F05B81C6
:105500005FF0010C1CFA02FC6346D1F800C013EAFC
:105510000C0C64469C4240F04C81D1F804C0BCF1B4
:10552000000F3DD0BCF1010F24D0BCF1020F2BD0F5
:10553000BCF1030F4CD0BCF1110F1FD0BCF1120F06
:1055400028D0DFF89482C4452AD0DFF89082C44581
:1055500026D0DFF88C82C44522D0DFF88882C4458B
:105560001ED0DFF88482C4451AD0DFF88082C4459B
:1055700016D031E0D1F80CC066462DE0D1F80CC051
:105580001CF1040C664627E0D1F80CC01CF1080C95
:10559000664621E0D1F80CC01CF10C0C66461BE0FD
:1055A000D1F808C0BCF1000F03D15FF0040C6646CF
:1055B0000DE0D1F808C0BCF1010F04D15FF0080C78
:1055C0006646036103E05FF0080C6646436103E052
:1055D0005FF0000C6646FFE7FF2C01D8070000E0F3
:1055E000071DFF2C02D85FEA820E03E0B2F1080C1F
:1055F0005FEA8C0ED7F800C05FF00F0818FA0EF8BB
:105600003CEA080C16FA0EF858EA0C0CC7F800C071
:10561000D1F804C05FEACC0C40F1CB80DFF8D0C1F8
:10562000DCF800C05CF0010CDFF8C481C8F800C0F1
:10563000DFF8BCC1DCF800C01CF00108CDF8008028
:10564000DDF800C0DFF8ACC15FEA92085CF828C062
:1056500065465FF00F0C12F003085FFA88F85FEA06
:1056600088081CFA08FC35EA0C05DFF88CC1604597
:1056700002D15FF0000C24E0DFF880C1604502D168
:105680005FF0010C1DE0DFF878C1604502D15FF0EA
:10569000020C16E0DFF86CC1604502D15FF0030C2C
:1056A0000FE0DFF864C1604502D15FF0040C08E050
:1056B000DFF858C1604502D15FF0050C01E05FF0F2
:1056C000060C12F003085FFA88F85FEA88081CFAF3
:1056D00008FC5CEA0505DFF81CC15FEA92084CF89B
:1056E0002850D1F804C05FEACC3C0AD5DFF820C1CD
:1056F000DCF800C054EA0C0CDFF81481C8F800C0D4
:1057000009E0DFF80CC1DCF800C03CEA040CDFF86B
:105710000081C8F800C0D1F804C05FEA8C3C0AD50B
:10572000DFF8F0C0DCF800C054EA0C0CDFF8E480CD
:10573000C8F800C009E0DFF8DCC0DCF800C03CEAD3
:10574000040CDFF8D080C8F800C0D1F804C05FEACC
:10575000CC2C0AD5DFF8C0C0DCF800C054EA0C0C31
:10576000DFF8B480C8F800C009E0DFF8ACC0DCF8AE
:1057700000C03CEA040CDFF8A080C8F800C0D1F8F3
:1057800004C05FEA8C2C0AD5DFF890C0DCF800C0BA
:1057900054EA0C0CDFF88480C8F800C009E0DFF898
:1057A0007CC0DCF800C03CEA040CDFF87080C8F86C
:1057B00000C0521CA1E6BDE8F18152B2002A02D01D
:1057C00089B2016102E089B20B0403617047C268CB
:1057D00089B24A40C26070470000111000001210E8
:1057E00000002110000022100000311000003210D3
:1057F000181002400800014000080140000C014060
:10580000001001400014014000180140001C01403C
:105810000004014004040140080401400C0401405C
:1058200010F00702454B1B6819004FF6FF031940A3
:10583000434B53EA02231943404B196070473F48DA
:105840000068C0F30220704710B440B2002808D5A9
:105850000A013C4B40B210F00F04E31803F8042C8B
:1058600003E00A01384B40B2C25410BC704770B418
:10587000030013F00704D4F10706052E01D304201A
:1058800001E0D4F10700261D072E01D2002500E01B
:10589000E51E012616FA00F0401E0840A84001212E
:1058A000A940491E1140084370BC704710B5040060
:1058B000601EB0F1807F01D301200EE0601E2349FD
:1058C00008600F215FF0FF30FFF7BEFF0020204986
:1058D000086007201F490860002010BD10B50400B3
:1058E0002000FFF79DFF10BDF8B504000D00160065
:1058F0000027FFF7A4FF0700320029003800FFF758
:10590000B6FF0100200040B2FFF79EFFF1BD10B5C9
:1059100004002000FFF7CAFF10BD042806D10D497E
:10592000096851F004010B4A116005E00949096852
:1059300031F00401074A1160704700000CED00E0EF
:105940000000FA0518ED00E000E400E014E000E0DB
:1059500018E000E010E000E080B51748006850F063
:105960000100154908601448006810F0010000901B
:1059700000980320FFF7B2FF002200217FF00B0008
:10598000FFF7B2FF002200217FF00A00FFF7ACFF13
:10599000002200217FF00900FFF7A6FF002200216E
:1059A0007FF00300FFF7A0FF002200215FF0FF302F
:1059B000FFF79AFF01BD00BF1810024000B58FB07D
:1059C000012005905FF480300690002007900220AF
:1059D0000C905FF480300D905FF4E0100E9005A8FD
:1059E000FEF7A6FE0F2000900220019000200290FA
:1059F0004FF4806003900020049002216846FFF776
:105A00007FFAFFF77BFC4FF47A71B0FBF1F0FFF700
:105A10007EFF0420FFF781FF002200215FF0FF30AE
:105A2000FFF762FF0FB000BD00B58BB0FFF7F6FCCB
:105A3000FFF7C4FF09A8FBF74BFF09A80890032054
:105A400007900020069000200590002004904FF45D
:105A500000700390332002901948019002200090BA
:105A600000230FF2190217491748FAF761FB09A83A
:105A7000FCF715F900200BB000BD000010B584B094
:105A80000400FDF758FAFBF737FEFDF757FC02A8B4
:105A9000FEF732F8FBF74EFE00F01AF800F019F8A6
:105AA00001210A48FFF793FE02A801900020009010
:105AB0004FF4FA73002200210020FDF7F7FAEFE718
:105AC000046C0020A85D000804890020000C01403F
:105AD000704770471348006850F001001149086092
