:020000040800F2
:10000000188C0020450100081F490008653B0008C6
:100010001D49000819030008CB4B00080000000030
:100020000000000000000000000000005701000870
:100030001B030008000000005B01000841490008A4
:100040005F0100085F0100085F0100085F01000810
:100050005F0100085F0100085F0100085F01000800
:100060005F0100085F0100085F0100085F010008F0
:100070005F0100085F0100085F0100085F010008E0
:100080005F0100085F0100085F0100085F010008D0
:100090005F0100085F0100085F0100085F010008C0
:1000A0005F0100085F0100085F0100085F010008B0
:1000B0005F0100085F0100085F0100085F010008A0
:1000C0005F0100085F0100085F0100085F01000890
:1000D0005F0100085F0100085F0100085F01000880
:1000E0005F0100085F0100085F0100085F01000870
:1000F0005F0100085F0100085F0100085F01000860
:100100005F0100085F0100085F0100085F0100084F
:100110005F0100085F0100085F0100085F0100083F
:100120005F0100085F0100085F0100085F0100082F
:10013000DFF80CD000F08CF8004800470D9800085C
:10014000188C00200648804706480047FEE7FEE777
:10015000FEE7FEE7FEE7FEE7FEE7FEE7FEE7FEE777
:10016000B149000831010008202A04DB203A21FAB5
:1001700002F00021704721FA02F3D040C2F12002C0
:10018000914008431946704710B5431A934209D26B
:100190008318881803E010F8011D03F8011D521E92
:1001A000F9D210BD40EA01039B0703D009E008C95A
:1001B000121F08C0042AFAD203E011F8013B00F82C
:1001C000013B521EF9D210BDD2B201E000F8012B62
:1001D000491EFBD270470022F6E710B513460A46C7
:1001E00004461946FFF7F0FF204610BD2DE9F05FE9
:1001F0000546002092469B46884606468146402496
:100200001BE02846414647462246FFF7ADFF5346CE
:100210005A46C01A914110D311461846224600F0A2
:1002200029F82D1A67EB01084F46224601200021CC
:1002300000F020F817EB00094E41201EA4F1010444
:10024000DFDC484631462A464346BDE8F09F0000C1
:10025000064C074D06E0E06840F0010394E8070013
:1002600098471034AC42F6D3FFF766FFE0B50008BC
:1002700000B60008202A04DB203A00FA02F1002030
:1002800070479140C2F1200320FA03F319439040D4
:10029000704770B58C1810F8015B15F0070301D199
:1002A00010F8013B2A1106D110F8012B03E010F8D9
:1002B000016B01F8016B5B1EF9D12B0705D40023FC
:1002C000521E0DD401F8013BFAE710F8013BCB1A9E
:1002D000921C03E013F8015B01F8015B521EF9D593
:1002E000A142D8D3002070BD10B504F0E3FA03F0AA
:1002F00089FF084C20602068A0F5A901663904D068
:100300002068A0F50041663901D103F02CFC20687B
:1003100010BD000008000020FEE7FEE770B5B3F551
:10032000804F05D06FF0704140F82210002070BD62
:100330008C690B68F025234395FAA5F54C68B5FA4E
:1003400085F5AC404FF47F4696FAA6F68D68B6FA6E
:1003500086F6B5402C4323434FF47024C96894FAC1
:10036000A4F4B4FA84F4A1400B4350F82210034CD7
:1003700021400B4340F82230D8E700000000F0CFC6
:1003800030B50A6850F8223023F0010340F82230DB
:100390008A68214C082A1ED04B681343D1E90325F3
:1003A0002A4313434A6913438A691343CA691343AF
:1003B0000A6A13434A6A13438A6A1343CA6A134395
:1003C0000A6B0968134350F821202240134340F878
:1003D0002130002030BDD1E903354A682B4342F07B
:1003E00008021A434B691A438B691A43CB691A43B3
:1003F0000B6A1A434B6A1A438B6A1A43CB6A1A4335
:100400000B6B09681A4350F8213023401A4342F01D
:10041000400240F82120DCE78100F7FF70B5F025AD
:10042000D1E9003495FAA5F5B5FA85F5AC4023433A
:100430004FF47F4595FAA5F58C68B5FA85F5AC4083
:100440004FF4702696FAA6F6CD68B6FA86F6B54051
:100450002C4323430C694FF4700595FAA5F5641EEF
:10046000B5FA85F5AC4023434C694FF0706595FAB9
:10047000A5F5A41EB5FA85F5AC40896923430B4365
:10048000521C50F8221001F040410B4340F822303A
:10049000002070BD10B5002001F076FB6FF07F40AA
:1004A00001F074FB012001F0A9FB002001F0AEFB7C
:1004B000002001F0B5FB002001F070FB044800684B
:1004C00001F06EFBBDE81040002001F073BB00009E
:1004D0002800002070B50C46054600F0FFF8A8681B
:1004E0002168C16261680163A1684163490707D55A
:1004F000D0E90021C0E90012D0E90221C0E90212CE
:10050000A18981842169002903D001DC4FF0000119
:10051000016270BD2DE9F0411E461746884605462A
:1005200000F0DCF8AC686822414604F58670FFF7FD
:100530002BFE2846B8472846B04728698068804780
:10054000A062BDE8F081000010B5044600F0C6F8D6
:10055000A0681149144AC0F8AC101049C0F8A8109E
:100560000F49C0F8B0100F49C0F8B8100021C0F80A
:10057000BC101368C0F8B4300C4BC0E9323151687C
:10058000C0F8C41030F8261F21F0030120F82A1B00
:100590000749416410BD000081880008C98900082E
:1005A000498800086F8400088C0000203F850008FF
:1005B000F187000810B5044600F090F8A4681048D0
:1005C0001021C4F8E4000F48C4F8E8000E48C4F84D
:1005D000EC000E48C4F8F0000D48C4F8A0000D4827
:1005E000C4F8A400D4F8C400C4F8FC00D4F89420E3
:1005F000204690471020A0630748606410BD0000AB
:10060000B16C0008FD7500081D0600084D070008C4
:1006100029840008DD8B0008E8B30008F8B5846879
:1006200015460F4694F8260080074CD5D4F80031C3
:10063000204698470646D4F804312A4639462046D3
:100640009847D4F8983005461BB100220121204676
:1006500098472069B04201DD012000E00020A16937
:10066000B14201DA012100E0002108436169A94299
:1006700001DD012100E000210843E169A94201DA1E
:10068000012100E0002108430AD060680022401EDA
:1006900000902368D4F8A870114620465B1EB84726
:1006A000D4F8AC302A46314620469847D4F8A010FA
:1006B00020468847D4F8983005466BB101220021C6
:1006C0002046984708E0D4F8AC3020469847D4F844
:1006D000A0102046884705462846F8BD70B5044658
:1006E0008068002812D14FF4BA75284600F024FA29
:1006F0002A460021A06002F06DF9A0680221C184A1
:100700000121046401620249C0F8081170BD0000B3
:100710001507000810B590B0044620220A49684623
:10072000FFF732FD08492022203108A8FFF72CFDF1
:10073000606B5DF82010C4F8001108A951F8200082
:10074000C4F8040110B010BD649900082DE9F84305
:1007500084689846154694F826000F46800740D5D1
:10076000D4F80031204698470646D4F804312A468A
:1007700039462046984705462069B04201DD0120F0
:1007800000E00020A169B14201DA012100E000216E
:1007900008436169A94201DD012100E0002108430D
:1007A000E169A94201DA012100E0002108430AD0F1
:1007B00060680022401E00902368D4F8A87011469B
:1007C00020465B1EB847D4F8AC302A463146204656
:1007D0009847D4F8A42001B041462046BDE8F04334
:1007E0001047D4F8AC30F2E72DE9F04FDFF828B12C
:1007F00091B04FF0FF35DBF80030B3F922100691CD
:10080000DE69B3F924A0F469A189814206D8E2899E
:10081000824203D3471AD4F8008012E0D4E9018160
:10082000002970D00A8882426DD84D8885426AD3EB
:10083000801A82B2486800EB8200B0F90070B0F90B
:100840000250781C5FD0307EA27C014600FB02F98A
:10085000207CCDE90710B3F92A60304603F022FE70
:10086000C0B20E90DBF8001007FB0980A37C8A6BF6
:100870000127CDE90402CDE90273C869089AC17E57
:10088000807ECDE90001DDE90603514603F016FA4A
:10089000681C18D046F0020003F004FEDBF80000EC
:1008A000A37C05FB0981826BCDE90273CDE90412BB
:1008B000C069089AC17E807ECDE90001DDE90603AA
:1008C000514603F0FBF9DBF800005D46C069417E4C
:1008D000007E814214D9022E12D086F0040003F06B
:1008E000E1FD2868C069027EC37E857E02FB03A10C
:1008F000437E089A0698534402FB050203F040FB2E
:100900000E9803F0CFFDDBF80000627C418C1144AF
:10091000418411B0BDE8F08F2C000020044800682D
:10092000C069C06909B1027C0A60407C7047000060
:100930002C000020022008807047C06982898A420A
:1009400002D8C2898A4210D2806880B102888A4265
:100950000DD843888B420AD3406800EB8100A0EB9E
:100960008200B0F90000002801DB01207047002060
:10097000704700002DE9F0432F4C034687B02068F4
:100980001946B0F92A80C069C06900F082F80028D1
:100990004ED041680088181A01EBC0054046AE7879
:1009A00003F080FD814620686A680123816BCDE9F0
:1009B0000236CDE90421C169CB7E8A7ECDE90023D0
:1009C0000B7EB0F924102A78B0F9220003F076F9F2
:1009D0002068C069477E067EB7421DD9C07E474366
:1009E0004643B8F1020F17D000F0AAFB804600F092
:1009F0008FFB01F0CBF821682A78CB69B1F922008E
:100A0000B1F92410DB7E02FB0302CB19314403F061
:100A1000B7FA404601F0BAF8484603F043FD2068B3
:100A20006A78C369B0F922109B7E02FB03114184EE
:100A300007B0BDE8F08300002C00002030B50E4C5C
:100A400005460B4620682946C069C06900F021F8B8
:100A5000002810D04168008824682A1A0120E4691F
:100A600000EBC200085CA47E6043002B03D011F8A9
:100A700032106143196030BD2C0000200120088035
:100A8000704700B5C06900F004F8002800D00120CC
:100A900000BD06E002888A4202D842888A4202D219
:100AA00080680028F6D17047002801D005F0FAB818
:100AB000704738B50546FFF7F7FF040009D000F08E
:100AC000B3F82A460021009001F084FF684600F048
:100AD000CDF8204638BD0000024A106021F0030026
:100AE00050607047E07A002010B5002814D004460A
:100AF0000A48406B10F8341000290DD002290BD29F
:100B0000042101EBC4014158486805F083F82046F0
:100B1000BDE8104007F074BC10BD0000207A002032
:100B2000002805D0034AD16B016001B14860D06351
:100B300070470000207A00202DE9F041044607F0BC
:100B400031FA2848E41C24F00305016C2D1DA9424C
:100B500000D90D46C46B13E054F8042CAA420ED100
:100B600084B1216809B162684A60616809B122688C
:100B70000A60C26BA24231D12168C1632EE02468B1
:100B8000002CE9D18046816BC0680F1857F8040C1F
:100B90003E1A306838B1002007F03EFD57F8040CCB
:100BA0003E1A3068D0B97068A84217DB3044441B45
:100BB0003046241D07F0E8FCD8F80C10491BC8F893
:100BC0000C10D8F814102944C8F814107068401B91
:100BD00002D0314605F01EF844F8045C2046BDE81A
:100BE000F0810000207A002010B5002407F0DAF927
:100BF0000C490F2001EBC002526C1AB101EBC0008E
:100C0000406C08E0401EF5D508E04168A14200D9DB
:100C10000C46806810B180680028F6D1A4F10C0061
:100C200010BD0000207A00200549CA69521CCA6123
:100C3000496B01EBC0010A78521C0A7000F02EB813
:100C4000207A002010B5FFF7CFFF64220649B0F5E7
:100C5000800F04D990FBF2F0096A484310BD096A7D
:100C60004143B1FBF2F010BD207A00200A4902682E
:100C70004B6B52F8082C03EBC2021378022B03D300
:100C8000CB690BB15B1ECB611178491E117000213D
:100C90000160084670470000207A0020002806D036
:100CA0000349042202EBC000496B08580830704722
:100CB000207A0020F0B52D271C68B0F1004F08D035
:100CC000002600280DDA651C1D60277040420124B3
:100CD00008E0651C01261D606FF000402770491E6A
:100CE00001E00024091BC9B22AB3491EC9B222E09F
:100CF0000C46491EC9B2944205D1124C27781C6893
:100D0000651C1D602770104C54F8215090FBF5F4C1
:100D1000E4B20A2C11D804FB150011B90EB1641C01
:100D2000E4B20A2C02D10124491CC9B21D686F1C0F
:100D300030341F602C700029DAD119680020087047
:100D4000F0BD00002000002064B3000810B5C2B25E
:100D5000CBB2D21A00D5524293B25B43C0F3072202
:100D6000C1F30724121B00D55242000C92B2A0EB33
:100D7000114002FB023200B2002801DA404200B208
:100D800080B200FB002010BD10B50021084600F025
:100D900011FA43F6FF725042BDE810401346014677
:100DA000AFF300802DE9FC4107461C4615460E4670
:100DB000042003F077FB80461148C068C16C006DC9
:100DC0000F4406440D440444ADF80070ADF80450DF
:100DD000ADF80260ADF80640684604F0BDFB07E0E0
:100DE00023462A463146384603F0CAF804F076FB1B
:100DF0000028F5D1404603F055FBBDE8FC8100001A
:100E0000200000202DE9F0411C4616460D460746FD
:100E1000022B02DB0020BDE8F0811C20FFF78CFED6
:100E20000028F8D00DB105610AE0094A52F82410F3
:100E300009B905E011460A68002AFBD10969016178
:100E400084618682002101604160C0E90217E2E707
:100E50004400002070B51D46FFF7D4FF040009D000
:100E600000F00EF8E068006820B90348006800EB65
:100E700085008465204670BD2C000020FFF750BE21
:100E800070B590B38269022A30DA1E4C54F82210F1
:100E900019B944F8220032E019464B68002BFBD107
:100EA00006E0CB68C5681B682D68AB4203DD0968A6
:100EB0000029F6D11AE0C1B1CB68C6681B68366854
:100EC000B3420CD1838A012B05D008E01946DB68B8
:100ED0001B68AB4203DB0B68002BF7D129B14B68D1
:100EE00033B118604A68426004E0FFE7012070BD3A
:100EF00044F822004860884200D1002101600020AF
:100F000070BD0000440000200A4A816952F8213077
:100F1000834202D1036842F82130416809B1026876
:100F20000A60016809B142684A60002101604160BD
:100F30007047000044000020022801DB00207047B9
:100F4000054951F8200004E0C16809680029F6D07D
:100F500000680028F8D170474400002070B50446AE
:100F600001F006F8051908E000F0A6F8052C01DDEF
:100F7000052000E0204600F0EFFF00F0F9FF2C1AFA
:100F8000002CF1DC70BD7FB51E4614460D46CDF831
:100F90000CD003AB00223146FFF78CFE22462946D7
:100FA000684600F081F87FBD2DE9FC4706005BD064
:100FB00000F0CEF83B4C81462068B0F9228000F06A
:100FC000D1F8216807468A8CD01B888441E000BF95
:100FD00047F6FF71304601F0AFFB824601463046CE
:100FE00001F080FB2168054691F82C0000F0030019
:100FF00001283FD0022839D000204A8C101A48849A
:10100000ADF800006A1E1044ADF80400888CADF8FD
:101010000200A9F101010844ADF806006A465146F4
:10102000304601F02FF92168BDF80200888451464E
:10103000304600F077FE064430780A281CD00D2890
:101040001AD0BDF80000216828444884307818B1CF
:10105000761C30780028BBD12068818C394481848B
:10106000818D21F003018185BDE8FC8705EBD570FA
:101070004010C2E72846C0E7206890F82C1001F025
:10108000030101290BD0022909D0018C4184317858
:101090000A29DBD1828C02EB09018184D6E7A0F812
:1010A0002280F4E72C000020024B1B6859849A84AC
:1010B000FFF77ABF2C00002010B5002400E00124C7
:1010C00000F004F80028FAD1204610BD094810B5F8
:1010D0000068002410B1804700B1012403F014FF20
:1010E00000B101240448006810B1804700B1012418
:1010F000204610BD500000204C000020034951F84C
:101100002000C1688A6A08211047000044000020BE
:1011100010B502F065FFBDE8104002F0F5BF000019
:1011200002490968C9694A68002110472C0000205B
:10113000024A1268D2695268104700002C00002051
:1011400010B502F055FFBDE8104002F0DDBF000011
:1011500002480068C069407E704700002C000020F3
:1011600001F006BB0A490020096891F82C2002F022
:101170000C02042A07D0082A01D00C2A02D1C8691F
:10118000007E40087047C869007E401E704700001E
:101190002C000020024951F82000006900687047C7
:1011A00044000020024951F820000069406870475F
:1011B0004400002070B50D4606F05EFE0446284649
:1011C00006F062FE204370BD2DE9F0411948016828
:1011D00021F001010160184801258560174901606F
:1011E00000681749884200D0FEE700F07DFF154EE9
:1011F0002E20307000F0C2FE134806F09BFE08F06F
:10120000B3FA074602F03AFF10B102F04BFF38B9CB
:1012100002F051FF044602F03AFF214603F03CF988
:101220000021084600F0CEFC03F0D0FE7570384671
:10123000BDE8F081002000E000300240C2A507F4C4
:10124000CDB5E8B520000020EC7A00201CB520B90F
:101250000C480068006E002812D0FFF7E5FC0090F3
:1012600044696846FFF702FD002C09D02046FFF7CD
:10127000DBFC019081688968884701A8FFF7F6FCCC
:101280001CBD00002C00002001490A4600F002B8F5
:1012900001F0FFFF2DE9F04387B015460C465FEAE9
:1012A000000842D0002000F079FC81462048006808
:1012B000066E4046FFF7B8FC00900068806900F0B9
:1012C0004BFC074640F6FF70C44204D10098B0F9C9
:1012D0000440B0F906500098611E0289ADF8044040
:1012E0001144ADF808104189681E0844ADF8065055
:1012F000ADF80A0003F06AFC6846FFF7B7FC01A8E6
:1013000004F02AF906E02A462146404600F04EFB4A
:1013100004F0E4F80028F6D1384600F01DFC304611
:1013200000F066F9484600F039FC07B0BDE8F083EC
:101330002C0000202DE9FE4F83461A488A461A49A0
:1013400000680C9E9846407C9146002751F820404A
:10135000E1680968042903D02468002CF8D100E072
:101360001CB9FFF7E9FD041E19D0E0680121C26A2B
:1013700020469047050011D02469A0688047401C92
:1013800002D10A4C46F001060096CDE901544346CD
:101390004A465146584600F0AFF907463846BDE880
:1013A000FE8F00002C000020440000203CB5000807
:1013B00038B5040018D00D480068006EA04201D175
:1013C00000F0C0FB2046FFF72FFC0090406908B1F9
:1013D00000F09FFD00980068FFF750FD6846FFF79A
:1013E00045FC2046FFF780FB38BD00002C000020A4
:1013F0002DE9FF4FDFF83891074683B0D9F8000098
:101400009A468B46447C4B4800570128204606DD0F
:1014100002F03AFE0546204602F04AFE05E002F0E0
:101420001BFE0546204602F01DFE04461FB302A91E
:1014300001A8FFF795FEB7F90000002800DA0020A8
:10144000B7F902608046002E00DA002601984119A3
:10145000B7F90400491E06F06AFE05460298011914
:10146000B7F90600491E06F062FEA5EB0802841BD0
:10147000521C641C03E04FF0000846462A46BAF1AD
:10148000000F01D1C4F1000A002A4FDD002C4DDD10
:1014900010980090534631464046FFF74BFF5FEAF5
:1014A000000A10D000F06AF80746A04206D0D9F82A
:1014B0000000806C10B1322104F024FB504600F093
:1014C00097F8002521E0594605988847012007B084
:1014D000BDE8F08F611BB94202DA504600F072F8A5
:1014E0003DB172194146504600F0A4F85046FFF74E
:1014F000ADFE5946059888470F48016809B100209C
:1015000088475046FFF7C0FE3D44A542E2DB504607
:10151000FFF74EFF002000F06BF8A74206D0D9F885
:101520000000806C10B1332104F0ECFA0020CEE70B
:101530002C000020640000204C01002038B500245D
:1015400060B1FFF771FB0090006800698068804718
:1015500003F058F904466846FFF788FB204638BD7B
:1015600038B5002808D0FFF75FFB00F118040090A1
:101570006846FFF77BFB204638BD000038B50024E5
:1015800018B907480068006E38B1FFF74DFB0090AE
:10159000B0F90A406846FFF769FB204638BD0000F5
:1015A0002C00002070B505460024284604F07AFC83
:1015B000641C18B1BDE8704000F068B8052CF4DB7D
:1015C00070BD000038B50C4620B908480068006EB0
:1015D00000280AD0FFF728FB0090B0F90A10A142BA
:1015E00000DD44816846FFF741FB38BD2C00002038
:1015F000F8B50F4E05003068046E16D00CB100F03F
:10160000A1FA03F0CFFB2846FFF70EFB00903168EC
:101610000D660068FFF734FC6846FFF727FB02F011
:1016200089FF02F019FF2046F8BD00F08BFAFAE7B7
:101630002C0000207CB515460C4620B912480068E5
:10164000006E00281FD0FFF7EFFA2DB20090C58082
:1016500024B2848002F000FF0098406980B1FFF757
:10166000E3FA009A0190B2F908108180B2F90A20D9
:10167000C28011B10AB10480458001A8FFF7F6FAD3
:101680006846FFF7F3FA7CBD2C00002001490A46AA
:1016900000F002B801F0FFFF7FB515460C460600CA
:1016A00028D0FFF7C1FA40F6FF710190CC4203D178
:1016B000B0F90440B0F906500289611E1144ADF83A
:1016C0000840ADF80C104189681E0844ADF80E00C2
:1016D000ADF80A5001A8FFF7C9FA02A803F03CFFD1
:1016E00006E02A462146304600F048F903F0F6FEAF
:1016F0000028F6D17FBD00002DE9FF4FDFF8E8B0EC
:1017000083B01C46DBF80010DDE9106092464FF014
:1017100000084B7C42461299FFF774FB050060D02D
:1017200028698068804703F06DF881460AFB09F15B
:10173000C91DCF08FFF786FAF10705D1C11700EBE5
:101740009170801000EB4000002C09DC1FB11838AC
:10175000B0FBF7F000E000206442A04200DC044649
:10176000F00707D10090DDE903012346524600F05F
:1017700059FB8046002C03DC2846FFF77FFB30E056
:1017800004FB07F01830F10702D0FFF78DF901E0F4
:10179000FFF78FF906001CD0FFF746FA01900560AD
:1017A000039981800499C180A0F808A04481C0F801
:1017B0001480C0E9037901A8FFF758FA1298AE60C7
:1017C0002861DBF80000407CA861304607B0BDE826
:1017D000F08F2846FFF752FBB8F1000001D0FFF769
:1017E00083F90020F2E700002C0000202DE9F74FDC
:1017F0008EB0144689460E98FFF716FA0990B0F994
:1018000008B0B0F90A600068006940680C9009A847
:10181000FFF72CFA564D574F2868407C57F82000A8
:10182000C1688A6A082190470790182801D32020B0
:1018300007902868407C57F820000069069003C88C
:101840000B904D48814201D0012000E000200A9019
:10185000002000F094FB00287DD1286809EB0B01E3
:10186000B0F90C20891A491E002902DDABEB0105F5
:1018700000E05D46B0F90810494505DDA1EB09011E
:1018800089446D1A089101E000210891002D6BDD5B
:10189000B0F90E20A119891A491E002902DDA6EB14
:1018A000010800E0B046B0F90A00A04204DD061BC2
:1018B0003444A8EB060800E00026B8F1000F53DD21
:1018C000089801900DA95F46DDF830A00E980091B0
:1018D000FFF746FE774300EB870101982B4601EBAB
:1018E000800200994846CDE900A1214600F022FD82
:1018F0000090002838D00A98E8B1DDE90632294680
:10190000009800F0EBFBB0B90698009FDA46D0F8DB
:1019100010C0BCF1000F05D004235A4639463846A2
:10192000E04708E00B993868884701C7AAF1010031
:101930005FEA000AF6D100990020079ACDE9030179
:10194000059001200090CDE9010221460346641C68
:101950002A46484600E007E002F0B0F9A8F101008D
:10196000761C5FEA0008ABD111B0BDE8F08F000033
:101970002C0000204400002053410008F8B5154613
:101980000E460746FFF750F9009000681621C06820
:10199000426A0020904704466846FFF767F9002C2A
:1019A00003D02A4631463846A047F8BDF8B516465A
:1019B0000F46050012D0FFF737F9009044696846DA
:1019C000FFF754F92846FFF7B9FD0346082800DD64
:1019D0002CB132463946284607F016F9F8BD324692
:1019E0003946284607F0B0FAF8BD10B5002821D0D6
:1019F00009B30AB3B1F90040B2F900309C4200DAF1
:101A000023460380B1F90240B2F902309C4200DA69
:101A100023464380B1F90440B2F904309C4200DD12
:101A200023468380B1F90610B2F90620914200DC0A
:101A30001146C18010BD11460A68026049684160C4
:101A400010BD00280BD003880B4403808388194401
:101A50008180418811444180C1881144C180704710
:101A600070B5094C0020D4E900218A420AD0D2E99D
:101A70000056104606F01EFA20603146284603F054
:101A800087FB012070BD0000300100202DE9FC41E2
:101A9000154DDDE908742D68B5F90860864200DD52
:101AA0003046B5F90C60964200DA3246824219DBC4
:101AB000B5F90A608E4200DD3146B5F90E509D42FF
:101AC00000DA2B468B420DDB00E02C46E5682D68E2
:101AD00025B1042D02D02568002DF6D1CDE9007482
:101AE00002F0A4FBBDE8FC812C000020B0F902202C
:101AF000B1F906309A4213DCB1F90220B0F9063090
:101B00009A420DDCB0F90020B1F904309A4207DCAA
:101B1000B1F90010B0F90400814201DC01207047E6
:101B2000002070470146024870220068FEF72CBB77
:101B30002C000020024970220968FEF725BB000036
:101B40002C00002010B502F03DFC02F0F3FCBDE8D3
:101B5000104003F03BB8000070B5094D0446022C5C
:101B60002868467C09D22046FFF7E6F928B12868A4
:101B70004474FFF7E7FF03480460304670BD00007F
:101B80002C000020BC00002002F03CBC02F072BC23
:101B900001498860704700002000002002F082BCEC
:101BA00003490968CA6900B1C8611046704700005E
:101BB0002C000020024909688A7E8876104670470A
:101BC0002C000020094A30B41080094A1180094ACB
:101BD0001268537C084A52F82330DA68146A0A46BD
:101BE000A446014630BC1846604700006C00002047
:101BF0006E0000202C0000204400002002490968EB
:101C00000A7E0876104670472C00002003490968B8
:101C1000B1F92C2088851046704700002C00002068
:101C200003490968B1F92A20488510467047000029
:101C30002C00002002480068002800D000477047B0
:101C40004001002002498A6802B98860FFF7F2BFAC
:101C50003001002010B5040009D006F0AFFC20468A
:101C600006F094FF2046BDE81040FEF73DBF10BDD2
:101C700038B50C4660B1FEF7D7FF0090808920424E
:101C800001D0012400E000246846FEF7EFFF00E0E9
:101C90000124204638BD000038B5054600202860E4
:101CA0000648046844B12046FEF7BEFF0090006974
:101CB00028606846FEF7DAFF204638BD8001002024
:101CC00038B504004FF000000D46086011D02046E2
:101CD000FEF7AAFF0090846844B16846FEF7C6FF8D
:101CE0002046FEF7A1FF0090006928606846FEF7D5
:101CF000BDFF204638BD00002DE9F041084E0446E6
:101D0000056830680168284688470746306841689A
:101D100028468847284420603846BDE8F081000006
:101D2000300000202DE9F0410C4606460025064F04
:101D300005E0386841683046884706440544641E1B
:101D4000F7D22846BDE8F081300000202DE9F041AF
:101D50001E46069C1746884605463A46A8687F1CDC
:101D60003346D0F804C041462846E047641EF4D10B
:101D7000BDE8F08170B5B0F90040091BB0F904402E
:101D80008C422CDD00F11404B0F902500069521BA2
:101D900002FB0040CA1800EBE104521ED010B0EB69
:101DA000E10501F007034FF0FF0102F0070221FAFD
:101DB00003F0C2F1070201FA02F1CEB221780FD08E
:101DC00001436D1E04F8011B002D05DDFF2229468D
:101DD0002046FEF7F9F92C4420783043207070BD7E
:101DE00030400143217070BD10B5B0F90030B0F93A
:101DF0000240C91A00F114030069121B02FB0030F3
:101E000000EBE10001F0070302788021D9400A438A
:101E1000027010BDB0F90610026951431430FEF78C
:101E2000DAB900002DE9F843804602F10F000011F5
:101E3000470003FB07F01C46154689461430FEF7A1
:101E400038FE060013D0FEF7EFFE0090A0F80080E9
:101E5000A0F802908580C4800649816001218181BB
:101E600007616846FEF702FF3046BDE8F8830020B0
:101E7000FBE70000C8B5000870B5B0F90660B0F91E
:101E800004400B6800F1140596421BDD0069A34273
:101E900002FB005000EBE30214DA641EE010A0EB3A
:101EA000E30512F8010B03F00704A040C4B206E0FA
:101EB00045B1083312F8014B23F007036D1E002CC7
:101EC000F6D004E0002070BD6006040E5B1C200606
:101ED000FAD5FF2C07D0184602E06406240E401CF9
:101EE0006606FAD400E0D81DC443640705D006E0B6
:101EF00012F8014BFF2C09D108306D1EF8D5C01A1D
:101F0000401C0B6070BD6206140E401C2206FAD401
:101F1000F5E738B50546FEF787FE00908189491E32
:101F20000CB284816846FEF7A1FE002C02D128463F
:101F3000FEF7DAFD38BD000010B54FF4F04104485B
:101F4000FEF7CAFDBDE810400248FFF721BE0000C1
:101F50002002002098A0000803490A6810440A687B
:101F6000821A002AFBDC7047140000207047000032
:101F700001480068704700001400002070470EB54B
:101F800008B102AA00E00022002301A9684600F07F
:101F90005BFB0EBD074910B50C7818B10120087025
:101FA000801E03E0002008706FF07F4001F070FE9B
:101FB000204610BD6600002010B5082A0EDC03463E
:101FC000012A18D0022A56D0042A76D010F8042B01
:101FD00003F8012B491EF9D1012010BD102A08DC9D
:101FE0004FEA000230F8043B22F8023B491EF9D1C7
:101FF000F2E7002010BD10F8042BD207120E491E84
:1020000034D010F8044B491E04F0010442EA841253
:102010002CD010F8044B491E04F0010442EA44128B
:1020200024D010F8044B491E04F0010442EA0412C3
:102030001CD010F8044B491E04F0010442EAC4020B
:1020400014D010F8044B491E04F0010442EA840243
:102050000CD010F8044B491E04F0010442EA44027B
:1020600004D010F8044B04F00104224303F8012BC0
:102070000029C0D1B0E710F8042B9207120E491EB8
:1020800015D010F8044B491E04F0030442EA041270
:102090000DD010F8044B491E04F0030442EA8402F8
:1020A00005D010F8044B04F003042243491E03F842
:1020B000012B0029DFD18FE7FFE710F8042B12076F
:1020C000120E491E05D010F8044B04F00F042243F1
:1020D000491E03F8012B0029EFD17DE738B5002414
:1020E000009400F01BF838BD0A4810B5816900293A
:1020F0000ED101218161FFF71FFF02F02DFA054982
:1021000005481C310860BDE81040084600F05ABC84
:1021100010BD000020000020D98100082DE9F04109
:102120000D460699044601B901461F68082A09DCD4
:102130000E46012A1AD0022A5BD0042A7DD0082A32
:1021400013D18DE0102A07DCD3F810C00E46BCF185
:10215000000F04D0022389E00020BDE8F08101CC0B
:10216000B84726F8020B6D1EF9D189E001CCB847BB
:10217000C0074FEA10686D1E36D001CCB84748EA58
:10218000801000F0FF086D1E2ED001CCB84748EA41
:10219000401000F0FF086D1E26D001CCB84748EA79
:1021A000001000F0FF086D1E1ED001CCB84748EAB1
:1021B000C00000F0FF086D1E16D001CCB84748EAF9
:1021C000800000F0FF086D1E0ED001CCB84748EA31
:1021D000400000F0FF086D1E06D001CCB84740EA71
:1021E000080000F0FF086D1E06F8018B002DBDD120
:1021F00046E001CCB84780074FEA10686D1E16D044
:1022000001CCB84748EA001000F0FF086D1E0ED060
:1022100001CCB84748EA800000F0FF086D1E06D0E8
:1022200001CCB84740EA080000F0FF086D1E06F830
:10223000018B002DDDD123E0FFE701CCB84700077B
:102240004FEA10686D1E06D001CCB84740EA08007E
:1022500000F0FF086D1E06F8018B002DEDD10FE098
:10226000D3F810C0BCF1000F04D001232A46204649
:10227000E04705E001CCB84706F8010B6D1EF9D127
:1022800001206AE77CB5064628480D46006868B11B
:10229000002003F061F906E06A462946304603F063
:1022A000D7FE03F01BF90028F6D17CBD1068009022
:1022B0001F4C506801902268BDF8000032F84C1F96
:1022C0000844ADF80000BDF8020091880844ADF85C
:1022D0000200BDF8040011880844ADF80400BDF800
:1022E000060091880844ADF80600684603F034F90A
:1022F0000EE000BF2068BDF800106A464184BDF8BA
:10230000021081842946304603F0A2FE03F0E6F86D
:102310000028EFD1206830F8221F428D891A0180F1
:102320004188C28D891A41807CBD00006800002070
:102330002C0000202DE9FF4F8DB00020DDF86CA0AF
:10234000164600901D4604460246CAF8000008AB37
:1023500003A902A800F078F918B1002011B0BDE877
:10236000F08F0898854200DD0546614F0B95614965
:102370003868407C51F82010049109690691FEF7F5
:10238000BDFE05903868407CFEF70CFF5A49814637
:10239000884204D05949894501D0012000E000203D
:1023A0000A9001CE1A9988478346000E079077D08D
:1023B000009870BB0D9800EB04084D480068B0F918
:1023C0000800404503DDA0EB0807804600E0002739
:1023D0000298049900EB840000EB8700CDE900012E
:1023E0000B990D98421809920E9B40461946521EB1
:1023F000FFF74CFB01200090059818280ADA029894
:10240000DDE9052300EB840000EB8700E91B00F009
:1024100079F812E00A9880B1029800EB840000EB92
:1024200087070998A0EB080849463868884701C71C
:10243000A8F101005FEA0008F6D13148C06980B315
:10244000DDE9020700EB840007EB8402CDE902021C
:102450002B4C361F3046E4692B460299A047FF21DA
:102460003068B1EB106F02D10298006804E0029A64
:102470001268B1EB126F01D1039A1060029806F155
:102480000406001D02900398001D03906D1EE7D105
:102490000397DAF8000040F00101CAF8001020E0CC
:1024A00021E0FFE70798FF2811D0C0F1FF02029852
:1024B00050F82410584600F02DFA039941F82400F2
:1024C000DAF8000040F00101CAF8001005E00298B7
:1024D000039950F8240041F82400641C6D1E7FF419
:1024E00060AF03983AE7039941F824B0E8E70000A9
:1024F0002C000020440000205341000851410008F6
:10250000580100202DE9F05F0C1E16DD5E680146C3
:1025100000EB8405082A12DC611E012A26D0022A5B
:1025200047D0042A6AD0082A07D1071917F8010DE5
:10253000B04745F8040D641EF8D1BDE8F09F102A9D
:10254000FBDC5F693FB12246BC46BDE8F04F022389
:102550005DF804EB604701EB440700BF37F8020D5C
:10256000B04745F8040D641EF8D1E6E700EBE10042
:1025700001F0070710F801A98146802020FA07F82A
:10258000B5F104050AEA0800C7F10701C840B047E1
:1025900045F804093FB14FEA48604FEA10687F1ED2
:1025A000641EEFD1C9E719F801A907274FF0010808
:1025B000F6E700EBA10001F0030710F801A981463E
:1025C0007900C02020FA01F84FF0060BB5F10405A0
:1025D0000AEA0800ABEB4701C840B04745F80409D8
:1025E0003FB14FEA88604FEA10687F1E641EEFD14A
:1025F000A3E7032719F801A9B846F7E700EB610044
:10260000012710F801A9A7438146B900F02020FA5C
:1026100001F84FF0040B2D1F0AEA0800ABEB87010D
:10262000C840B04745F804093FB14FEA08704FEA87
:1026300010687F1E641EEFD17FE719F801A90127FA
:102640004FF00F08F6E700002DE9F047224C064650
:102650001F46A06990468946002540B90120A06127
:1026600004F120011D480860084600F0ABF96069DC
:1026700030B91B480068606110B901F0F0FC60617E
:1026800007B138604EB1A06830B960698000FEF7CC
:1026900053FAA06000B901253060B9F1000F0AD0EB
:1026A000E06830B960698000FEF746FAE06000B982
:1026B0000125C9F80000B8F1000F0AD0206930B92F
:1026C00060698000FEF738FA206100B90125C8F87A
:1026D00000002846BDE8F087580100204D82000820
:1026E0005C00002073B5124A01A900981268904757
:1026F00000240090C8B10F4900250968C9694969DB
:1027000059B10A684AB1019990477CBD6846FFF704
:10271000F3FA0546FEF704FD04440198401E0190BB
:10272000F4D5284600F032F8044420467CBD000071
:102730002C0100202C00002073B50D4600980024C9
:1027400090B10A490968C969496959B14A684AB1E9
:10275000294690477CBD6846FFF7CEFA20B10A288B
:1027600002D0641CAC42F6DB20467CBD2C0000206D
:10277000044AB2F9002002600348B0F90000086082
:10278000704700006C0000206E00002038B5002467
:1027900069460094FEF7CCFC0099814200DD0C1ADA
:1027A000204638BDB0F90030B1F90020934200DA7C
:1027B0000280B0F90230B1F90220934200DA42807F
:1027C000B0F90430B1F90420934200DD8280B0F901
:1027D0000620B1F906108A4200DDC180704770B54D
:1027E000B1F90040B2F900309C4200DD234603807D
:1027F000B1F90250B2F90240A54200DD2C464480F6
:10280000B1F90460B2F90450AE4200DA3546858071
:10281000B1F90610B2F90620914200DB1146C180E1
:102820009D4201DBA14201DA002070BD012070BD94
:10283000014602480068407C00F002B82C000020ED
:102840002DE9F84301268946044602285DDA304F17
:102850007A6802B190472E4D5FEA090005F1100534
:1028600032D0012803D0B9F1020F4ED118E055F84B
:10287000240088B92046FEF75FFB009018B3C068BB
:102880000D21426A6846904702003ED049460098B2
:10289000904755F824000026401C45F8240034E0F9
:1028A0002046FEF749FB009068B1C0680D21426ADE
:1028B00068469047040028D0386800B180474946F0
:1028C0000098A047002620E055F82400A8460128DB
:1028D00012D12046FEF730FB009068B1C0680D2190
:1028E000426A68469047050006D0386800B18047C4
:1028F00049460098A847002658F8241009B101223B
:1029000000E00022891A48F824103046BDE8F88318
:102910001401002070B5FF23B3EB116F29D0C3B2AF
:1029200000F47F4500F47F04060E5343554354439F
:102930005643C2F1FF00CAB202FB003201F47F43EA
:1029400003FB005301F47F0505FB0044090E01FB66
:102950000065C2F307204FF47F4101EA1322090208
:1029600001EA14214FF07F43104303EA0543084373
:10297000184370BD2DE9F04F0646DDE90CB9154648
:102980000C4600208046584519D20B9F4FF0FF0A95
:1029900001CE08CCAAEB106202FB09F2B2FBFAF1FD
:1029A000CAB21946FFF7B6FF20F07F4001C57F1E6F
:1029B000EED1099804EB800408F10100E2E7BDE8DC
:1029C000F08F000002494A69426048617047000088
:1029D0002000002010B502E000F8011B521E0AB1D1
:1029E0008307F9D1930818D001EB014402F00302E8
:1029F00004EB042406E010C01B1F10C040F8084B75
:102A000040F8044C042BF6DA01E010C05B1E002BEA
:102A1000FBD102E000F8011B521E002AFAD110BDC2
:102A200010B5830702D520F8021B521E530811D09F
:102A300001EB0144042B09DB10C01B1F10C0042B49
:102A400040F8084B40F8044CF6DA01E010C05B1E79
:102A5000002BFBD1D20700D0018010BD31B500F0B2
:102A600099F9044600F096F90099001B8842F9D3C1
:102A700038BD0000F0B585B03848416800296BD1F9
:102A8000012646603648816941F48071816181691F
:102A900001F480710091816941F080018161816957
:102AA00001F080010091816941F0800181618169BB
:102AB00001F080010091816941F0800181618169AB
:102AC00001F080010091816941F0400181618169DB
:102AD00001F040010091816941F02001816181692B
:102AE00001F020010091416941F480714161406928
:102AF00000F480700090019602240294032504954E
:102B0000184F01A9384600F035F8E0020190029410
:102B1000049501A9144800F02DF84FF6807001903B
:102B20000294049501A9114800F024F84CF2337086
:102B300001900294049501A90D4800F01BF865026C
:102B400000222946384600F01DF9019502960494AA
:102B500001A9384600F00EF805B0F0BD08000020CD
:102B600000100240001C01400020014000180140FC
:102B7000001401402DE9F84F00230024DFF8DC9118
:102B80004FF00F0809F1040A0AF1040B0BF1040ECF
:102B90000127A7400A683A40BA4275D1DFF8C0C1A0
:102BA0004D68A5EB0C0665452BD00DDC032D34D00C
:102BB00005DC35B3012D19D0022D2FD11BE0112DCD
:102BC00016D0122D2AD119E0B6F5881F19D006DCCF
:102BD000B6F5803F15D0B6F5801F1FD111E0B6F5D0
:102BE000001F0ED0B6F5041F18D10AE0CB6815E01F
:102BF000CB681B1D12E0CB6808330FE0CB680C33A9
:102C00000CE08B6823B1012B04D00823476105E059
:102C1000042303E00823076100E00023FF2A01D812
:102C2000054601E000F1040502D84FEA840603E0FE
:102C3000A4F108064FEA86062F6808FA06FC27EA80
:102C40000C0703FA06F647EA06072F604D68ED0009
:102C50007ED5444DAE6946F00106AE61AD6905F022
:102C600001050095404D24F003067719BE68A507BD
:102C70002D0F08FA05FC26EA0C06DFF8F0C06045C7
:102C800003D14FF0000C25E062E0DFF8E4C06045BE
:102C900002D14FF0010C1DE0DFF8D8C0604502D131
:102CA0004FF0020C16E0DFF8D0C0604502D14FF0C3
:102CB000030C0FE0DFF8C4C0604502D14FF0040CF4
:102CC00008E0DFF8BCC0604502D14FF0050C01E020
:102CD0004FF0060C0CFA05FC4CEA060CC7F808C0CD
:102CE0004D68ED0305D5D9F800501543C9F80050DB
:102CF00004E0D9F800509543C9F800504D68AD0381
:102D000005D5DAF800501543CAF8005004E0DAF8A7
:102D100000509543CAF800504D68ED0205D5DBF828
:102D200000501543CBF8005004E0DBF80050954309
:102D3000CBF800504D68AD0205D5DEF800501543C4
:102D4000CEF8005004E0DEF800509543CEF8005075
:102D5000641C102CFFF41CAFBDE8F88F0004014088
:102D60000000111000100240000001400008014066
:102D7000000C014000100140001401400018014007
:102D8000001C0140002A01D0016170470904016163
:102D900070470000014800687047000004000020F0
:102DA00002480168491C01607047000004000020CF
:102DB00010B50748016841F010010160032000F0E0
:102DC00069F8002000F006F800F016F8002010BDA9
:102DD0000020024010B5044600F0CAF94FF47A72A0
:102DE000B0FBF2F000F0E2FD00222146501E00F0A0
:102DF00031F8002010BD000008B51548816941F088
:102E000001018161806900F001000090052000F05F
:102E100041F8002211466FF00B0000F01BF8002271
:102E200011466FF00A0000F015F8002211466FF00D
:102E3000090000F00FF800221146101F00F00AF8F8
:102E40000022BDE808401146501E00F003B8000003
:102E500000100240F0B40D460D4B1B68C3F3022373
:102E6000C3F10704042C00D90424191D072901D239
:102E7000002300E0DB1E012606FA04F1491E29406A
:102E800099409E40761E16403143F0BC01F048BD8B
:102E90000CED00E000F00701054A10684FF6FF0353
:102EA000184040EA012003490843106070470000C1
:102EB0000CED00E00000FA052DE9F04704460F464E
:102EC000DFF8A492D9F80000A84D00F00701012016
:102ED000430446064FF0020C41F28838B9426FD2E3
:102EE000D9F8001021F007013943C9F80010D9F8CA
:102EF000001001F00701B94201D0BDE8F087217848
:102F0000890705D56968A26821F0F001114369605D
:102F10002178C90761D0616801290BD002291FD02F
:102F20009CFAACF2B2FA82F242F0200252092DD0A1
:102F30002A682CE093FAA3F2B2FA82F242F020025D
:102F4000520901D02A6800E06A6A93FAA3F3B3FA3F
:102F500083F303F01F039840024223D10120CCE702
:102F600096FAA6F2B2FA82F242F02002520901D099
:102F70002A6800E06A6A96FAA6F3B3FA83F303F0CC
:102F80001F03984002420DD10120B6E76A6A9CFAFD
:102F9000ACF3B3FA83F303F01F039840024201D16C
:102FA0000120AAE7686820F0030008436860FFF783
:102FB000F1FE0646606801280AD0022815D021E0FB
:102FC00025E0FFF7E7FE801B404501D9032094E789
:102FD0006868C0F381000128F3D1ADE0FFF7DAFEA5
:102FE000801B404501D9032087E76868C0F3810052
:102FF0000228F3D1A0E0FFF7CDFE801B404501D9A8
:1030000003207AE7686810F00C0FF4D194E021787F
:10301000890705D56968A26821F0F001114369604C
:103020002178C90779D0616801290BD002291FD006
:103030009CFAACF2B2FA82F242F0200252092DD090
:103040002A682CE093FAA3F2B2FA82F242F020024C
:10305000520901D02A6800E06A6A93FAA3F3B3FA2E
:1030600083F303F01F039840024223D1012044E779
:1030700096FAA6F2B2FA82F242F02002520901D088
:103080002A6800E06A6A96FAA6F3B3FA83F303F0BB
:103090001F03984002420DD101202EE76A6A9CFA74
:1030A000ACF3B3FA83F303F01F039840024201D15B
:1030B000012022E7686820F0030008436860FFF7FA
:1030C00069FE06466068012809D0022814D020E075
:1030D000FFF760FE801B404501D903200DE76868BB
:1030E000C0F381000128F3D117E0FFF753FE801BE6
:1030F000404501D9032000E76868C0F38100022839
:10310000F3D10AE0FFF746FE801B404501D90320BA
:10311000F3E6686810F00C0FF4D1D9F8000020F045
:1031200007003843C9F80000D9F8000000F0070094
:10313000B84201D00120E0E62078400705D5686854
:10314000E16820F4E060084368602078000706D555
:103150006868216920F4605040EAC100686000207E
:10316000FFF738FE0020C8E60020024000100240B1
:1031700000B500F043F808494968F02292FAA2F23B
:1031800001F0F001B2FA82F2D140044A515CC84029
:103190000349086000BD00000010024000990008CB
:1031A0000000002000B5FFF7E3FF074949684FF42E
:1031B000E06292FAA2F201F4E061B2FA82F2D14046
:1031C000024A515CC84000BD00100240009900084E
:1031D00000B5FFF7CDFF074949684FF4605292FAF6
:1031E000A2F201F46051B2FA82F2D140024A515C7B
:1031F000C84000BD001002400099000810B585B01D
:103200001AA0D0E90031D0E90220CDE90131CDE9A1
:1032100003201AA000680090194B5968194801F062
:103220000C02042A1DD0082A1BD14FF4701494FA02
:10323000A4F401F47012B4FA84F4E24001ACA25C8C
:10324000C90310D559684FF4003393FAA3F301F47E
:103250000031B3FA83F3D9401DF80110B0FBF1F04F
:10326000504305B010BD08485043FAE70203040577
:10327000060708090A0B0C0D0E0F101001020000C2
:103280000010024000127A0000093D002DE9F84FBD
:103290000446F94D20784FF00106C00775D06868E4
:1032A0007704C0F38100012807D06868C0F381006B
:1032B00002281DD16868C0031AD597FAA7F0B0FAA2
:1032C00080F040F02000400901D0286800E0686AE2
:1032D00097FAA7F1B1FA81F101F01F0206FA02F1A3
:1032E000084252D0606800284FD10120BDE8F88F15
:1032F000286820F480302860286820F48020286026
:10330000FFF748FD804607E0FFF744FDA0EB08000B
:10331000642801D90320E9E797FAA7F0B0FA80F012
:1033200040F02000400901D0286800E0686A97FA60
:10333000A7F1B1FA81F101F01F0106FA01F108428B
:10334000E2D16068B0F5803F11D0A8B1B0F5A02FF0
:103350001CD0286820F480302860286820F4802061
:1033600028606068C8B3FFF715FD80461FE0286835
:1033700040F480302860F4E7286820F4803028602A
:10338000286820F480202860EBE748E0286840F4B3
:1033900080202860286840F480302860E1E7FFF74B
:1033A000F9FCA0EB0800642801D903209EE797FAF6
:1033B000A7F0B0FA80F040F02000400901D0286862
:1033C00000E0686A97FAA7F1B1FA81F101F01F01F4
:1033D00006FA01F10842E2D021E0FFE7FFF7DAFC4C
:1033E000804607E0FFF7D6FCA0EB0800642801D96F
:1033F00003207BE797FAA7F0B0FA80F040F02000B6
:10340000400901D0286800E0686A97FAA7F1B1FA8C
:1034100081F101F01F0106FA01F10842E2D12078A2
:10342000DFF8588280074FF0000B4FF0020732D5CB
:1034300068684FF0F80A10F00C0F07D06868C0F306
:103440008100022828D16868C00325D497FAA7F024
:10345000B0FA80F040F02000400901D0286800E078
:10346000686A97FAA7F1B1FA81F101F01F0106FA33
:1034700001F1084204D02069012801D0012035E77C
:1034800028689AFAAAF26169B2FA82F220F0F8008A
:103490009140084328605CE0206990B396FAA6F05A
:1034A000B0FA80F048F82060FFF774FC814607E02E
:1034B000FFF770FCA0EB0900022801D9032015E7F3
:1034C00097FAA7F0B0FA80F040F02000400901D050
:1034D000286800E0686A97FAA7F1B1FA81F101F073
:1034E0001F0106FA01F10842E2D028689AFAAAF20E
:1034F0006169B2FA82F220F0F80091400843286036
:1035000027E0FFE796FAA6F0B0FA80F048F820B07E
:10351000FFF740FC814607E0FFF73CFCA0EB090009
:10352000022801D90320E1E697FAA7F0B0FA80F06B
:1035300040F02000400901D0286800E0686A97FA4E
:10354000A7F1B1FA81F101F01F0106FA01F1084279
:10355000E2D12078000770D5A069C0B396FAA6F032
:10356000B0FA80F008EB8000C0F88064FFF712FC2E
:10357000814607E0FFF70EFCA0EB0900022801D905
:103580000320B3E697FAA7F0B0FA80F040F06000AD
:10359000B6EB501F01D128680BE097FAA7F0B0FAFC
:1035A00080F040F06000B7EB501F01D1286A00E0C6
:1035B000686A97FAA7F1B1FA81F101F01F0206FAE1
:1035C00002F10842D6D00120FFF748FA35E0FFE7C4
:1035D00096FAA6F0B0FA80F008EB8000C0F880B44C
:1035E000FFF7D8FB814607E0FFF7D4FBA0EB09000B
:1035F000022801D9032079E697FAA7F0B0FA80F003
:1036000040F06000B6EB501F01D128680BE097FA3C
:10361000A7F0B0FA80F040F06000B7EB501F01D186
:10362000286A00E0686A97FAA7F1B1FA81F101F01F
:103630001F0206FA02F10842D6D12078400770D561
:10364000E86940F08050E861E86900F0805000903F
:10365000DFF82CA0DAF8000040F48070CAF800000F
:10366000FFF798FB81460DE0FFF794FBA0EB090004
:10367000642807D9032039E60010024000004242C6
:1036800000700040DAF80000C005EDD5286A20F08F
:1036900001002862286A20F004002862FFF77AFB04
:1036A000814641F2883A07E0FFF774FBA0EB09007E
:1036B000504501D9032019E697FAA7F0B0FA80F037
:1036C00040F04000B6EB501F01D128680BE097FA9C
:1036D000A7F0B0FA80F040F04000B7EB501F01D1E6
:1036E000286A00E0686A97FAA7F1B1FA81F101F05F
:1036F0001F0106FA01F10842D6D1E068012811D075
:10370000A8B105281CD0286A20F001002862286A88
:1037100020F004002862E068C8B3FFF73BFB814655
:103720001FE06EE0286A40F001002862F3E7286A93
:1037300020F001002862286A20F004002862EAE7ED
:10374000286A40F004002862286A40F001002862DC
:10375000E1E7FFF71FFBA0EB0900504501D903206B
:10376000C4E597FAA7F0B0FA80F040F04000B6EB5D
:10377000501F01D128680CE097FAA7F0B0FA80F04A
:1037800040F04000B7EB501F02D1286A01E00BE087
:10379000686A97FAA7F1B1FA81F101F01F0206FAFF
:1037A00002F10842D5D02CE0FFF7F4FA814607E099
:1037B000FFF7F0FAA0EB0900504501D9032095E589
:1037C00097FAA7F0B0FA80F040F04000B6EB501F37
:1037D00001D128680BE097FAA7F0B0FA80F040F02A
:1037E0004000B7EB501F01D1286A00E0686A97FAE1
:1037F000A7F1B1FA81F101F01F0206FA02F10842C5
:10380000D6D1E06980B36968C1F38101022970D023
:103810004FF080794FF00077022809D099FAA9F08B
:10382000B0FA80F048F820B0FFF7B4FA044668E038
:1038300099FAA9F0B0FA80F048F820B0FFF7AAFA98
:10384000824607E0FFF7A6FAA0EB0A00022801D99A
:1038500003204BE597FAA7F0B0FA80F040F0200083
:10386000400902D0286801E060E0686A97FAA7F191
:10387000B1FA81F101F01F0106FA01F10842E1D12C
:10388000206AB0F5803F05D16868A16820F4003057
:1038900008436860D4E908010843696821F4741199
:1038A0000843686099FAA9F0B0FA80F048F82060FF
:1038B000FFF770FA044606E0FFF76CFA001B0228D7
:1038C00001D9032012E597FAA7F0B0FA80F040F092
:1038D0002000400901D0296800E0696A97FAA7F042
:1038E000B0FA80F000F01F0006FA00F00142E3D0C9
:1038F0001CE01DE0FFF74EFA001B022801D903204F
:10390000F4E497FAA7F0B0FA80F040F02000400904
:1039100001D0296800E0696A97FAA7F0B0FA80F050
:1039200000F01F0006FA00F00142E3D10020DDE4C0
:103930000120DBE470B504460E461546002C03D08A
:1039400094F83D0010B107E0012070BD002084F81C
:103950003C00204600F01AF804F108012068FCF74A
:103960000FFD3146A2682068FCF758FDD4E901023A
:103970002946236BFCF7D2FCA168206850F821206F
:1039800042F0010240F82120002070BDFFF772B81C
:103990004FF0E021042804D0086920F004000861F9
:1039A0007047086940F004000861704710B5401E78
:1039B000B0F1807F01D3012010BD4FF0E0246061A1
:1039C0000F21601700F0ACFF0020A06107202061EC
:1039D000002010BD70B50446002C04D094F83900C6
:1039E000002510B106E0012070BD84F83850204653
:1039F00000F020F8022084F839002068C16821F422
:103A00000051C160204600F0F7FF2068016921F4F1
:103A1000904101612068416921F02A0141612068DB
:103A2000C16841F40051C160E563012084F83900A8
:103A3000002070BD10B586B00068114988421DD1C4
:103A40001048816941F480418161806900F48040BF
:103A500001904FF400700290022003900320059023
:103A6000094C02A92046FFF785F821150291002193
:103A70000391049102A92046FFF77CF806B010BD1F
:103A80000038014000100240000801402DE9F041DB
:103A900004460D46984694F83900012804D022289F
:103AA00002D00220BDE8F0819DB192B194F83800B7
:103AB000012810D0012684F838600027E76394F8C5
:103AC0003900222809D0122084F83900A284E28427
:103AD0002EE00120E6E70220E4E7322084F83900F6
:103AE000F4E7401EE084A068B0F5805F08D043464C
:103AF00000228021204601F005F8A8B10320D1E77B
:103B0000434600228021204600F0FCFF08B103203C
:103B1000C8E728882168C0F308004860206908B118
:103B20006D1C05E0AD1C03E0216815F8010B486031
:103B3000E08C0028D5D1434600224021204600F0E9
:103B4000E1FF08B10320ADE794F83900322805D031
:103B500084F8396084F838700020A3E7222084F8C4
:103B60003900F7E7FEE72DE9F0414FF0D844E020B7
:103B70002080002060800721618010216180092160
:103B80006180172363800B2262804127678089222E
:103B900062804B2262800A2262800C2565800E259D
:103BA0006580182666801B2666800F2666804FF08B
:103BB000E10CA4F800C0608063801A2363804FF09A
:103BC000040CA4F802C06580062363802F23638061
:103BD0004523638043236380022363806280618086
:103BE000322565804FF03608A4F802806680F725FC
:103BF0002580A9256580512565802C266680822533
:103C00006580C0252580112565806180C1212180C6
:103C10006780C52121806080628080216180B12120
:103C20002180B02161806580B42121806380B6212C
:103C30002180638022216180B7212180C62161809B
:103C4000BE2121806080A4F802C0E921218060802B
:103C5000A4F80080082161802A2121806080608092
:103C6000012161803F2262802B222280608060805F
:103C70006180DF20608026803A202080552060808F
:103C800025807820FEF7EAFE29202080BDE8F0811B
:103C900002490A680860104670470000940100203D
:103CA0000449054A0968497C52F8211009690968E4
:103CB000084700002C000020440000202DE9F04FB0
:103CC00005468DB07B48DDF860901A9C00681E4662
:103CD00017464FF0000A78B11B9B199ACDF808904F
:103CE0000593CDE90324DDE91623CDE9002304681B
:103CF00033463A46284680E0DDE9160201EB060825
:103D000005EB070C1043A8F10108ACF1010C0128E8
:103D100006D0C9F108000590002002910990C6E084
:103D200065480268B2F90A30581A002806DD361ACA
:103D3000002E63DD1946199B00FB0344B2F90E0007
:103D4000A8EB0000002802DD361A002E56DDB2F97D
:103D50000C00ACEB0000002800DD3F1AB2F908307F
:103D60000020AB4235DD581B3F1A4B46B9F1080F16
:103D700026D006DC012B0BD0022B11D0042B28D12E
:103D800016E0102B1ED0182B1FD0202B21D11CE0A9
:103D900020F0070304EBE0041D4400F0070018E0E6
:103DA00020F0030304EBA0041D4400F0030010E026
:103DB00020F0010304EB60041D4400F0010008E062
:103DC000044404E004EB400401E004EB80040544F7
:103DD0000020002F12DD1B9BDDF864C0CDE9040339
:103DE000CDE90069CDE902C4527C34483B4650F825
:103DF0002200C26854680A462946A0470DB0BDE8B3
:103E0000F08F1799029808440C902B49401E00909F
:103E10000A68B2F90A30834241DCB2F90E10029806
:103E200081423CDB4FF0000BD84603950A9434E006
:103E3000BBF1000F05D10A984FF0080B10F801AB49
:103E40000A900599ABEB090B3AFA01F00AFA09F16D
:103E500001F0FF0A04D118490968097C890716D4C2
:103E600015490968C96B0A680B921B9A0AB152F886
:103E70002000086016990398009B4218521E029970
:103E800000F07EF80C490B980968C96B086003992B
:103E9000169808F1010808440390B845C8DB099852
:103EA000401C09900C980290199804440998B0425B
:103EB000A7DBA3E7680000202C00002044000020BE
:103EC000F0B40C4612490968B1F90A30A3421CDC6F
:103ED000B1F90E30A34218DBB1F90830834200DD9E
:103EE0001846B1F90C30934200DA1A4682420CDBD4
:103EF0004B7C084951F8235013462246E9688E68E6
:103F000001462846B446F0BC6047F0BC704700004C
:103F10002C000020440000200A46174930B40968EC
:103F2000B1F90A30934225DCB1F90E30934221DB1E
:103F3000B1F9083083421DDCB1F90C30834219DB42
:103F40000B7C0E4CDB0709D0497C54F82130D96832
:103F5000CC690146A44630BC18466047CB6B497C0F
:103F60001B6854F82140E1688D6901462046AC4643
:103F700030BC604730BC70472C000020440000205B
:103F800038B5134C2468B4F90850854200DD284642
:103F9000B4F90C50954200DA2A46824217DBB4F994
:103FA0000A508D4200DD2946B4F90E509D4200DAD8
:103FB0002B468B420BDB0093647C064B53F824406A
:103FC000E3681D6913460A4601462046A84738BDE6
:103FD0002C00002044000020082103F096BE0000C1
:103FE00002480068806B0068704700002C000020C9
:103FF00002480068C06B0068704700002C00002079
:10400000024809210068407C03F07FBE2C0000209C
:10401000092103F07ABE70B500252C462046FCF736
:104020008BFF00B16D1C641C022CF7DB284670BDB1
:1040300002480068407C00F003B800002C0000201B
:1040400010B5FCF779FF002805D0C168CA6ABDE841
:1040500010400221104710BD032103F056BE03207B
:1040600003F09FBE042103F050BE0000024801216E
:104070000068407C03F049BE2C0000200148006825
:1040800070470000A8000020012103F03EBE01207F
:1040900003F087BE024802210068407C03F035BE71
:1040A0002C0000200148406870470000A800002054
:1040B000022103F02ABE022003F073BEAFF300809A
:1040C0002DE9F041002809D0876837B10D4E71689D
:1040D00019B10468B4F5807F02DD0020BDE8F081ED
:1040E0003068844200DD0446002507E057F82500CB
:1040F000FFF7D6FD716841F825006D1CA542F5DB80
:104100007068EBE7980000200449054A0968497C7B
:1041100052F8211009694968084700002C00002066
:104120004400002010B5084A084B00F01F01C0F3FE
:104130004514C0F3C420515C1B5D105C01EB0321EE
:1041400001EB004010BD000004B1000824B10008DC
:104150007047704710B50A4C606860B920688000ED
:10416000FCF7EAFC606040B104F108010548086012
:104170000846FEF727FC002010BD012010BD0000FE
:1041800098000020058200082DE9F047FFF743FF63
:1041900007460024DFF860802AE02046FCF7CCFECA
:1041A00028B3D8F8000090F8119044742046FFF727
:1041B00013FF082817DC1148114950F82400006942
:1041C000884210D02046FFF723FF0646002508E06E
:1041D000E8B2FFF799FF0246E9B2204600F068F91D
:1041E0006D1CB542F4DBD8F8001081F81190641C06
:1041F000BC42D2DBBDE8F0872C0000204400002048
:104200001CB400080CB54FF0D8400421018041884F
:10421000ADF800104188C9B24288D2B24088C0B21D
:10422000090401EB022108440CBD00002DE9FF4FF9
:1042300083B01646DDE910408B46C0684769426A84
:104240007AB1012111A8904705000AD00698CDE95E
:10425000000433465A4603991198A84707B0BDE8B1
:10426000F08F57480068407CFCF748FF82460828DA
:1042700001DC012005E0BAF1100F01DC022000E0B2
:1042800004208046002596E04046B8F1010F05D095
:10429000022871D0B8F1040F25D17CE0BAF1090FE2
:1042A00021D2DFE80AF08605213F3F5959595900CC
:1042B000039815E001465A461198B847C5F1070121
:1042C00088404FF67F722178EA40114001436D1C0F
:1042D000217004EBE50425F00700054109F1010018
:1042E0008146B042E6DD64E0039817E001465A4695
:1042F0001198B8470621A1EB450188406B004FF6A5
:104300003F722178DA40114001436D1C217004EBAB
:10431000A50425F00300054109F101008146B042E2
:10432000E4DD46E0039813E001465A461198B84789
:104330000421A1EB850188402178AB000F229A402F
:104340001140014321702C4485F0010509F1010061
:104350008146B042E8DD2CE0DDF80C9007E0014634
:104360005A461198B847207009F10109444448465B
:10437000B145F4DD1DE0FFE7DDF80C9007E00146F4
:104380005A461198B847208009F10109444448462B
:10439000B145F4DD0DE0DDF80C9007E001465A462A
:1043A0001198B847206009F1010944444846B145D5
:1043B000F4DD0BF1010B06998B457FF765AF4DE7F7
:1043C0002C00002010B50D4C0D492068407C51F8A0
:1043D000200048B1C16811B10968042901D0006802
:1043E000F7E708B1FCF790FD20680021016600F1B5
:1043F00008014161BDE8104000F02EB82C000020FB
:1044000044000020014909684968084794000020D9
:10441000044909680A7C520701D5C96B00E0896B21
:10442000086070472C0000207CB5094C05462068C8
:10443000417C084850F82100C1680A6B69469047E2
:1044400020686A4629460830FEF7C9F97CBD00009D
:104450002C000020440000200448016804484A7CE5
:10446000083150F82200C268126B10472C0000205F
:1044700044000020014909680968084794000020A9
:10448000044909680A7C520701D5896B00E0C96BB1
:10449000086070472C000020014AC2E90001704703
:1044A000A800002001490968896808479400002095
:1044B000F8B515460E460124FCF73EFD009058B1B4
:1044C000C0681021426A68469047030004D02A461B
:1044D00031460098984700242046F8BDF8B51546A7
:1044E0000E460124FCF728FD009058B1C0680B214E
:1044F000426A68469047030004D02A463146009835
:10450000984700242046F8BDF8B515460E4601240C
:10451000FCF712FD009058B1C0680A21426A684653
:104520009047030004D02A4631460098984700245B
:104530002046F8BD10B5074C2068006BFFF7B0FBB4
:10454000FFF79EFF2068406BFFF7AAFBBDE8104015
:10455000FFF75EBF2C00002070B5A0B014211BA88F
:10456000FBF739FE682101A8FBF735FE00231A4648
:1045700014491548FCF76EFC06464FF4F0744FF4EE
:10458000A075224629460020FFF7A8FF22462946AB
:104590000020FFF7B9FF00211D911BA93046FBF752
:1045A00099FF0A4909910A490A910A490C910A4955
:1045B00010910A4B0A4A01A93046FBF7ABFF20B025
:1045C00070BD00001899000830990008674800087D
:1045D0004B4800085348000837480008B505000854
:1045E00049050008012902D04FF0FF307047002034
:1045F000704700002DE9FF4F8DB01746674ADDF880
:1046000070901E9E209812681D4600248AB11D9B42
:104610001F98CDE90293CDE90460DDE91A03CDE9E5
:10462000000314682B463A460D98A04711B0BDE828
:10463000F08F0D9A01EB050802EB070CDDE91A2358
:104640001A43A8F10108ACF1010C012A06D0C9F106
:1046500008004FF0000B029105909CE0504A126850
:10466000B2F90A40631A002B06DDED1A002DDDDDDC
:1046700021461D9C03FB0466B2F90E30A8EB030330
:10468000002B02DDED1A002DD0DDB2F90C30ACEBC1
:104690000303002B00DDFF1A0D9B1C1AB2F9083032
:1046A000A3420DDDA3EB040C0CEB0003181A20F061
:1046B00007000444A7EB0C0706EBE30603F0070032
:1046C000002FB3DDDDF874C01F9BCDE902C6CDE934
:1046D0000403CDE90059527C32483B4650F8220091
:1046E000C26855680A462146A8479FE71B99029869
:1046F00008440C902A49401E00900A68B2F90A301A
:10470000834242DCB2F90E10029881423DDB4FF049
:10471000000A0D980A96D046039034E0BAF1000FD3
:1047200005D10A984FF0080A10F8014B0A90059934
:10473000AAEB090A34FA01F004FA09F4E4B204D14C
:1047400017490968097C890717D415490968C96B95
:104750000A680B921F9A0AB152F820000860039968
:104760001A98009B0A18DDE90210521EFFF708FC98
:104770000B490B980968C96B086003991A9808F1EE
:10478000010808440390B845C8DB0C9802901D98B6
:104790000BF1010B0644AB45A8DB47E7680000209E
:1047A0002C00002044000020002818D0410817D019
:1047B000810817D0C10817D0010917D0410917D0B7
:1047C000010A17D0410A17D0010B15D0C10B13D025
:1047D000010C11D0810C11D0000E11D02020704797
:1047E0000120704702207047032070470420704763
:1047F000052070470820704710207047122070472E
:104800001820704700B50022FFF7CEFF012804D022
:10481000811E062903D808220BE0012209E0A0F13D
:104820000901072901D8102203E011380F2800D808
:104830002022104600BD4FF0D84302E05A8820F8ED
:10484000022B491E4A1CF9D170474FF0D8414880CD
:1048500070474FF0D84202E030F8023B5380491EC7
:104860004B1CF9D170474FF0D841088070470000C9
:1048700082B00D48816941F004018161806900F0D6
:10488000040001900A48094901604FF4E131416098
:1048900000218160C16001610C2242618161C161BE
:1048A00002B0FFF797B80000001002400038014046
:1048B0009C01002000B587B015484FF020410160F1
:1048C00014494160062181600021C160016110220C
:1048D00042618161C1610162416212028262C16210
:1048E00001634163816302200090019105200290E1
:1048F00003910491059106916A4669460448FFF7C1
:1049000019F80548C16941F48061C16107B000BD73
:10491000DC010020040100A000000140FEE7704718
:104920000907090E002806DA00F00F0000F1E02068
:1049300080F8141D704700F1E02080F800147047E3
:1049400010B5FEF72DFA02480168491C016010BD40
:104950001400002030B58FB00120059000040690AF
:104960000024079402250C950D904FF4E0100E9052
:1049700005A8FEF78BFC0F200090019502946802B9
:104980000390049402216846FEF796FAFEF7F0FBC6
:104990004FF47A71B0FBF1F0FFF708F80420FEF74E
:1049A000F7FF00221146501EFEF754FA0FB030BD3B
:1049B0000D48016841F00101016041680B4A114056
:1049C000416001680A4A11400160016821F48021B8
:1049D0000160416821F4FE0141604FF41F018160D4
:1049E0000449C00308607047001002400000FFF84F
:1049F000FFFFF6FE08ED00E02DE9F04104462068D7
:104A00000169E26821F4405111430161A168206904
:104A10000143606901432068C26841F20C639A4314
:104A20000A43C26020684169A26921F440711143C0
:104A300041613349206864253226884230D1FEF72F
:104A4000C7FB00EBC00101EB001061688900B0FBFF
:104A5000F1F0B0FBF5F7FEF7BBFB00EBC00101EB9B
:104A6000001061688900B0FBF1F8FEF7B1FB00EBC4
:104A7000C00101EB001061688900B0FBF1F0B0FBF0
:104A8000F5F06FF01801484308EB800006EB0010CA
:104A9000B0FBF5F0216867F31F108860BDE8F08176
:104AA000FEF780FB00EBC00101EB0010616889009C
:104AB000B0FBF1F0B0FBF5F7FEF774FB00EBC001C3
:104AC00001EB001061688900B0FBF1F8FEF76AFBAA
:104AD00000EBC00101EB001061688900B0FBF1F050
:104AE000B0FBF5F06FF01801484308EB800006EBCF
:104AF0000010B0FBF5F0216867F31F108860CDE768
:104B0000003801402DE9F04704460F4692461D4605
:104B1000FEF740F906464FF000084FF00109BAF1E0
:104B2000000F23D04AE0681C20D025B1FEF732F9EF
:104B3000801BA8421AD92068C16821F08001C16099
:104B40002068C16821F02001C1602068C16821F49B
:104B50008071C1602068416921F00101416184F8E0
:104B6000399084F838800320BDE8F0872068006819
:104B700037EA0000D7D126E0681C1FD025B1FEF728
:104B800009F9801BA84219D92068C16821F0800169
:104B9000C1602068C16821F02001C1602068C1683F
:104BA00021F48071C1602068416921F001014161F7
:104BB00084F8399084F838800320D5E720680068AD
:104BC00037EA0000D8D00020CEE7FEE702490120F6
:104BD000096881F8540070472C0000202DE9F0414D
:104BE0008AB0040036D0FCF71FF80190D0E900121B
:104BF000CDE90412876A056A01A8FCF737F8204658
:104C000000F08CFC060025D0204600F0CCF9804650
:104C1000B80704D52A46414604A800F0E5FD204621
:104C2000FCF702F801904046FBF7FEFF0690304685
:104C3000FBF7FAFF039005620698019AC1691162B9
:104C4000C46101A8FCF712F806A8FCF70FF803A846
:104C5000FCF70CF80AB0BDE8F08100002DE9FC5F1C
:104C6000DFF834A10746DDE90C54DAF81800DDF866
:104C70003CB0984691460E4604434DB9BAF802003E
:104C800048B346480AF144010068407C51F820507E
:104C9000681C0ED0FDB12846FBF7C6FF0190B0F9A5
:104CA0000010B0F902200F441644B9F1000F02D0F1
:104CB00006E000250FE0B0F90430591A01F10109AE
:104CC000B8F1000F04D1B0F90600801A00F1010814
:104CD00001A8FBF7CBFF0BF12C00FBF7EAFE5FEA24
:104CE000000B56D0BAF80200401CAAF80200584641
:104CF000FBF79AFF0090078007EB09014680491EE9
:104D0000818006EB0801491EC1800E990161244A89
:104D1000816A2240114381626846FBF7A7FFDAF8F7
:104D200010005E4650B1FBF7B9FF07463046FBF76F
:104D3000B5FF0146786948617E6101E0CAF810B0AC
:104D40002946584600F080FCA00602D5584600F0DF
:104D5000B1FAE00704D0DAF82410491CCAF824108C
:104D6000600602D55846FFF739FFA0070DD5584613
:104D7000FBF75AFF0090816A41F0020181626846A8
:104D8000FBF774FF584600F0C6F90121584600F0C1
:104D9000CCFE5846BDE8FC9FB00000202C0000204F
:104DA0009F3F3F0003490020096881F85400FFF746
:104DB00053BB00002C00002010B50446C168D4E9A4
:104DC0000020172A0DD004DC0E2A0CD0142A07D19B
:104DD00004E0222A0CD0282A02D10CE000F058FB73
:104DE0000020E06010BD2146BDE8104000F082BA0E
:104DF0006FF07040F5E7BDE8104000F08CB938B5B1
:104E000004000BD0FBF710FF00900068FCF722FFB6
:104E10006846FBF72BFF2046FBF766FE38BD000017
:104E2000F8B505006CD000F0E3FC002868D02846F7
:104E300000F086FB07460B21284600F076FE284648
:104E400000F0EDFA2846FBF7EFFE0090406A08B14B
:104E5000FCF7AEFA2B4C002104F15C026163E068C0
:104E600052F82030AB4201D142F82010254A54328A
:104E700052F82030AB4201D142F82010606904E0C2
:104E80004368AB4200D1416000680028F8D1072197
:104E9000284600F074F9009801F0C1F8284600F0A7
:104EA000E3FA20690DE000BFFBF7F8FE0646406913
:104EB0002946A84205D10846FBF7F0FE406970611B
:104EC00001E00028F0D10098806AC10702D0616A31
:104ED000491E6162800602D5A088401EA0806846F7
:104EE000FBF7C4FE6088401E60802846FBF7FCFD8F
:104EF000002F05DB0348443050F8270000F0DAF9B2
:104F0000F8BD0000B00000202DE9F0411A4C00254A
:104F1000206B10B1804700E0012502F02FFB002834
:104F2000FAD1164E306890F8540038B1A08828B1F4
:104F3000206A012720B10068804704E0002702E0D2
:104F40000120FDF775FC306890F8540038B1A08856
:104F500028B102F0DBF9A08808B10125F3E73FB1E1
:104F6000206A10B14068804702E00020FDF760FC35
:104F70002846BDE8F0810000B00000202C00002091
:104F8000034804490068407C51F820007047000045
:104F90002C000020F400002010B5002802D0FBF700
:104FA0007DFEC06910BD10B5002802D0FBF776FE6B
:104FB000806910BD10B501004FF0000004D0084614
:104FC000FBF76CFEB0F9000010BD00002DE9FF5F9B
:104FD0002C4D6878002853D100272B482F616F6330
:104FE0000068DFF8A8903C464764AF806F804FF0C0
:104FF000020A4FF0FF3B43F6FF7805F144062046D6
:10500000FBF79AFF98B1CDE90297CDE900BA0021EC
:10501000424643460846FFF721FE1A4A46F8240056
:105020004C326FF0704142F8241000F074F8641CA8
:10503000022CE4DB164FDFF85C80DFF85C90002484
:1050400007EBC40000F0B4F908EBC40000F0B0F9BD
:1050500009EBC40000F0ACF9641C022CF0DB3068F2
:1050600000F028F9FFF7B2FD0120064968703C31D5
:105070000A48086004B00846BDE8F05FFDF7A2BC2E
:10508000BDE8FF9FB00000202C0000201594000810
:10509000E47B0020F47B0020047C002019820008BF
:1050A00070B586B00D4606002CD0FBF7BDFD009014
:1050B000846AA10723D5D0E90010CDE90110E003EF
:1050C00002D5304600F016FB5DB128680390686891
:1050D000049003A9009800F073F903A901A8FDF753
:1050E00061FB314601A800F073F940B140F60100C0
:1050F0000440012C08D001A9304600F0F7FA6846B8
:10510000FBF7B4FD06B070BD0098026A816901A882
:1051100000F06AFBF3E70021FFF7C2BFFEB51546BA
:105120000E4604001CD0FBF77FFD0246009090F86D
:105130002800800711D5314601A8FDF750FB60B16A
:105140006846FBF793FD2A4601A9204602F07EFF40
:105150002046FFF721FF04460CE06846FBF786FD7A
:10516000FEBD2A4601A92046FFF7D8FF2046FBF7DF
:1051700095FD046A002CF4D1FEBD00F04BBB1FB5B9
:10518000262203910092694600F0B4F81FBD00008A
:1051900010B50C4C0A4A03462468002086B052F829
:1051A0002420002A0AD00E200090CDE9043104A862
:1051B00003906946104600F087FC012006B010BD40
:1051C0000C010020BC00002070B5154606468AB0D0
:1051D0000C4651EA05006BD0002E69D03046FBF733
:1051E00023FD0590D0E90012CDE90212CDE90612A7
:1051F0007CB1816A0A0607D5890505D4BDF8181067
:10520000091BADF8181004E0BDF81C102144ADF8DE
:105210001C107DB1816ACA0507D5490505D4BDF8C2
:105220001A10491BADF81A1004E0BDF81E102944ED
:10523000ADF81E10806AC00302D5304600F05AFA5D
:1052400005AB93E80700C0E9001290F8280080073A
:105250000AD506AA02A908A8FCF7C7FB0598026AA6
:10526000816908A800F0C0FABDF91E00BDF90E1052
:10527000401A0090BDF91C00BDF90C10431ABDF98D
:105280001A00BDF90A10421ABDF91800BDF908103C
:10529000411A059800F050FC059901F10800FDF74E
:1052A00081FA0521304600F040FC05A8FBF7DEFC42
:1052B0000AB070BD70B50C4D04002868866C01D131
:1052C0000A490C698464204600F0F4FBFFF7C4F837
:1052D0002046FBF7E3FC2968B0F90020CA64B0F966
:1052E00002000865304670BD2C000020B000002090
:1052F00000F008BC70B50C00054609D0FFF753FE5E
:10530000002805D02146A560BDE8704000F0DCBB58
:1053100070BD000010B5FBF7BDF802490020096818
:10532000486410BD2C000020F8B516460C46050058
:1053300018D0FBF779FC0090B0F90410B0F9002008
:10534000891A641AB0F90610B0F90200641E081A2E
:10535000361A6846761EFBF789FC324621462846F7
:10536000FFF732FFF8BD00000EB50E48006890F858
:10537000541009B10C4811E0806CFBF755FC00900B
:10538000D0E90010CDE901106846FBF76FFC074833
:10539000816A11B101A800F01BF801A803F09CF983
:1053A0000EBD00002C000020647B0020B000002017
:1053B00002490A680260086070470000C4000020CB
:1053C0000B46B0F90220B0F900101846FCF739BBC3
:1053D00038B50C4605462046FBF726FC01460090F2
:1053E00090F82800800703D46846FBF73FFC12E0E2
:1053F0002846FDF7D7F90098806920B10446684631
:10540000FBF734FCE7E76846FBF730FC204600F08A
:105410000FFE002801DA002038BD012038BDF8B5A4
:1054200005466846FCF738FC1AE001212046FCF7E7
:105430001FFC009981B178B10846FBF72FFC40684A
:10544000A84209D169462046009EFCF739FC044673
:105450003046FFF7D4FC04E069462046FCF730FCF8
:105460000446002CE1D1F8BD38B50446FBF7DCFB5F
:105470000090816941B1026A00F0B6F9204600F05F
:10548000F9FA0099002088616846FBF7EFFB38BD08
:1054900038B50C4600280AD0002C08D0FBF7C4FB16
:1054A0002146009000F004F86846FBF7DFFB38BDAA
:1054B00000224A800A8082880388D21A8A80C288A1
:1054C0004088101AC880704710B5FFF76CFD00289F
:1054D00002D0FBF7E3FBC06910BD00000D4810B51A
:1054E000006890F85400002806D00B4C6069012831
:1054F00003DD401E6061002010BD2069401C20615A
:1055000002F0A0F918B1FFF72FFF012010BD60696C
:10551000EFE700002C0000205C7B002070B5054602
:10552000FFF7D2FF08E0AC4201D1002406E0FBF710
:10553000B5FB006AA84201D00400F4D1204670BD3A
:1055400010B50446FBF7AAFB80690028F9D1204674
:10555000BDE8104000F06CBDF0B5384E074687B08E
:10556000306890F8541041B1354C6169491C616153
:10557000012905DD012007B0F0BDFFF7F5FEF9E7D1
:10558000806CFBF751FB2F4D4FF0FF3100902161F4
:10559000297821B181680291C068039007E090F8F2
:1055A000281089073CD5D0E90010CDE902101FB1C1
:1055B000394602A8FDF7F6F83068406C78B30098D9
:1055C00004903068406C0168059140680690A86AB4
:1055D00030B104A8FBF74AFBA86AFBF725FB04904F
:1055E00005A90498FFF7ECFE05A902A8FDF7DAF873
:1055F0000DF11000FBF73AFBA96A19B102A8FFF7F9
:10560000E7FEB0B13068816C02A8FFF7E1FE80B11F
:10561000DDE90201C4E90001FFF760FFABE706E046
:105620006069401E60616846FBF720FB04E0684645
:10563000E0E76069401E606100209CE72C000020CC
:105640005C7B0020B0000020FEB50D00044647D072
:10565000FBF7EAFA00900021856101622846FBF71A
:10566000E3FA00990290C56991F8281001F0080644
:105670002DB12846FBF7D8FA019036B115E0C46188
:105680006846FBF7F3FA02A828E090F82800000724
:105690000BD5009805620298C4616846FBF7E6FAEC
:1056A00002A8FBF7E3FA01A818E002A8FBF7DEFA6C
:1056B00001A8FBF7DBFA2846FBF7F0FA11E00462D9
:1056C0000BE02846FBF7EAFA5EB990F828100907C4
:1056D00007D501980462009805626846FBF7C6FA90
:1056E000FEBD0190056A002DEBD1E8E7202202F013
:1056F000ADBC000038B5040022D0FBF795FA00904D
:1057000090F82810890718D5406A40B10D49C96A38
:10571000A14204D0FBF74CFE0099002048622046CD
:10572000FFF73AFC044606E02046FFF7E3FF204679
:10573000FBF7B4FA046A002CF6D16846FBF796FA38
:1057400038BD0000B000002070B5064615460C4676
:105750000846FBF7A3FA806AC00302D54FF48043E2
:1057600000E020232A4621463046BDE87040AFF3D2
:1057700000802DE9FF419846164607460D0031D0BE
:105780000846FBF751FA0090846A0246A00726D526
:10579000394601A8FDF723F808B340F6010004409C
:1057A000012C07D0424601A9284602F04FFC009880
:1057B000C46912E000984346026A816901A8FFF7B4
:1057C000D8FFF4E7B4420AD0424601A92046FFF7C9
:1057D000A5FC2046FBF762FA046A002CF2D1684669
:1057E000FBF744FABDE8FF812023FFF7C2BF0000AA
:1057F00010B504460648006906E0A04201D1012028
:1058000010BDFBF74BFA40690028F6D110BD00002F
:10581000B0000020F0B58BB006004FF00000154638
:105820000C4604900590069007903ED054EA05007F
:105830003BD03046FBF7F8F90090D0E90012CDE9F3
:1058400002122A462146FCF7FCF800982A46214617
:105850000830FCF7F6F80098C7696846FBF706FAC7
:105860002A462146384602F066FC3046FBF7DCF952
:10587000009090F8281089070AD5816941B1026A21
:10588000FFF762FF0098026A816902A8FFF75CFFD8
:105890006846FBF7EBF90320049007AA08A882E802
:1058A000310004A9304600F00FF90BB0F0BD000044
:1058B0002DE9F14187B000250798FBF7B5F9019074
:1058C000D0E90212CDE9031207698669846A01A84A
:1058D000FBF7CCF944F2200814EA080F30D0DFB10E
:1058E00003A80799FFF774FDB0B10798FFF7E2FC32
:1058F00060070DD556B144F30000401C0090002312
:1059000007AA114903A8FBF773FD05E00120F5E79D
:10591000079800F063F801250798FBF785F90190D7
:10592000816A21EA080181628A0402D541F00401FA
:10593000816201A8FBF79AF904498888401E888093
:1059400008B02846BDE8F08165940008B00000204A
:10595000F0B589B00546FBF767F90290866A0469DD
:10596000D0E90210CDE9001002A8FBF77FF9002C66
:1059700030D0B0072ED52E212846FFF7B9FC164CA3
:105980006F462078401C2070F0044FF00F0609D5B8
:10599000CDE904650797FFF7BDFC04A9284600F090
:1059A00093F810E03846FFF7D7FD0AE0CDE904652B
:1059B0000797FFF7AFFC04A9284600F085F8FFF72A
:1059C0008DFD0028F2D120782F21401E207028461E
:1059D000FFF78EFC09B0F0BDB000002038B50446DA
:1059E000FBF722F90090806A40F601010840012887
:1059F00005D06846FBF73AF9204602F03BFC144814
:105A0000406A002823D0204602F08CFC2046FBF799
:105A100045F98569046A18E02046FBF73FF990F8DC
:105A20002800C043800702D1204602F035FC204602
:105A300002F078FC2046FBF731F9046A002CEBD128
:105A40002846FBF72BF98569046A002DF6D138BD8D
:105A5000B0000020B0F90010B0F90420914205DC3C
:105A6000B0F90210B0F90600814201DD0020704754
:105A70000120704770B50646FBF710F905468069AE
:105A8000002809D0FBF70AF90446C069B0420ED1DC
:105A9000FBF704F9006AE06170BD00BFFBF7FEF898
:105AA0000146006AB04202D1286A086270BD00282F
:105AB000F4D170BD10B5FFF743FD002803DBBDE84E
:105AC0001040FCF749B810BD70B50D4C06460D46A8
:105AD000206814280DDA3046FBF7E0F801696E60A3
