:020000040800F2
:10000000A0100020450100081B1800082D1500084D
:10001000191800089D020008C31A0008000000001B
:100020000000000000000000000000005701000870
:100030009F020008000000005B0100083D18000856
:100040005F0100085F0100085F0100085F01000810
:100050005F0100085F0100085F0100085F01000800
:100060005F0100085F0100085F0100085F010008F0
:100070005F0100085F0100085F0100085F010008E0
:100080005F0100085F0100085F0100085F010008D0
:100090005F0100085F0100085F0100085F010008C0
:1000A0005F0100085F0100085F0100085F010008B0
:1000B0005F0100085F0100085F0100085F010008A0
:1000C0005F0100085F0100085F0100085F01000890
:1000D0005F0100085F0100085F0100085F01000880
:1000E0005F0100085F0100085F0100085F01000870
:1000F0005F0100085F0100085F0100085F01000860
:100100005F0100085F0100085F0100085F0100084F
:100110005F0100085F0100085F0100085F0100083F
:100120005F0100085F0100085F0100085F0100082F
:10013000DFF80CD000F06CF800480047811F000881
:10014000A01000200648804706480047FEE7FEE76B
:10015000FEE7FEE7FEE7FEE7FEE7FEE7FEE7FEE777
:10016000A918000831010008202A04DB203A21FAEE
:1001700002F00021704721FA02F3D040C2F12002C0
:1001800091400843194670470649074A086850439A
:1001900043F2390210440860400870470149086082
:1001A00070470000140000206D4EC6412DE9F05F3D
:1001B0000546002092469B468846064681464024D6
:1001C0001BE02846414647462246FFF7CDFF5346EF
:1001D0005A46C01A914110D311461846224600F0E3
:1001E00029F82D1A67EB01084F462246012000210D
:1001F00000F020F817EB00094E41201EA4F1010485
:10020000DFDC484631462A464346BDE8F09F000001
:10021000064C074D06E0E06840F0010394E8070053
:1002200098471034AC42F6D3FFF786FF0C20000845
:100230002C200008202A04DB203A00FA02F10020DA
:1002400070479140C2F1200320FA03F31943904014
:100250007047000038B501F0ABFA01F021FA0E4CFE
:1002600020602068A0F5A901663904D02068A0F5B7
:100270000041663901D101F05AF900204FF4F073C2
:100280004FF4A0720146009001F0D3F9142000F061
:10029000C3F8206838BD000008000020FEE7FEE734
:1002A00070B5B3F5804F05D06FF0704140F8221063
:1002B000002070BD8C690B68F025234395FAA5F5E5
:1002C0004C68B5FA85F5AC404FF47F4696FAA6F631
:1002D0008D68B6FA86F6B5402C4323434FF470245C
:1002E000C96894FAA4F4B4FA84F4A1400B4350F81A
:1002F0002210034C21400B4340F82230D8E7000085
:100300000000F0CF30B50A6850F8223023F0010326
:1003100040F822308A68214C082A1ED04B681343CB
:10032000D1E903252A4313434A6913438A691343D6
:10033000CA6913430A6A13434A6A13438A6A134316
:10034000CA6A13430A6B0968134350F821202240FC
:10035000134340F82130002030BDD1E903354A680D
:100360002B4342F008021A434B691A438B691A4324
:10037000CB691A430B6A1A434B6A1A438B6A1A43B6
:10038000CB6A1A430B6B09681A4350F8213023409B
:100390001A4342F0400240F82120DCE78100F7FFD9
:1003A00070B5F025D1E9003495FAA5F5B5FA85F5D3
:1003B000AC4023434FF47F4595FAA5F58C68B5FA18
:1003C00085F5AC404FF4702696FAA6F6CD68B6FADD
:1003D00086F6B5402C4323430C694FF4700595FA1B
:1003E000A5F5641EB5FA85F5AC4023434C694FF082
:1003F000706595FAA5F5A41EB5FA85F5AC40896936
:1004000023430B43521C50F8221001F040410B4390
:1004100040F82230002070BD31B500F099F9044653
:1004200000F096F90099001B8842F9D338BD00000E
:10043000F0B585B03848416800296BD10126466087
:100440003648816941F480718161816901F480716C
:100450000091816941F080018161816901F0800131
:100460000091816941F080018161816901F0800121
:100470000091816941F080018161816901F0800111
:100480000091816941F040018161816901F0400181
:100490000091816941F020018161816901F02001B1
:1004A0000091416941F480714161406900F48070BC
:1004B000009001960224029403250495184F01A987
:1004C000384600F035F8E00201900294049501A945
:1004D000144800F02DF84FF68070019002940495B6
:1004E00001A9114800F024F84CF2337001900294F5
:1004F000049501A90D4800F01BF865020022294669
:10050000384600F01DF901950296049401A9384679
:1005100000F00EF805B0F0BD080000200010024009
:10052000001C01400020014000180140001401405F
:100530002DE9F84F00230024DFF8DC914FF00F087D
:1005400009F1040A0AF1040B0BF1040E0127A7407C
:100550000A683A40BA4275D1DFF8C0C14D68A5EBD0
:100560000C0665452BD00DDC032D34D005DC35B3EE
:10057000012D19D0022D2FD11BE0112D16D0122DD7
:100580002AD119E0B6F5881F19D006DCB6F5803FF0
:1005900015D0B6F5801F1FD111E0B6F5001F0ED0A3
:1005A000B6F5041F18D10AE0CB6815E0CB681B1D17
:1005B00012E0CB6808330FE0CB680C330CE08B689B
:1005C00023B1012B04D00823476105E0042303E095
:1005D0000823076100E00023FF2A01D8054601E057
:1005E00000F1040502D84FEA840603E0A4F10806EE
:1005F0004FEA86062F6808FA06FC27EA0C0703FA7A
:1006000006F647EA06072F604D68ED007ED5444D9B
:10061000AE6946F00106AE61AD6905F001050095D1
:10062000404D24F003067719BE68A5072D0F08FA80
:1006300005FC26EA0C06DFF8F0C0604503D14FF058
:10064000000C25E062E0DFF8E4C0604502D14FF025
:10065000010C1DE0DFF8D8C0604502D14FF0020C5C
:1006600016E0DFF8D0C0604502D14FF0030C0FE078
:10067000DFF8C4C0604502D14FF0040C08E0DFF899
:10068000BCC0604502D14FF0050C01E04FF0060CF4
:100690000CFA05FC4CEA060CC7F808C04D68ED03DF
:1006A00005D5D9F800501543C9F8005004E0D9F831
:1006B00000509543C9F800504D68AD0305D5DAF8F0
:1006C00000501543CAF8005004E0DAF80050954392
:1006D000CAF800504D68ED0205D5DBF8005015430F
:1006E000CBF8005004E0DBF800509543CBF8005005
:1006F0004D68AD0205D5DEF800501543CEF8005028
:1007000004E0DEF800509543CEF80050641C102C35
:10071000FFF41CAFBDE8F88F000401400000111089
:10072000001002400000014000080140000C0140A0
:10073000001001400014014000180140001C01405D
:10074000002A01D00161704709040161704700006F
:10075000014800687047000004000020024801685A
:10076000491C0160704700000400002010B50748D4
:10077000016841F010010160032000F069F80020D9
:1007800000F006F800F016F8002010BD002002402E
:1007900010B5044600F0CAF94FF47A72B0FBF2F0DB
:1007A00000F0E3FD00222146501E00F031F8002049
:1007B00010BD000008B51548816941F00101816153
:1007C000806900F001000090052000F041F800224F
:1007D00011466FF00B0000F01BF8002211466FF07D
:1007E0000A0000F015F8002211466FF0090000F031
:1007F0000FF800221146101F00F00AF80022BDE891
:1008000008401146501E00F003B8000000100240DE
:10081000F0B40D460D4B1B68C3F30223C3F107046C
:10082000042C00D90424191D072901D2002300E05B
:10083000DB1E012606FA04F1491E294099409E401C
:10084000761E16403143F0BC00F0E8BF0CED00E02E
:1008500000F00701054A10684FF6FF03184040EA10
:100860000120034908431060704700000CED00E0D0
:100870000000FA052DE9F04704460F46DFF8A49280
:10088000D9F80000A84D00F00701012043044606F6
:100890004FF0020C41F28838B9426FD2D9F80010FB
:1008A00021F007013943C9F80010D9F8001001F010
:1008B0000701B94201D0BDE8F0872178890705D545
:1008C0006968A26821F0F001114369602178C907C5
:1008D00061D0616801290BD002291FD09CFAACF2CB
:1008E000B2FA82F242F0200252092DD02A682CE09E
:1008F00093FAA3F2B2FA82F242F02002520901D036
:100900002A6800E06A6A93FAA3F3B3FA83F303F068
:100910001F039840024223D10120CCE796FAA6F2A9
:10092000B2FA82F242F02002520901D02A6800E0B5
:100930006A6A96FAA6F3B3FA83F303F01F039840AA
:1009400002420DD10120B6E76A6A9CFAACF3B3FA11
:1009500083F303F01F039840024201D10120AAE76C
:10096000686820F0030008436860FFF7F1FE064660
:10097000606801280AD0022815D021E025E0FFF7A1
:10098000E7FE801B404501D9032094E76868C0F367
:1009900081000128F3D1ADE0FFF7DAFE801B40456E
:1009A00001D9032087E76868C0F381000228F3D1EA
:1009B000A0E0FFF7CDFE801B404501D903207AE778
:1009C000686810F00C0FF4D194E02178890705D500
:1009D0006968A26821F0F001114369602178C907B4
:1009E00079D0616801290BD002291FD09CFAACF2A2
:1009F000B2FA82F242F0200252092DD02A682CE08D
:100A000093FAA3F2B2FA82F242F02002520901D024
:100A10002A6800E06A6A93FAA3F3B3FA83F303F057
:100A20001F039840024223D1012044E796FAA6F220
:100A3000B2FA82F242F02002520901D02A6800E0A4
:100A40006A6A96FAA6F3B3FA83F303F01F03984099
:100A500002420DD101202EE76A6A9CFAACF3B3FA88
:100A600083F303F01F039840024201D1012022E7E3
:100A7000686820F0030008436860FFF769FE0646D7
:100A80006068012809D0022814D020E0FFF760FE3A
:100A9000801B404501D903200DE76868C0F3810041
:100AA0000128F3D117E0FFF753FE801B404501D921
:100AB000032000E76868C0F381000228F3D10AE050
:100AC000FFF746FE801B404501D90320F3E6686826
:100AD00010F00C0FF4D1D9F8000020F007003843D3
:100AE000C9F80000D9F8000000F00700B84201D0B2
:100AF0000120E0E62078400705D56868E16820F429
:100B0000E060084368602078000706D568682169BE
:100B100020F4605040EAC10068600020FFF738FE12
:100B20000020C8E6002002400010024000B500F09E
:100B300043F808494968F02292FAA2F201F0F00164
:100B4000B2FA82F2D140044A515CC84003490860BD
:100B500000BD000000100240FC1F00080000002043
:100B600000B5FFF7E3FF074949684FF4E06292FAE6
:100B7000A2F201F4E061B2FA82F2D140024A515C81
:100B8000C84000BD00100240FC1F000800B5FFF780
:100B9000CDFF074949684FF4605292FAA2F201F47E
:100BA0006051B2FA82F2D140024A515CC84000BDA5
:100BB00000100240FC1F000810B585B01AA0D0E953
:100BC0000031D0E90220CDE90131CDE903201AA09E
:100BD00000680090194B5968194801F00C02042A6A
:100BE0001DD0082A1BD14FF4701494FAA4F401F418
:100BF0007012B4FA84F4E24001ACA25CC90310D5CF
:100C000059684FF4003393FAA3F301F40031B3FAB7
:100C100083F3D9401DF80110B0FBF1F0504305B04B
:100C200010BD08485043FAE7020304050607080907
:100C30000A0B0C0D0E0F10100102000000100240F4
:100C400000127A0000093D002DE9F84F0446F94DE5
:100C500020784FF00106C00775D068687704C0F3AC
:100C60008100012807D06868C0F3810002281DD1E7
:100C70006868C0031AD597FAA7F0B0FA80F040F080
:100C80002000400901D0286800E0686A97FAA7F1BF
:100C9000B1FA81F101F01F0206FA02F1084252D0C6
:100CA000606800284FD10120BDE8F88F286820F443
:100CB00080302860286820F480202860FFF748FDF5
:100CC000804607E0FFF744FDA0EB0800642801D947
:100CD0000320E9E797FAA7F0B0FA80F040F020008F
:100CE000400901D0286800E0686A97FAA7F1B1FAD4
:100CF00081F101F01F0106FA01F10842E2D16068BA
:100D0000B0F5803F11D0A8B1B0F5A02F1CD0286855
:100D100020F480302860286820F4802028606068F3
:100D2000C8B3FFF715FD80461FE0286840F4803007
:100D30002860F4E7286820F480302860286820F4D0
:100D400080202860EBE748E0286840F48020286095
:100D5000286840F480302860E1E7FFF7F9FCA0EB59
:100D60000800642801D903209EE797FAA7F0B0FA9B
:100D700080F040F02000400901D0286800E0686A57
:100D800097FAA7F1B1FA81F101F01F0106FA01F11A
:100D90000842E2D021E0FFE7FFF7DAFC804607E0F7
:100DA000FFF7D6FCA0EB0800642801D903207BE7FD
:100DB00097FAA7F0B0FA80F040F02000400901D087
:100DC000286800E0686A97FAA7F1B1FA81F101F0AA
:100DD0001F0106FA01F10842E2D12078DFF85882BB
:100DE00080074FF0000B4FF0020732D568684FF0D4
:100DF000F80A10F00C0F07D06868C0F381000228D1
:100E000028D16868C00325D497FAA7F0B0FA80F01B
:100E100040F02000400901D0286800E0686A97FA95
:100E2000A7F1B1FA81F101F01F0106FA01F10842C0
:100E300004D02069012801D0012035E728689AFAFA
:100E4000AAF26169B2FA82F220F0F80091400843F8
:100E500028605CE0206990B396FAA6F0B0FA80F0C2
:100E600048F82060FFF774FC814607E0FFF770FC4C
:100E7000A0EB0900022801D9032015E797FAA7F093
:100E8000B0FA80F040F02000400901D0286800E06E
:100E9000686A97FAA7F1B1FA81F101F01F0106FA29
:100EA00001F10842E2D028689AFAAAF26169B2FA1E
:100EB00082F220F0F80091400843286027E0FFE725
:100EC00096FAA6F0B0FA80F048F820B0FFF740FCA0
:100ED000814607E0FFF73CFCA0EB0900022801D99E
:100EE0000320E1E697FAA7F0B0FA80F040F0200086
:100EF000400901D0286800E0686A97FAA7F1B1FAC2
:100F000081F101F01F0106FA01F10842E2D12078D7
:100F1000000770D5A069C0B396FAA6F0B0FA80F0C9
:100F200008EB8000C0F88064FFF712FC814607E000
:100F3000FFF70EFCA0EB0900022801D90320B3E65D
:100F400097FAA7F0B0FA80F040F06000B6EB501FBF
:100F500001D128680BE097FAA7F0B0FA80F040F0D2
:100F60006000B7EB501F01D1286A00E0686A97FA69
:100F7000A7F1B1FA81F101F01F0206FA02F108426D
:100F8000D6D00120FFF748FA35E0FFE796FAA6F041
:100F9000B0FA80F008EB8000C0F880B4FFF7D8FB0F
:100FA000814607E0FFF7D4FBA0EB0900022801D936
:100FB000032079E697FAA7F0B0FA80F040F06000DD
:100FC000B6EB501F01D128680BE097FAA7F0B0FAF2
:100FD00080F040F06000B7EB501F01D1286A00E0BC
:100FE000686A97FAA7F1B1FA81F101F01F0206FAD7
:100FF00002F10842D6D12078400770D5E86940F068
:101000008050E861E86900F080500090DFF82CA083
:10101000DAF8000040F48070CAF80000FFF798FB8F
:1010200081460DE0FFF794FBA0EB0900642807D987
:10103000032039E6001002400000424200700040E8
:10104000DAF80000C005EDD5286A20F0010028621A
:10105000286A20F004002862FFF77AFB814641F2FB
:10106000883A07E0FFF774FBA0EB0900504501D96F
:10107000032019E697FAA7F0B0FA80F040F040009C
:10108000B6EB501F01D128680BE097FAA7F0B0FA31
:1010900080F040F04000B7EB501F01D1286A00E01B
:1010A000686A97FAA7F1B1FA81F101F01F0106FA17
:1010B00001F10842D6D1E068012811D0A8B1052875
:1010C0001CD0286A20F001002862286A20F0040061
:1010D0002862E068C8B3FFF73BFB81461FE06EE083
:1010E000286A40F001002862F3E7286A20F0010036
:1010F0002862286A20F004002862EAE7286A40F0A3
:1011000004002862286A40F001002862E1E7FFF746
:101110001FFBA0EB0900504501D90320C4E597FA55
:10112000A7F0B0FA80F040F04000B6EB501F01D1BC
:1011300028680CE097FAA7F0B0FA80F040F0400081
:10114000B7EB501F02D1286A01E00BE0686A97FAFA
:10115000A7F1B1FA81F101F01F0206FA02F108428B
:10116000D5D02CE0FFF7F4FA814607E0FFF7F0FA5C
:10117000A0EB0900504501D9032095E597FAA7F0A7
:10118000B0FA80F040F04000B6EB501F01D1286863
:101190000BE097FAA7F0B0FA80F040F04000B7EB10
:1011A000501F01D1286A00E0686A97FAA7F1B1FAE6
:1011B00081F101F01F0206FA02F10842D6D1E0697E
:1011C00080B36968C1F38101022970D04FF0807942
:1011D0004FF00077022809D099FAA9F0B0FA80F010
:1011E00048F820B0FFF7B4FA044668E099FAA9F08D
:1011F000B0FA80F048F820B0FFF7AAFA824607E07C
:10120000FFF7A6FAA0EB0A00022801D903204BE55C
:1012100097FAA7F0B0FA80F040F02000400902D021
:10122000286801E060E0686A97FAA7F1B1FA81F1F5
:1012300001F01F0106FA01F10842E1D1206AB0F580
:10124000803F05D16868A16820F4003008436860D9
:10125000D4E908010843696821F4741108436860FF
:1012600099FAA9F0B0FA80F048F82060FFF770FA18
:10127000044606E0FFF76CFA001B022801D90320A0
:1012800012E597FAA7F0B0FA80F040F0200040098C
:1012900001D0296800E0696A97FAA7F0B0FA80F0F7
:1012A00000F01F0006FA00F00142E3D01CE01DE050
:1012B000FFF74EFA001B022801D90320F4E497FA45
:1012C000A7F0B0FA80F040F02000400901D0296872
:1012D00000E0696A97FAA7F0B0FA80F000F01F000A
:1012E00006FA00F00142E3D10020DDE40120DBE456
:1012F00070B504460E461546002C03D094F83D0008
:1013000010B107E0012070BD002084F83C002046A9
:1013100000F01AF804F108012068FEF7F3FF3146E7
:10132000A2682068FFF73CF8D4E901022946236B44
:10133000FEF7B6FFA168206850F8212042F00102B4
:1013400040F82120002070BDFFF772B84FF0E02177
:10135000042804D0086920F0040008617047086977
:1013600040F0040008617047704710B5401EB0F1AE
:10137000807F01D3012010BD4FF0E02460610F2178
:10138000601700F04BFA0020A061072020610020C8
:1013900010BD10B5FFF7E8FF10BD70B50446002C76
:1013A00004D094F83900002510B106E0012070BD8A
:1013B00084F83850204600F021F8022084F83900E3
:1013C0002068C16821F40051C160204600F090FA05
:1013D0002068016921F4904101612068416921F090
:1013E0002A0141612068C16841F40051C160E56390
:1013F000012084F83900002070BD000010B586B0CF
:101400000068114988421DD11048816941F480412A
:101410008161806900F4804001904FF40070029077
:101420000220039003200590094C02A92046FFF7F3
:101430007FF82115029100210391049102A9204611
:10144000FFF776F806B010BD0038014000100240EA
:10145000000801402DE9F04104460D46984694F8F5
:101460003900012804D0222802D00220BDE8F081F2
:101470009DB192B194F83800012810D0012684F86B
:1014800038600027E76394F83900222809D0122039
:1014900084F83900A284E2842EE00120E6E70220ED
:1014A000E4E7322084F83900F4E7401EE084A068C5
:1014B000B0F5805F08D0434600228021204600F02E
:1014C0009DFAA8B10320D1E743460022802120469F
:1014D00000F094FA08B10320C8E728882168C0F317
:1014E00008004860206908B16D1C05E0AD1C03E0F0
:1014F000216815F8010B4860E08C0028D5D14346DF
:1015000000224021204600F079FA08B10320ADE71F
:1015100094F83900322805D084F8396084F838709E
:101520000020A3E7222084F83900F7E7FEE72DE941
:10153000F0414FF0D844E020208000206080072157
:1015400061801021618009216180172363800B2253
:10155000628041266680892262804B2262800A2254
:1015600062800C2565800E256580182767801B2703
:1015700067800F2767804FF0E10CA4F800C06080FF
:1015800063801A2363804FF0040CA4F802C06580C6
:10159000062363802F236380452363804323638076
:1015A00002236380628061803225658036256580F4
:1015B0006780F7252580A9256580512565802C2524
:1015C000658082256580C025258011256580618024
:1015D000C12121806680C5212180608062808021B8
:1015E0006180B1212180B02161806580B42121809A
:1015F0006380B6212180638022216180B721218010
:10160000C6216180BE2121806080A4F802C0E9214A
:1016100021806080012000F056F83A20208055207B
:10162000608025807820FEF7F7FE29202080BDE825
:10163000F08170B51446049E1D462B46224600F0EC
:1016400013F804FB05F03146BDE87040AFF30080AD
:1016500010B500224FF0D8432C241C8001E05980A3
:10166000521C8242FBD310BD30B54FF0D8442A251E
:101670002580050A6580C5B265801044401E020AB7
:101680006280C0B260802B202080080A6080C8B2CF
:101690006080C818401E010A6180C0B2608030BD01
:1016A0000CB54FF0D840042101804188ADF80010FE
:1016B0004188C9B24288D2B24088C0B2090401EB65
:1016C000022108440CBDF0B5002201232A263F2444
:1016D0002B25DF274FF0360C4FF0D841012806D0DC
:1016E000022813D0032820D004283BD12CE0A1F8F5
:1016F00000C0082048800E804A804A804B804C8081
:101700000D804A804A804B804F802BE0A1F800C0BA
:10171000682048800E804A804A804B804F800D8030
:101720004A804A804B804C801CE0A1F800C0C82051
:1017300048800E804A804A804B804C800D804A80D1
:101740004A804B804C800DE0A1F800C0A820488062
:101750000E804A804A804B804F800D804A804A80AC
:101760004B804C802C200880F0BD000082B00D48DA
:10177000816941F004018161806900F004000190F9
:101780000A48094901604FF4E1314160002181605C
:10179000C16001610C2242618161C16102B0FFF749
:1017A000FCBD000000100240003801401C00002079
:1017B00000B587B015484FF02041016014494160E1
:1017C000062181600021C1600161102242618161B6
:1017D000C1610162416212028262C16201634163BE
:1017E00081630220009001910520029003910491F1
:1017F000059106916A4669460448FFF779FD054858
:10180000C16941F48061C16107B000BD5C00002086
:10181000040100A000000140FEE770470907090E1F
:10182000002806DA00F00F0000F1E02080F8141D17
:10183000704700F1E02080F80014704710B5FEF703
:101840008DFFBDE81040FFF7A4BD30B58FB001207B
:101850000590000406900024079402250C950D9035
:101860004FF4E0100E9005A8FFF7EEF90F2000905E
:101870000195029468020390049402216846FEF7E1
:10188000F9FFFFF753F94FF47A71B0FBF1F0FFF76E
:101890006CFD0420FFF75AFD00221146501EFEF792
:1018A000B7FF0FB030BD00000D48016841F00101E5
:1018B000016041680B4A1140416001680A4A1140C9
:1018C0000160016821F480210160416821F4FE017A
:1018D00041604FF41F0181600449C00308607047F4
:1018E000001002400000FFF8FFFFF6FE08ED00E0E8
:1018F0002DE9F041044620680169E26821F4405175
:1019000011430161A16820690143606901432068B6
:10191000C26841F20C639A430A43C260206841697D
:10192000A26921F440711143416133492068642563
:101930003226884230D1FFF729F900EBC00101EBD4
:10194000001061688900B0FBF1F0B0FBF5F7FFF71C
:101950001DF900EBC00101EB001061688900B0FBCC
:10196000F1F8FFF713F900EBC00101EB001061681B
:101970008900B0FBF1F0B0FBF5F06FF018014843BF
:1019800008EB800006EB0010B0FBF5F0216867F370
:101990001F108860BDE8F081FFF7E2F800EBC0019E
:1019A00001EB001061688900B0FBF1F0B0FBF5F7C6
:1019B000FFF7D6F800EBC00101EB00106168890069
:1019C000B0FBF1F8FFF7CCF800EBC00101EB001021
:1019D00061688900B0FBF1F0B0FBF5F06FF0180121
:1019E000484308EB800006EB0010B0FBF5F02168DF
:1019F00067F31F108860CDE7003801402DE9F047FC
:101A000004460F4692461D46FEF7A2FE06464FF0DC
:101A100000084FF00109BAF1000F23D04AE0681C1A
:101A200020D025B1FEF794FE801BA8421AD9206869
:101A3000C16821F08001C1602068C16821F02001E7
:101A4000C1602068C16821F48071C160206841696B
:101A500021F00101416184F8399084F83880032035
:101A6000BDE8F0872068006837EA0000D7D126E09B
:101A7000681C1FD025B1FEF76BFE801BA84219D948
:101A80002068C16821F08001C1602068C16821F030
:101A90002001C1602068C16821F48071C1602068A4
:101AA000416921F00101416184F8399084F838805E
:101AB0000320D5E72068006837EA0000D8D000206E
:101AC000CEE7FEE70FB4054B10B503A9044A029810
:101AD00000F018F810BC5DF814FB0000691F000846
:101AE0001800002002E008C8121F08C1002AFAD11D
:101AF00070477047002001E001C1121F002AFBD18E
:101B0000704700002DE9FF4F8DB00F4605460026B7
:101B100006E025280BD0DDE90F1290476D1C761CDE
:101B200028780028F5D111B03046BDE8F08F0024A8
:101B3000A246A1460122EC4900E0044315F8013F0A
:101B4000203B02FA03F00842F7D128782A2810D067
:101B50006FF02F022878A0F13001092914D80AEB80
:101B60008A0102EB410144F0020400EB010A6D1C02
:101B7000F0E701CF5FEA000A03D544F40054CAF14C
:101B8000000A44F002046D1C28782E2817D115F89D
:101B9000010F44F004042A280ED06FF02F02287899
:101BA000A0F1300109290AD809EB890102EB4101B2
:101BB00000EB01096D1CF2E757F8049B6D1C2878B7
:101BC0006C280FD006DC4C2817D068280DD06A2866
:101BD00014D104E0742810D07A280FD10DE044F419
:101BE00000140AE044F4801401E044F440146978DD
:101BF000814202D104F580146D1C6D1C2A786E2A76
:101C00001FD00CDC632A31D004DC002A8BD0582A88
:101C100011D1A3E0642A68D0692A0CD165E0732A47
:101C20002ED004DC6F2A73D0702A04D19BE0752A71
:101C30006FD0782A6ED01046DDE90F129047761CDF
:101C400050E1C4F30250022806D0032809D004282A
:101C500001CF09D0066045E101CFF117C0E900616D
:101C600040E101CF06803DE106703BE117F8040B2F
:101C70008DF8000000208DF80100EB46012003E004
:101C800057F804BB4FF0FF3061074FF0000102D45A
:101C90000DE008F10101884649450FDA8045F8DB7F
:101CA0001BF808100029F4D108E008F1010188466A
:101CB0008142FADB1BF808100029F6D1DDE90F2379
:101CC000AAEB08008146214600F036F9304400EBCB
:101CD000080604E0DDE90F121BF8010B9047B8F18C
:101CE0000108F7D221464846F7E00A21C4F302531F
:101CF0004FF0000B0891022B04D001CFC117032B2A
:101D000009D00AE0FF1D27F00707F7E8020108E005
:101D100032E01FE020E000B2C117042B01D140B235
:101D2000C117031E71F1000307DA4FF0000CD0EB6E
:101D30000C006CEB01012D2302E0230504D52B23BD
:101D40008DF82430012303E0E30701D02023F7E7D7
:101D5000984658E00A2110E010210EE010204FF0C4
:101D6000000B08900CE010214FF0000B44F004042D
:101D70004FF00809089103E008214FF0000B08918B
:101D8000C4F30253022B04D001CF0021032B06D051
:101D900006E0FF1D27F00707F7E8020103E080B225
:101DA000042B00D1C0B24FF0000823072BD5702AB6
:101DB00007D0DDF820C08CF0100C5CEA0B0C05D0CD
:101DC0000EE040238DF82430012308E050EA01039F
:101DD00006D030238DF824308DF825200223984634
:101DE000DDF820C08CF0080C5CEA0B0C0BD150EA3B
:101DF000010301D1630706D530238DF824304FF05D
:101E00000108A9F10109582A04D038A20B9208AAA6
:101E10000A920BE03AA2F9E75B46089AFEF7C6F988
:101E20000B9B9B5C0A9A521E0A92137050EA0102A5
:101E3000F2D10A98ADEB000000F1200B600702D54B
:101E400024F4803401E04FF00109D94502DDA9EB0B
:101E50000B0000E0002000EB0B0141440890AAEBCE
:101E6000010AE00306D4DDE90F232146504600F0C5
:101E700063F806444FF0000908E009A911F80900C9
:101E8000DDE90F12904709F10109761CC145F4DB29
:101E9000E0030CD5DDE90F232146504600F04CF855
:101EA000064404E0DDE90F1230209047761C0899C3
:101EB000481E08900029F5DC08E00A980A99007885
:101EC000491C0A91DDE90F129047761CBBF1000115
:101ED000ABF1010BF1DC21465046DDE90F2300F0A8
:101EE00019F806446D1C1BE6092801003031323315
:101EF0003435363738396162636465660000000046
:101F0000303132333435363738394142434445462F
:101F1000000000002DE9F041044600251E4617464A
:101F2000880404D405E039462020B0476D1C641EA7
:101F3000F9D52846BDE8F0812DE9F0410446002599
:101F40001E469046C80301D5302700E020278804AC
:101F500004D505E041463846B0476D1C641EF9D5EE
:101F60002846BDE8F081000013B54FF6FF7301224B
:101F700069460248FFF76EFA00981CBD1C0000205D
:101F800008B5FEF7F3FBFFF760FCFEF763F90446C4
:101F9000FFF7ECFB214614A0FFF794FD1F204FF440
:101FA000F0754FF4A074002100902B46224608469D
:101FB000FFF73FFB012291020F48FEF7C1FB4FF6EE
:101FC000FF70FEF7EBF84FF47A763046FEF724FA0E
:101FD000FEF7DAF880B2002100902B462246084630
:101FE000FFF727FBF1E700004C43442049443D3014
:101FF00078253038580A0000001C0140000000001D
:102000000102030401020304060708092C2000084A
:10201000000000201C000000E41A0008482000080E
:102020001C00002084100000F41A000800A24A04DA
:1020300000000000000000000000000000000000A0
:08204000000000000000000098
:0400000508000131BD
:00000001FF
