:020000040800F2
:100000006804002049010008C30D0008E50B000842
:10001000C10D0008B5010008AB0F0008000000008A
:10002000000000000000000000000000C70D0008F4
:10003000B701000800000000C50D0008C90D000848
:100040006301000863010008630100086301000800
:1000500063010008630100086301000863010008F0
:1000600063010008630100086301000863010008E0
:1000700063010008630100086301000863010008D0
:1000800063010008630100086301000863010008C0
:1000900063010008630100086301000863010008B0
:1000A00063010008630100086301000863010008A0
:1000B0006301000863010008630100086301000890
:1000C0006301000863010008630100086301000880
:1000D0006301000863010008630100086301000870
:1000E0006301000863010008630100086301000860
:1000F0006301000863010008630100086301000850
:10010000630100086301000863010008630100083F
:10011000630100086301000863010008630100082F
:10012000630100086301000863010008630100081F
:10013000DFF810D000F02CF8004800473510000818
:10014000AFF3008068040020064880470648004757
:10015000FEE7FEE7FEE7FEE7FEE7FEE7FEE7FEE777
:10016000FEE7FEE7310E000831010008D2B201E0DF
:1001700000F8012B491EFBD270470022F6E710B5AC
:1001800013460A4604461946FFF7F0FF204610BD05
:10019000064C074D06E0E06840F0010394E80700D4
:1001A00098471034AC42F6D3FFF7C6FFDC100008C6
:1001B000FC100008FEE7704772B6FEE770B5044613
:1001C00000F010F90546601C02D004480078044491
:1001D00000F008F9401BA042FAD370BD00000020D7
:1001E0002DE9F84FDFF8C8910024A9F1040B23464C
:1001F0000F2709F1040AABF1040ED1E00125A54057
:1002000006EA0502AA4276D1DFF8A8C14E68A6EB3D
:100210000C0866452BD00DDC032E34D005DC36B33C
:10022000012E19D0022E2FD11BE0112E16D0122E26
:100230002AD119E0B8F5881F19D006DCB8F5803F3F
:1002400015D0B8F5801F1FD111E0B8F5001F0ED0F2
:10025000B8F5041F18D10AE0CB6815E0CB681B1D68
:1002600012E0CB6808330FE0CB680C330CE08B68EE
:100270002BB1012B4FF0080303D0456104E00423A8
:1002800002E0056100E00023FF2A01D8064601E0F4
:1002900000F104064FEA840501D9A5F12005D6F83E
:1002A000008007FA05FC28EA0C0803FA05F548EA7D
:1002B0000508C6F800804D68ED0070D53E4DAE696A
:1002C00046F00106AE61AD6924F0030605F00105B4
:1002D00000953A4D06EB050CDCF80850A607360FE2
:1002E00007FA06F825EA0805DFF8D480404503D16F
:1002F0004FF0000825E052E0DFF8C880404502D109
:100300004FF001081DE0DFF8C080404502D14FF0FA
:10031000020816E0DFF8B480404502D14FF0030830
:100320000FE0DFF8AC80404502D14FF0040808E050
:10033000DFF8A080404502D14FF0050801E04FF002
:10034000060808FA06F848EA0508CCF808804D685F
:10035000D9F80060ED024D4601D5164300E0964302
:100360002E604D68DAF80060AD02554601D516439F
:1003700000E096432E604D68DBF80060AD035D46FB
:1003800001D5164300E096432E604D68DEF800600C
:10039000ED03754601D5164300E096432E60641CBC
:1003A0000A681646E2407FF429AFBDE8F88F0000E6
:1003B000080401400000111000100240000001403C
:1003C00000080140000C01400010014000140140F1
:1003D00000180140001C01400AB101617047090486
:1003E000FBE7000001488068704700000000002023
:1003F00070B5040013D021684CF6CC400860216829
:1004000045F255500860D4E9000141602168A068B8
:100410008860FFF7E7FF054641F23C360DE001201A
:1004200070BD00BFFFF7DEFF401BB04205D920685A
:10043000C068800701D0032070BD2068C0688007B5
:10044000F0D121684AF6AA200860002070BD00683B
:100450004AF6AA2101600020704700000248816826
:10046000027811448160704700000020074810B5F1
:10047000016841F010010160032000F067F80F20CF
:1004800000F006F800F024F8002010BD0020024023
:1004900070B50D4D04464FF47A712878B1FBF0F039
:1004A0000A490968B1FBF0F000F0CEFA48B9102C07
:1004B00007D200222146501E00F028F800206C6070
:1004C00070BD012070BD0000000000200C00002065
:1004D0000C4808B5816941F001018161816901F031
:1004E00001010091C16941F08051C161C06900F012
:1004F000805000900448416821F0E06141F00071B3
:10050000416008BD0010024000000140F0B40E4BF5
:100510001B680C46C3F30223C3F10705042D00D961
:100520000425191D072901D2002300E0DB1E012646
:1005300006FA05F1491E214099409E40761E16405C
:100540003143F0BC00F03ABD0CED00E0064900F08C
:10055000070208684FF6FF03184040EA0220034AEA
:1005600010430860704700000CED00E00000FA0541
:100570002DE9F0470F46050061D0434E306800F08A
:100580000700B84209D2306820F0070038433060D5
:10059000306800F00700B84251D128683B4C810711
:1005A00012D5400703D5606840F4E06060602878A9
:1005B000000703D5606840F4605060606068A96817
:1005C00020F0F000084360602878C00728D06868F1
:1005D000012810D02168022810D0890700292EDABE
:1005E000616821F0030101436160FFF7FBFE804673
:1005F00041F288390DE021688903EFE78901EDE7D1
:10060000FFF7F0FEA0EB0801494502D90320BDE841
:10061000F0876068696800F00C00B0EB810FEFD1E3
:10062000306800F00700B8420BD9306820F00700AE
:1006300038433060306800F00700B84201D0012034
:10064000E5E72878400705D56068E96820F4E060B0
:10065000084360602878000706D56068296920F49F
:10066000605040EAC100606000F038F86168084AF4
:10067000C1F30311515CC840064908600648006890
:10068000FFF706FF0020C2E70020024000100240F2
:10069000C21000080C000020040000200448054996
:1006A00000684968044AC1F30221515CC8407047A0
:1006B0000C00002000100240D21000080448054938
:1006C00000684968044AC1F3C221515CC8407047C0
:1006D0000C00002000100240D21000080E4A5168A1
:1006E0000E4801F00C03042B11D0082B0FD10C483D
:1006F000C1F38343C903C05C0AD55168084AC1F3FA
:100700004041921E515C054A5043B0FBF1F07047E6
:1007100004494843704700000010024000127A006C
:10072000B210000800093D002DE9F84F040070D018
:100730002078C04DC00749D06868C0F38100012807
:1007400007D06868C0F38100022809D16868C00337
:1007500006D52868800339D560680028E7D035E0E1
:100760006068B0F5803F0BD010B1B0F5A02F11D06C
:10077000286820F480302860286820F4802002E077
:10078000286840F480302860606890B1FFF72AFE46
:1007900006460AE0286840F480202860F0E700BFA1
:1007A000FFF720FE801B642873D828688003F7D5E4
:1007B0000CE0FFF717FE064605E000BFFFF712FE4C
:1007C000801B6428F0D828688003F7D420789A4EDC
:1007D00080074FF001094FF0000839D5686810F024
:1007E0000C0F07D06868C0F38100022809D168683F
:1007F000C00306D42868800714D52069012808D1D1
:1008000010E02069B0B1C6F80090FFF7EBFD074695
:1008100005E00AE1FFF7E6FDC01B0228C4D82868FE
:100820008007F7D52868616920F0F80040EAC10028
:1008300028600DE0C6F80080FFF7D4FD074604E00D
:10084000FFF7D0FDC01B022823D828688007F7D403
:10085000207800072CD57948A169D9B1C0F800905B
:10086000FFF7C0FD074604E0FFF7BCFDC01B0228F0
:100870000FD8686A8007F7D571484FF4FA510068BD
:10088000B0FBF1F0009000BF0098411E0091FAD239
:100890000EE080E0C0F80080FFF7A4FD074604E00A
:1008A000FFF7A0FDC01B022875D8686A8007F7D43F
:1008B0002078400760D5E8690027C00008D4E869BF
:1008C00040F08050E861E869012700F08050009016
:1008D0005C480168C90513D40168834641F48071FE
:1008E0000160FFF77FFD824606E000BFFFF77AFD5B
:1008F000A0EB0A0064284ED8DBF80000C005F5D54F
:10090000E06801280AD008B1052813D0286A20F031
:1009100001002862286A20F0040002E0286A40F002
:1009200001002862E06841F2883B98B1FFF75AFD68
:1009300082460BE0286A40F004002862EEE700BF20
:10094000FFF750FDA0EB0A0159455AD8286A8007E5
:10095000F6D50CE0FFF746FD824605E0FFF742FDC5
:10096000A0EB0A0159454CD8286A8007F6D41FB17C
:10097000E86920F08050E861E06988B36968C1F3F4
:100980008101022944D00228C6F8608004D0FFF714
:1009900029FD044638E034E0FFF724FD074604E073
:1009A000FFF720FDC01B02282BD828688001F7D450
:1009B000206AB0F5803F05D16868A16820F4003056
:1009C00008436860D4E908010843696821F4741198
:1009D00008436860C6F86090FFF704FD044606E02F
:1009E00025E000BFFFF7FEFC001B022809D828689D
:1009F0008001F7D51BE000BFFFF7F4FC001B0228C5
:100A000002D90320BDE8F88F28688001F4D40EE0F5
:100A10000128F7D06868226A00F48031914204D13D
:100A2000616A00F47010884201D00120EAE70020DA
:100A3000E8E7000000100240000042428004424209
:100A40000C0000200070004010B5401EB0F1807F07
:100A500001D3012010BD4FF0E02460610F21601729
:100A600000F0ACFA0020A06107202061002010BD3A
:100A700070B5040004D094F84100002510B106E0E0
:100A8000012070BD84F84050204600F023F8242057
:100A900084F841002068C16821F40051C1602046FB
:100AA00000F0EEF92068016921F4904101612068AD
:100AB000416921F02A0141612068C16841F4005177
:100AC000C1606564202084F8410084F842006563B9
:100AD000002070BD30B585B00024009401940294CC
:100AE000039400681449884223D11448C16941F431
:100AF0000031C161C16901F400310491816941F0A3
:100B00000401816180690E4D00F00400049004200E
:100B10000090022001900320039069462846FFF7C9
:100B20005FFB0820CDE90004694628460294FFF7E0
:100B300057FB05B030BD00000044004000100240EB
:100B4000000801402DE9F843044690F8410098461A
:100B500016460D46202802D00220BDE8F88385B154
:100B60007EB100206064212084F84100FFF73AFC48
:100B7000A6848146E684A0682027B0F5805F02D075
:100B800003E00120E9E7206910B12E4600250EE0C0
:100B900000260CE08021204600F0CEF9A8B9C6B1AD
:100BA00016F8010B21684860E08C401EE084E08C60
:100BB0004B464FF00002CDF800800028EAD14FF0FC
:100BC0004001204600F0B8F940B184F8417003209C
:100BD000C3E735F8020BC0F30800E3E784F841707F
:100BE0000020BAE7FEE700002DE9F04385B00020C1
:100BF00000900190029003905048816941F04001BB
:100C00008161816901F040010491816941F0100125
:100C10008161816901F010010491816941F08001D5
:100C20008161816901F080010491816941F00401D1
:100C30008161816901F004010491816941F0080139
:100C40008161816901F008010491816941F4807139
:100C50008161816901F480710491816941F0200111
:100C600081618069364F00F020000490002201214C
:100C70003846FFF7B1FBDFF8CC800022C0214046A8
:100C8000FFF7AAFBDFF8C090012280214846FFF75A
:100C9000A3FB4FF6FF750324CDE9005469462B48AA
:100CA000FFF79EFAA810CDE9000469462848FFF72F
:100CB00097FACDE9005469462648FFF791FA49F6BC
:100CC000F270CDE9000469462348FFF789FA01254F
:100CD00002260095CDE90156694638460396FFF78E
:100CE0007FFA4FF6FE70CDE9000469463846FFF7FB
:100CF00077FA4FF63F70CDE9000469464046FFF7AA
:100D00006FFA4FF67F70CDE9000469464846FFF759
:100D100067FAC0208DE86100694640460396FFF7F8
:100D20005FFA8020CDE90005CDE9025669464846C4
:100D3000FFF756FA05B0BDE8F0830000001002404E
:100D4000000C014000200140001401400018014047
:100D500000100140001C014000080140094810B586
:100D6000074901600321416040F6CA018160FFF735
:100D70003FFB002803D0BDE81040FFF71DBA10BDAF
:100D800000300040140000200C4810B50A490160F2
:100D90004FF4E1314160002181600C22C160C0E963
:100DA00004128161C161FFF763FE002803D0BDE832
:100DB0001040FFF701BA10BD0044004020000020A1
:100DC000FEE7FEE770477047FFF748BB30B58FB0CE
:100DD00028216846FFF7D1F914210AA8FFF7CDF9B9
:100DE0000920012100904FF48030002404910691E5
:100DF000CDE901040225CDE907504FF4E010099038
:100E00006846FFF791FC08B172B6FEE70F20CDE906
:100E10000A054FF48060CDE90C4002210AA80E9427
:100E2000FFF7A6FB002801D072B6FEE70FB030BD79
:100E3000704701680C3151E8002F22F4907241E8AC
:100E40000023002BF5D10168143151E8002F22F066
:100E5000010241E80023002BF5D1016B012909D1E2
:100E600001680C3151E8002F22F0100241E8002304
:100E7000002BF5D1202180F842100021016370473A
:100E800070B5044600680169E26821F440511143DD
:100E900001612169A0680843616908432168CA6843
:100EA00041F20C639A430243CA6020684169A26917
:100EB00021F44071114341611E492068884202D1EA
:100EC000FFF7FCFB01E0FFF7E9FB00EBC00101EBE2
:100ED0000012606864218000B2FBF0F3B3FBF1F311
:100EE0006FF018067343B2FBF0F5B2FBF0F605EBBA
:100EF0008305322303EB0515B5FBF1F5B6FBF1F6DF
:100F000005F0F00505EB0615B2FBF0F6B2FBF0F0CC
:100F1000B0FBF1F06FF01802504306EB800003EBDA
:100F20000010B0FBF1F0216800F00F002844886049
:100F300070BD0000003801402DE9F843984617467F
:100F40000D460446089E24E0701C22D0FFF74AFAA2
:100F5000A0EB0800B0421AD8CEB12068C16849079A
:100F600017D5802D15D0402D13D00168C94309072E
:100F70000FD401680025406800902046FFF759FF14
:100F80000820606484F840500120BDE8F883032005
:100F9000FBE72068006835EA000004D00020B84272
:100FA000D2D00020F1E70120F9E7FEE7014A02492B
:100FB00000F023B81D100008100000200907090EDA
:100FC000002804DB00F1E02080F80014704700F0F6
:100FD0000F0000F1E02080F8141D704702E008C8FF
:100FE000121F08C1002AFAD170477047002001E0A3
:100FF00001C1121F002AFBD170472DE9F0411646AE
:101000000F460446002503E03946B047641C6D1CBA
:1010100020780028F8D12846BDE8F08113B54FF6B6
:10102000FF73012269460248FFF78CFD00981CBD42
:1010300020000020FFF71AFAFFF7C8FEFFF7D4FDE3
:10104000FFF78CFEFFF7A0FE144D01221146284643
:10105000FFF7C2F9124C012240212046FFF7BCF9EC
:10106000012280212046FFF7B7F94FF4FA740122DC
:1010700011462846FFF7B0F90A48FFF7E8F90AA039
:10108000FFF794FF2046FFF799F800220121284638
:10109000FFF7A2F92046FFF791F8E8E7000C0140BE
:1010A000002001401400002068616C0D0A0000005F
:1010B000010202030405060708090A0B0C0D0E0FB6
:1010C00010100000000000000000010203040607E9
:1010D000080900000000010203040000FC100008E1
:1010E0000000002014000000DC0F000810110008B0
:1010F0001400002054040000EC0F00080100000060
:10110000100000000000000000127A000000000043
:0400000508000131BD
:00000001FF
