:020000040800F2
:10000000400A002051010008E31700087515000898
:10001000E117000809020008D91B000800000000D1
:10002000000000000000000000000000151900089A
:100030001902000800000000E51700081719000861
:100040006B0100086B0100086B0100086B010008E0
:100050006B0100086B0100086B0100086B010008D0
:100060006B0100086B0100086B0100086B010008C0
:100070006B0100080D0200086B0100086B0100080D
:100080006B0100086B0100086B0100086B010008A0
:100090006B0100086B0100086B0100086B01000890
:1000A0006B0100086B0100086B0100086B01000880
:1000B0006B0100086B0100086B0100086B01000870
:1000C0006B0100086B0100086B0100086B01000860
:1000D0006B0100086B0100086B010008CD1B0008D4
:1000E0001B0200086B0100086B0100086B0100088F
:1000F0006B0100086B0100086B0100086B01000830
:100100006B0100086B0100086B0100086B0100081F
:100110006B0100086B0100086B0100086B0100080F
:100120006B0100086B0100086B0100086B010008FF
:10013000DFF810D000F056F800480047D91D00083D
:10014000AFF30080400A002080F308887047000069
:100150000648804706480047FEE7FEE7FEE7FEE761
:10016000FEE7FEE7FEE7FEE7FEE7FEE77F19000891
:1001700031010008202A04DB203A21FA02F0002194
:10018000704721FA02F3D040C2F1200291400843A7
:1001900019467047D2B201E000F8012B491EFBD28C
:1001A00070470022F6E710B513460A460446194682
:1001B000FFF7F0FF204610BD30B50B46014600208A
:1001C0002022012409E021FA02F59D4205D303FA19
:1001D00002F5491B04FA02F52844151EA2F101029A
:1001E000F1DC30BD064C074D06E0E06840F001034D
:1001F00094E8070098471034AC42F6D3FFF79CFF11
:100200000821000828210008FEE70000014800F04E
:100210003FB90000B800002070474FF4005000F0D4
:100220000BBB72B6FEE70000044B0022DA61044A01
:10023000136943F00103136101807047000100203E
:100240000020024014480022C168CB06134904D59F
:10025000CA6942F00202CA611022C3685B0705D571
:10026000CB6943F00103CB6142F00402C369DB07B1
:1002700007D0CB6943F00403CB61C16921F00101D0
:10028000C161A2F58071013901D0C2607047C169B6
:1002900021F00101C16170470020024000010020EF
:1002A00070B5054600F0D6FB0646114C09E0681C07
:1002B00007D025B100F0CEFB801BA84201D9032056
:1002C00070BDE068C007F2D1E068800601D520204B
:1002D000E060E068C00605D4E069C00702D1E068CC
:1002E000400703D5FFF7AEFF012070BD002070BDB1
:1002F00000200240064A0021D16106490A6942F005
:1003000002020A614861086940F0400008617047D4
:10031000200200200020024010B590F82110002299
:10032000022905D00421816380F82020012010BD1E
:1003300001680B6823F00E030B6001680B6823F063
:1003400001030B6090F84030C46B012101FA03F304
:10035000636080F8211080F82020104610BD000056
:100360002DE9F05F90F821100024022903D0042128
:100370008163012485E001680A6822F00E020A60A8
:1003800001680A6822F001020A603F4E3E4FB21532
:10039000DFF8F4C0DFF8F090DFF8ECA0DFF8E8B0A9
:1003A000DFF8E4E00168783F13011502ACF1640C5A
:1003B000A9F15009AAF13C0AABF1280BAEF1140ED9
:1003C0004FF48018B14227D9B9420ED0614512D0FE
:1003D00049451DD0514518D0594518D0714501D116
:1003E000424615E0294EB14201D1012210E0274ECC
:1003F0001436B14201D110220AE0244E2836B1420F
:1004000006D0224A3C32914201D11A4600E02A46E7
:100410001E49091F0A602BE0B94213D0614517D06D
:10042000494522D051451DD059451DD0714501D1B6
:1004300042461AE0B14202D14FF0807215E0134EED
:10044000B14201D1012210E0104E1436B14201D167
:1004500010220AE00D4E2836B14206D00B4A3C323B
:10046000914201D11A4600E02A46074980394A6084
:10047000012180F82110002180F82010416B01B18A
:1004800088472046BDE8F09F8000024008040240F3
:100490002DE9F05FC16B0A6801680B68046C4FF0CE
:1004A000040808FA04F8844D844E854FDFF814C21E
:1004B000DFF81492DFF814A2DFF814B2DFF814E2C8
:1004C00018EA020F65D05FEA437862D50A6892069F
:1004D00003D40A6822F004020A60DFF8F0814FF4C6
:1004E0008062016808F1140813011402414524D9FF
:1004F000A9420DD0B1420FD0B9421AD0614515D0F2
:10050000494515D0514501D1120312E0594501D199
:1005100004220EE0714501D140220AE06D4D1435F0
:10052000A94206D06B4A2832914201D11A4600E016
:1005300022466749091F0A6029E0A94213D0B14247
:1005400015D0B94220D061451BD049451BD051453B
:1005500002D14FF4800217E0414502D14FF0806292
:1005600012E0594501D104220EE0714501D140222B
:100570000AE0584D1435A94206D0564A2832914215
:1005800001D11A4600E022464B4908394A60C16A47
:1005900071E04FF0020808FA04F818EA020F70D070
:1005A0005FEA83786DD50A68920606D40A6822F05D
:1005B0000A020A60012180F82110DFF810814FF44F
:1005C0000072016808F1140813011402414524D98E
:1005D000A9420DD0B1420FD0B9421AD0614515D011
:1005E000494515D0514501D1120312E0594501D1B9
:1005F00002220EE0714501D120220AE0354D14356A
:10060000A94206D0334A2832914201D11A4600E06D
:1006100022462F49091F0A6029E0A94213D0B1429E
:1006200015D0B94220D061451BD049451BD051455A
:1006300002D14FF4001217E0414502D14FF0007291
:1006400012E0594501D102220EE0714501D120226C
:100650000AE0204D1435A94206D01E4A28329142A4
:1006600001D11A4600E02246134908394A600021A8
:1006700080F82010816A00291CD0BDE8F05F08478F
:10068000FFE70825A540154214D01A0712D50A68BD
:1006900022F00E020A6090F84020C36B012101FA9B
:1006A00002F25A60816380F82110002180F8201046
:1006B000016BE0E7BDE8F09F080002401C0002402B
:1006C0003000024044000240580002406C000240EA
:1006D000080402401C04024030B560B11A4B0268A5
:1006E00014219A4209D2194B1344B3FBF1F189004A
:1006F000016417490AE0012030BD134B5B421344EB
:10070000B3FBF1F1890001640F490839C16302218B
:1007100080F82110136843F6F0718B43F0E901145F
:100720002143D0E902452C43214304692143446914
:10073000214384692143194311600021416301224F
:1007400042770177084630BD08040240F8FFFDBF3C
:100750000000024070B5044600F07CF90546601CBC
:1007600002D004480078044400F074F9401BA04211
:10077000FAD370BD000000200348016941F08001F8
:100780000161002070470000002002402DE9F05F69
:1007900007461C4888460024017E15461E4601294E
:1007A00009D00121814601764CF2503A5046FFF7BC
:1007B00077FD18B122E00220BDE8F09F012F02D0A2
:1007C000022F00D00427D346DFF83CA022012846A0
:1007D0003146FFF7CFFC81B208EB4400FFF724FD60
:1007E0005846FFF75DFDDAF8102022F00102CAF842
:1007F000102018B9641CE4B2BC42E7D3002289F887
:100800001820D9E7000100200020024006490020FE
:100810000A69120607D5054A4A60054A4A6009690D
:10082000090600D5012070470020024023016745DA
:10083000AB89EFCD70470000044910B50A68024249
:1008400002D00860FFF7F6FF10BD0000140401405D
:100850002DE9F84FDFF8C8910024A9F1040B2346D5
:100860000F2709F1040AABF1040ED1E00125A540E0
:1008700006EA0502AA4276D1DFF8A8C14E68A6EBC7
:100880000C0866452BD00DDC032E34D005DC36B3C6
:10089000012E19D0022E2FD11BE0112E16D0122EB0
:1008A0002AD119E0B8F5881F19D006DCB8F5803FC9
:1008B00015D0B8F5801F1FD111E0B8F5001F0ED07C
:1008C000B8F5041F18D10AE0CB6815E0CB681B1DF2
:1008D00012E0CB6808330FE0CB680C330CE08B6878
:1008E0002BB1012B4FF0080303D0456104E0042332
:1008F00002E0056100E00023FF2A01D8064601E07E
:1009000000F104064FEA840501D9A5F12005D6F8C7
:10091000008007FA05FC28EA0C0803FA05F548EA06
:100920000508C6F800804D68ED0070D53E4DAE69F3
:1009300046F00106AE61AD6924F0030605F001053D
:1009400000953A4D06EB050CDCF80850A607360F6B
:1009500007FA06F825EA0805DFF8D480404503D1F8
:100960004FF0000825E052E0DFF8C880404502D192
:100970004FF001081DE0DFF8C080404502D14FF084
:10098000020816E0DFF8B480404502D14FF00308BA
:100990000FE0DFF8AC80404502D14FF0040808E0DA
:1009A000DFF8A080404502D14FF0050801E04FF08C
:1009B000060808FA06F848EA0508CCF808804D68E9
:1009C000D9F80060ED024D4601D5164300E096438C
:1009D0002E604D68DAF80060AD02554601D5164329
:1009E00000E096432E604D68DBF80060AD035D4685
:1009F00001D5164300E096432E604D68DEF8006096
:100A0000ED03754601D5164300E096432E60641C45
:100A10000A681646E2407FF429AFBDE8F88F00006F
:100A200008040140000011100010024000000140C5
:100A300000080140000C014000100140001401407A
:100A400000180140001C01400AB10161704709040F
:100A5000FBE70000014880687047000000000020AC
:100A600070B5040013D021684CF6CC4008602168B2
:100A700045F255500860D4E9000141602168A06842
:100A80008860FFF7E7FF054641F23C360DE00120A4
:100A900070BD00BFFFF7DEFF401BB04205D92068E4
:100AA000C068800701D0032070BD2068C06880073F
:100AB000F0D121684AF6AA200860002070BD0068C5
:100AC0004AF6AA21016000207047000002488168B0
:100AD000027811448160704700000020074810B57B
:100AE000016841F010010160032000F075F80F204B
:100AF00000F006F800F024F8002010BD00200240AD
:100B000070B50D4D04464FF47A712878B1FBF0F0C2
:100B10000A490968B1FBF0F000F0DCFA48B9102C82
:100B200007D200222146501E00F036F800206C60EB
:100B300070BD012070BD0000000000200C000020EE
:100B40000C4808B5816941F001018161816901F0BA
:100B500001010091C16941F08051C161C06900F09B
:100B6000805000900448416821F0E06141F000713C
:100B7000416008BD0010024000000140002809DB70
:100B800000F01F02012191404009800000F1E020A7
:100B9000C0F8001170470000F0B40E4B1B680C4603
:100BA000C3F30223C3F10705042D00D90425191D41
:100BB000072901D2002300E0DB1E012606FA05F119
:100BC000491E214099409E40761E16403143F0BC9C
:100BD00001F014B80CED00E0064900F007020868C7
:100BE0004FF6FF03184040EA0220034A1043086012
:100BF000704700000CED00E00000FA052DE9F04719
:100C00000F46050061D0434E306800F00700B8423F
:100C100009D2306820F0070038433060306800F0B7
:100C20000700B84251D128683B4C810712D54007D4
:100C300003D5606840F4E06060602878000703D561
:100C4000606840F4605060606068A96820F0F0005F
:100C5000084360602878C00728D06868012810D051
:100C60002168022810D0890700292EDA616821F056
:100C7000030101436160FFF7EDFE804641F28839D0
:100C80000DE021688903EFE78901EDE7FFF7E2FE58
:100C9000A0EB0801494502D90320BDE8F087606850
:100CA000696800F00C00B0EB810FEFD1306800F004
:100CB0000700B8420BD9306820F007003843306095
:100CC000306800F00700B84201D00120E5E728783D
:100CD000400705D56068E96820F4E060084360607B
:100CE0002878000706D56068296920F4605040EA3A
:100CF000C100606000F038F86168084AC1F3031170
:100D0000515CC8400649086006480068FFF7F8FED5
:100D10000020C2E70020024000100240EE20000840
:100D20000C000020040000200448054900684968C0
:100D3000044AC1F30221515CC84070470C000020F6
:100D400000100240FE200008044805490068496878
:100D5000044AC1F3C221515CC84070470C00002016
:100D600000100240FE2000080E4A51680E4801F0B3
:100D70000C03042B11D0082B0FD10C48C1F3834373
:100D8000C903C05C0AD55168084AC1F34041921EAC
:100D9000515C054A5043B0FBF1F0704704494843A9
:100DA000704700000010024000127A00DE200008A8
:100DB00000093D002DE9F84F040070D02078C04DA7
:100DC000C00749D06868C0F38100012807D068686F
:100DD000C0F38100022809D16868C00306D52868DD
:100DE000800339D560680028E7D035E06068B0F549
:100DF000803F0BD010B1B0F5A02F11D0286820F49F
:100E000080302860286820F4802002E0286840F4C0
:100E100080302860606890B1FFF71CFE06460AE04B
:100E2000286840F480202860F0E700BFFFF712FE3A
:100E3000801B642873D828688003F7D50CE0FFF77F
:100E400009FE064605E000BFFFF704FE801B64288C
:100E5000F0D828688003F7D420789A4E80074FF0A6
:100E600001094FF0000839D5686810F00C0F07D061
:100E70006868C0F38100022809D16868C00306D4FD
:100E80002868800714D52069012808D110E020695E
:100E9000B0B1C6F80090FFF7DDFD074605E00AE1B6
:100EA000FFF7D8FDC01B0228C4D828688007F7D5F3
:100EB0002868616920F0F80040EAC10028600DE070
:100EC000C6F80080FFF7C6FD074604E0FFF7C2FD45
:100ED000C01B022823D828688007F7D42078000791
:100EE0002CD57948A169D9B1C0F80090FFF7B2FDBF
:100EF000074604E0FFF7AEFDC01B02280FD8686A62
:100F00008007F7D571484FF4FA510068B0FBF1F053
:100F1000009000BF0098411E0091FAD20EE080E0E0
:100F2000C0F80080FFF796FD074604E0FFF792FD4A
:100F3000C01B022875D8686A8007F7D4207840075C
:100F400060D5E8690027C00008D4E86940F0805007
:100F5000E861E869012700F0805000905C48016872
:100F6000C90513D40168834641F480710160FFF71D
:100F700071FD824606E000BFFFF76CFDA0EB0A00A2
:100F800064284ED8DBF80000C005F5D5E0680128DC
:100F90000AD008B1052813D0286A20F00100286281
:100FA000286A20F0040002E0286A40F0010028626C
:100FB000E06841F2883B98B1FFF74CFD82460BE0B8
:100FC000286A40F004002862EEE700BFFFF742FD08
:100FD000A0EB0A0159455AD8286A8007F6D50CE0DB
:100FE000FFF738FD824605E0FFF734FDA0EB0A016C
:100FF00059454CD8286A8007F6D41FB1E86920F01B
:101000008050E861E06988B36968C1F38101022911
:1010100044D00228C6F8608004D0FFF71BFD0446C8
:1010200038E034E0FFF716FD074604E0FFF712FD55
:10103000C01B02282BD828688001F7D4206AB0F59D
:10104000803F05D16868A16820F4003008436860DB
:10105000D4E908010843696821F474110843686001
:10106000C6F86090FFF7F6FC044606E025E000BFF6
:10107000FFF7F0FC001B022809D828688001F7D58B
:101080001BE000BFFFF7E6FC001B022802D903208B
:10109000BDE8F88F28688001F4D40EE00128F7D06D
:1010A0006868226A00F48031914204D1616A00F4D8
:1010B0007010884201D00120EAE70020E8E7000034
:1010C0000010024000004242800442420C00002016
:1010D0000070004010B5401EB0F1807F01D30120A8
:1010E00010BD4FF0E02460610F21601700F086FD15
:1010F0000020A06107202061002010BD70477047CC
:10110000F8B5016804460868CA684B6910F00F0F0B
:101110004FF0000559D003F0010602F490773743F1
:1011200065D0C10705D0D10503D5616C41F001013F
:101130006164410705D5D90703D0616C41F0020114
:101140006164810705D5D90703D0616C41F00401C2
:101150006164010707D502F02001314303D0616CBF
:1011600041F008016164616C00293AD0800604D521
:10117000900602D5204600F032FC20684069616C80
:10118000C0F38010090700D460B3204600F000FCD3
:1011900020684069400621D52068143050E8001FBF
:1011A00021F0400140E80012002AF5D1E06BA8B11F
:1011B0006D494163E06BFFF7D3F8002811D0E06B75
:1011C000416B01B0BDE8F040084783060FD5930698
:1011D0000DD52046BDE8F84000F001BC2046FFF7E1
:1011E0008EFFF8BD2046FFF78AFF6564F8BD266BC9
:1011F0002023012E7CD1C6067AD5D60678D508687C
:101200004868009048694FF00206400640D5E16BFF
:10121000086840680004000CE8D0A28D8242E5D93D
:10122000E085886920282DD020680C3050E8001F08
:1012300021F4807140E80012002AF5D120681430B2
:1012400050E8001F21F0010140E80012002AF5D10A
:101250002068143050E8001F21F0400140E80012DF
:10126000002AF5D184F84230256320680C3050E81C
:10127000001F21F0100140E80012002AF5D1E06BB8
:10128000FFF74AF86663A08DE18D401A81B22AE02B
:10129000A08DE18D401A81B2E08D0028A6D00029F2
:1012A000A4D022680C3252E8000F20F4907042E87B
:1012B0000007002FF5D12068143050E8002F22F0ED
:1012C000010240E80027002FF5D184F84230256361
:1012D00020680C3050E8002F22F0100240E8002374
:1012E000002BF5D166632046FFF708FFF8BDFFE746
:1012F00005062BD5150629D594F841002128F5D1EE
:10130000A068B0F5805F01D12069B0B1206A411CAE
:101310002162216800784860E08C401E0004000CC7
:10132000E084E3D12068C16821F08001C1602068B9
:10133000C16841F04001C160D8E7206A0088C0F36D
:1013400008004860206A801C2062E5E74006CDD591
:101350005006CBD5CA68204622F04002CA6084F805
:10136000413000F006F9C1E78119000870B50400AA
:1013700004D094F84100002510B106E0012070BDB2
:1013800084F84050204600F023F8242084F84100DF
:101390002068C16821F40051C160204600F080FB44
:1013A0002068016921F4904101612068416921F0C0
:1013B0002A0141612068C16841F40051C16065643F
:1013C000202084F8410084F842006563002070BD4D
:1013D00070B586B0002400940194029403940646EC
:1013E000344D0368344902200322AB4222D1CB6939
:1013F00043F40033CB61CB6903F4003304938B696E
:1014000043F004038B6189692C4D01F004010491C0
:101410000421CDE90010039269462846FFF718FA27
:101420000820CDE90004694628460294FFF710FA27
:1014300006B070BD224DAB42FAD1CB6943F4802394
:10144000CB61CB6903F4802304938B6943F00803D9
:101450008B618969039201F0080104912915CDE996
:101460000010184D69462846FFF7F2F9E814CDE957
:101470000004694628460294FFF7EAF9134D124822
:10148000C5E900048020C5E902402C616C61AC61B3
:101490002846EC61FFF720F908B1FEF7C2FEF563BC
:1014A0000022114627206E62FFF776FB2720FFF708
:1014B00065FBBDE700440040001002400008014009
:1014C00000480040000C014030000240B8000020FD
:1014D00070472DE9F843044690F8410098461646B7
:1014E0000D46202802D00220BDE8F88385B17EB1E8
:1014F00000206064212084F84100FFF7ABFAA68445
:101500008146E684A0682027B0F5805F02D003E022
:101510000120E9E7206910B12E4600250EE00026E3
:101520000CE08021204600F017FBA8B9C6B116F8E0
:10153000010B21684860E08C401EE084E08C4B4643
:101540004FF00002CDF800800028EAD14FF04001B2
:10155000204600F001FB40B184F841700320C3E74E
:1015600035F8020BC0F30800E3E784F8417000206F
:10157000BAE77047FEE70000094808B5416941F045
:10158000010141614069002200F001000090114614
:101590000D20FFF701FBBDE808400D20FFF7EEBA74
:1015A000001002402DE9F04786B000200090019025
:1015B000029003905A48816941F04001816181693C
:1015C00001F040010491816941F01001816181695C
:1015D00001F010010491816941F08001816181690C
:1015E00001F080010491816941F004018161816908
:1015F00001F004010491816941F008018161816970
:1016000001F008010491816941F48071816181696F
:1016100001F480710491816941F020018161806948
:10162000DFF8008100F020000490002201214046F4
:10163000FFF70AFADFF8F0900022C0214846FFF7D2
:1016400003FADFF8E8A0012280215046FFF7FCF9F9
:101650004FF6FF760324CDE9006469463448FFF76E
:10166000F7F84FF40050009032480125CDE901050C
:10167000314F69463846FFF7EBF8CDE9006469461B
:101680002E48FFF7E5F8F010CDE90004694638462A
:10169000FFF7DEF849F6F270CDE900046946284804
:1016A000FFF7D6F802260095CDE901566946404677
:1016B0000396FFF7CDF84FF2FE30CDE900046946FE
:1016C0004046FFF7C5F84FF63F70CDE90004694684
:1016D0004846FFF7BDF84FF67F70CDE90004694634
:1016E0005046FFF7B5F8C0208DE8610069464846CE
:1016F0000396FFF7ADF88020CDE90005CDE902564D
:1017000069465046FFF7A4F8002211462820FFF74B
:1017100043FA2820FFF732FA06B0BDE8F087000050
:1017200000100240000C0140002001400014014064
:10173000001801400000111000100140001C014081
:1017400000080140094810B50749016003214160C4
:1017500040F6CA018160FFF783F9002803D0BDE895
:101760001040FEF75EBD10BD003000401C000020A0
:101770000C4810B50A4901604FF4E1314160002185
:1017800081600C22C160C0E904128161C161FFF770
:10179000EDFD002803D0BDE81040FEF742BD10BDAE
:1017A00000440040280000200C4810B50A490160A0
:1017B0004FF4E1314160002181600C22C160C0E939
:1017C00004128161C161FFF7D1FD002803D0BDE89B
:1017D0001040FEF726BD10BD0048004070000020FC
:1017E000FEE7FEE77047000010B5002306E000BFEB
:1017F00030F8024B21F813405B1C9BB29342F7D3A5
:1018000010BD0088704700002DE9F05FA0F1006472
:1018100015468A468346B4F5803F5FD2FEF7F6FF51
:10182000A70AC4F34806C6F50074A54200D82C46A2
:10183000DFF8AC904FF0006000EB872080464FF45B
:1018400000722749FFF7D0FF00204FF6FF7106E036
:10185000331839F813208A4203D1401C80B2A042C9
:10186000F6D3A0422ED24046FEF744FD4CF2503053
:10187000FEF716FD1B48016921F0020101610020FD
:10188000494606E03AF810208319401C21F813203D
:1018900080B2A042F6D3124940464FF4007200BF16
:1018A00000F022F8A54215D0281B0AEB440A0BEBE6
:1018B000440B002685B24FF400747F1CA542B9D8B2
:1018C0002C46B7E74CF25030FEF7EAFC2246514670
:1018D0005846E5E7BDE8F05FFEF74EBFBDE8F09F74
:1018E00040020020002002402DE9F04116460F463C
:1018F000054600240AE000BF37F8142000232946DB
:101900000120FEF743FF641CA4B2AD1CB442F3D324
:10191000BDE8F0817047FFF7D9B830B58FB0282106
:101920006846FEF73EFC14210AA8FEF73AFC09209F
:10193000012100904FF48030002404910691CDE9FC
:1019400001040225CDE907504FF4E01009906846E4
:10195000FFF730FA08B172B6FEE70F20CDE90A05AD
:101960004FF48060CDE90C4002210AA80E94FFF7E5
:1019700045F9002801D072B6FEE70FB030BD7047C0
:1019800010B5406A0021C185C184FFF7B8FB10BDC6
:1019900001680C3151E8002F22F4907241E80023D5
:1019A000002BF5D10168143151E8002F22F001021B
:1019B00041E80023002BF5D1016B012909D1016811
:1019C0000C3151E8002F22F0100241E80023002BD7
:1019D000F5D1202180F8421000210163704708B53D
:1019E00090F84210222901D0022008BD82684FF4ED
:1019F00080539A4201D1016921B1816A9A421BD078
:101A00004AB10AE00268816A5268C2F308020A8099
:101A1000816A891C08E0026972B10268526802F0AA
:101A20007F020A70816A491C8162C18D491E0904C6
:101A3000090CC18503D01BE002685268F1E7016818
:101A4000CA6822F02002CA600168CA6822F4807263
:101A5000CA6001684A6922F001024A61202180F8C7
:101A6000421000214163026B012A03D0FFF730FDD1
:101A7000002008BD016301680C3151E8002F22F0FD
:101A8000100241E80023002BF5D101680A68D20654
:101A900002D50A6849680091818DFFF72FFBE7E7BF
:101AA00070B5044600680169E26821F440511143B1
:101AB00001612169A0680843616908432168CA6817
:101AC00041F20C639A430243CA6020684169A269EB
:101AD00021F44071114341611E492068884202D1BE
:101AE000FFF732F901E0FFF71FF900EBC00101EB4E
:101AF0000012606864218000B2FBF0F3B3FBF1F3E5
:101B00006FF018067343B2FBF0F5B2FBF0F605EB8D
:101B10008305322303EB0515B5FBF1F5B6FBF1F6B2
:101B200005F0F00505EB0615B2FBF0F6B2FBF0F0A0
:101B3000B0FBF1F06FF01802504306EB800003EBAE
:101B40000010B0FBF1F0216800F00F00284488601D
:101B500070BD0000003801402DE9F8439846174653
:101B60000D460446089E24E0701C22D0FEF772FF4A
:101B7000A0EB0800B0421AD8CEB12068C16849076E
:101B800017D5802D15D0402D13D00168C943090702
:101B90000FD401680025406800902046FFF7F8FE4A
:101BA0000820606484F840500120BDE8F8830320D9
:101BB000FBE72068006835EA000004D00020B84246
:101BC000D2D00020F1E70120F9E700000148FFF73B
:101BD00097BA000070000020FEE700000FB4054B2C
:101BE00010B503A9044A029800F028F810BC5DF86B
:101BF00014FB0000911D0008180000200907090EC1
:101C0000002804DB00F1E02080F80014704700F0A9
:101C10000F0000F1E02080F8141D704702E008C8B2
:101C2000121F08C1002AFAD170477047002001E056
:101C300001C1121F002AFBD1704700002DE9FF4FA0
:101C400089B09B460446002506E025280BD05A465D
:101C50000B999047641C6D1C20780028F5D10DB0BD
:101C60002846BDE8F08F0027B8460122474900E02A
:101C7000074314F8013F203B02FA03F00842F7D172
:101C800020782E2819D114F8010F47F004072A28CC
:101C90000ED06FF02F022078A0F1300109290CD866
:101CA00008EB880102EB410100EB0108641CF2E73C
:101CB0000A98641C50F8048B0A9020780028CED033
:101CC000642808D0692806D075281ED05A460B997A
:101CD00090476D1C58E00A994FF00A0901C90A9112
:101CE000002802DA40422D2102E0390504D52B21DB
:101CF0008DF82010012103E0F90704D02021F7E737
:101D00008A4608AE0DE00021FAE70A994FF00A0969
:101D100001C90A91F7E74946FEF74EFA303106F855
:101D2000011D0028F7D1ADEB060000F1200978076E
:101D300001D44FF00108C84502DDA8EB090000E01E
:101D400000208046002706E008A85A46C05D0B998F
:101D500090476D1C7F1C5745F6DB04E030205A4647
:101D60000B9990476D1CB8F10001A8F10108F5DC52
:101D700005E016F8010B5A460B9990476D1CB9F116
:101D80000001A9F10109F4DC641C65E709280100E0
:101D900013B54FF6FF73012269460248FFF799FB1E
:101DA00000981CBD2800002010B5094A01681140A8
:101DB000B1F1005F0AD172B6064C4168216000683B
:101DC000FEF7C2F92068BDE81040004710BD0000D2
:101DD0000000FE2F1400002008B5FEF77FFEFFF77D
:101DE0009CFDFFF7DFFBFFF7C7FBFFF7ABFCFFF73F
:101DF000BFFCFFF7D9FC012211466248FEF724FE22
:101E0000614C012240212046FEF71EFE0122802166
:101E10002046FEF719FEFEF7F9FC0024A046A34673
:101E200025465A48FFF7EDFC07465848401CFFF787
:101E3000E8FC82461120ADF800000026ADF80260F3
:101E400053A0FFF7CBFEDFF86891112F7DD0BAF1D8
:101E5000110F01D14FF0000A56490878002839D0F7
:101E6000844236D1BBF1000F03D0BBF1010F19D072
:101E700028E0042826D150480178732908D14178F8
:101E8000652905D181786E2902D1C078642805D0F2
:101E90004A484FF00008067049A014E04FF0010BCB
:101EA0004AA010E00A280DD94449012280460A7050
:101EB0004FF0000B4EA0FFF791FE414651A0FFF7F7
:101EC0008DFE02E054A0FFF789FE3A480024067018
:101ED00000E004460A20FEF73DFC3848017800295E
:101EE0001ED00670B8F1000F17D050A0FFF776FE95
:101EF000524841680820B0EB116F04D150A0FFF7A1
:101F00006DFE01250DE052A0FFF768FE5AA0FFF715
:101F100065FE4846FFF748FF02E05DA0FFF75EFE62
:101F2000D5B160A0FFF75AFE0A20FEF713FCD9F8DE
:101F300004100820B0EB116F0BD100250222694676
:101F40001248FFF761FC484600E009E0FFF72CFF6C
:101F500002E058A0FFF742FE5A48FEF7B0FD74E7D2
:101F60004C4659A0FFF73AFE4EA0FFF737FE0A2075
:101F7000FEF7F0FB2046FFF717FF5248FEF79FFDE4
:101F8000EFE70000000C01400020014000000708BE
:101F9000CCE1CABEA3BACAE4C8EB73656E64B7A24B
:101FA000CBCD62696ECEC4BCFE210D0A00000000DC
:101FB0000040000810000020200100201100002037
:101FC000D6B8C1EEB4EDCEF3210D0A00D7BCB1B83E
:101FD000BDD3CAD5617070B3CCD0F2A3ACC7EBCC83
:101FE000EDBCD362696ECEC4BCFE210D0A000000B8
:101FF000415050B3CCD0F2BDD3CAD5CDEAB3C9213C
:102000000D0A0000B3CCD0F2B4F3D0A13A2564425B
:10201000797465730D0A0000CEC4BCFEBBF2D6B85D
:10202000C1EEB4EDCEF3210D0A000000B3CCD0F226
:10203000B8FCD0C2D6D02E2E2E0D0A0000100020E3
:10204000D5FDD4DACFC2D4D8B3CCD0F2210D0A005A
:10205000B3CCD0F2B8FCD0C2CAA7B0DCA3ACC7EBFB
:10206000BCECB2E962696ECEC4BCFECAC7B7F1D59A
:10207000FDC8B7210D0A0000CCF8D7AAB5BDD4AD74
:10208000D3D0D3A6D3C3B3CCD0F2210D0A00000025
:10209000C3BBD3D0B3CCD0F2BFC9D2D4B8FCD0C26A
:1020A000210D0A00BFAACABCD4CBD0D0B3CCD0F289
:1020B000210D0A00D3A6D3C3B3CCD0F2B4EDCEF336
:1020C000210D0A001C000020D2D1D3D0D2BBB8F61B
:1020D000D3A6D3C3B3CCD0F2210D0A000102020370
:1020E0000405060708090A0B0C0D0E0F101000005E
:1020F00000000000000001020304060708090000B8
:102100000000010203040000282100080000002054
:102110001C0000001C1C0008442100081C000020BA
:10212000240A00002C1C0008010000001000000020
:102130000000000000127A00000000000000000013
:04214000000000009B
:0400000508000131BD
:00000001FF
