:020000040800F2
:1000000020A0002045010008571300082112000815
:10001000C1120008C1020008B54600080000000037
:100020000000000000000000000000005701000870
:100030006504000800000000E30100083524000802
:100040005F0100085F0100085F0100085F01000810
:100050005F0100085F0100085F0100085F01000800
:100060005F0100085F0100085F0100085F010008F0
:100070005F0100085F0100085F0100085F010008E0
:100080005F0100085F0100085F0100085F010008D0
:100090005F0100085F0100085F0100085F010008C0
:1000A0005F0100085F0100085F0100085F010008B0
:1000B0005F0100085F0100085F0100085F010008A0
:1000C0005F0100085F0100085F0100085F01000890
:1000D0005F0100085F0100085F0100085F01000880
:1000E0005F0100085F0100085F0100085F01000870
:1000F0005F0100085F0100085F0100085F01000860
:100100005F0100085F0100085F0100085F0100084F
:100110005F0100085F0100085F0100085F0100083F
:100120005F0100085F0100085F0100085F0100082F
:10013000DFF80CD000F032F800480047D546000840
:1001400020A000200648804706480047FEE7FEE75B
:10015000FEE7FEE7FEE7FEE7FEE7FEE7FEE7FEE777
:100160006D4600083101000872B6704762B67047EC
:10017000EFF3108072B6704780F31088704730BF7D
:10018000704720BF7047B0FA80F0704790FAA0F037
:10019000B0FA80F0704790FAA0F07047064C074D17
:1001A00006E0E06840F0010394E807009847103447
:1001B000AC42F6D3FFF7C0FFC0470008E047000895
:1001C00018484FF0FF010170002080F3098816489D
:1001D000016881F3088815484FF08051016062B6CC
:1001E000FEE772B6EFF3098028B1203880E8F00FFF
:1001F0000F490968086000B50E4880475DF804EBB8
:100200000D480E490A78027009480D490A680260D3
:10021000106890E8F00F203080F309884EF0040E4B
:1002200062B6704722ED00E02800002004ED00E0F7
:10023000F4000020DD200008860000208700002058
:10024000F8000020704770470EB500F023F800F06A
:1002500038F801F03BF802A801F036FB00F078F81E
:10026000FFF7F1FFFFF7EEFF084E002502AC4FF459
:10027000FA770121304600F009FA0022CDE9005456
:100280003B461146104601F0D7FFF2E7000C014053
:1002900000F0EEBB10B500F0C5FFBDE8104000F067
:1002A00001B8000010B5FFF7F3FF04490968B0FB7F
:1002B000F1F0BDE8104002F0D5B800009447000806
:1002C000FEE710B500F0A2F800F004F8BDE8104019
:1002D00000F09AB82DE9F041104E00273780778062
:1002E000B760F7607761B76137610025FFF740FFBE
:1002F00080460024776100F049F800F059F87069F1
:100300000544641CA4B2002CF4D035617761B76158
:100310004046BDE8F041FFF72FBF00000800002075
:1003200003490969884201D9401A70470020704783
:100330000800002010B5FFF71BFF04494C69FFF7C8
:100340001BFF2046BDE81040FFF7EABF0800002071
:1003500010B5FFF7EFFF0446FFF70AFF034A00213D
:100360005161FFF709FF204610BD00000800002082
:1003700010B5FFF7FDFE04498C69FFF7FDFE20462E
:10038000BDE81040FFF7CCBF0800002010B5074CB7
:100390002088401C20806088002802D100F05CF892
:1003A000A0606088401C608010BD00000800002034
:1003B00010B50A4C6088401E80B2608000280CD1C5
:1003C00000F04AF8E060A168401A6169814200D2F9
:1003D0006061A169814200D2A06110BD08000020C7
:1003E00010B5FFF7C5FE0446FFF7D0FF1021054802
:1003F00000F067FFFFF7DCFF2046BDE81040FFF785
:10040000BBBE0000C4090020FFF7EABF024900207C
:10041000486000F009B80000080000200149486069
:10042000704700000800002010B50948016841F03D
:1004300080710160074800214160016841F00101BD
:100440000160FFF725FFBDE81040FFF7E7BF0000A0
:10045000FCED00E0001000E001484068704700003B
:10046000001000E0FEE731B500F01CF9044600F092
:1004700019F90099001B8842F9D338BD2DE9F84FCE
:1004800000230024DFF8DC914FF00F0809F1040A83
:100490000AF1040B0BF1040E0127A7400A683A4049
:1004A000BA4275D1DFF8C0C14D68A5EB0C066545B1
:1004B0002BD00DDC032D34D005DC35B3012D19D044
:1004C000022D2FD11BE0112D16D0122D2AD119E0AB
:1004D000B6F5881F19D006DCB6F5803F15D0B6F505
:1004E000801F1FD111E0B6F5001F0ED0B6F5041F16
:1004F00018D10AE0CB6815E0CB681B1D12E0CB6871
:1005000008330FE0CB680C330CE08B6823B1012B70
:1005100004D00823476105E0042303E008230761B2
:1005200000E00023FF2A01D8054601E000F10405A0
:1005300002D84FEA840603E0A4F108064FEA8606D3
:100540002F6808FA06FC27EA0C0703FA06F647EAC2
:1005500006072F604D68ED007ED5444DAE6946F02C
:100560000106AE61AD6905F001050095404D24F02E
:1005700003067719BE68A5072D0F08FA05FC26EAC1
:100580000C06DFF8F0C0604503D14FF0000C25E009
:1005900062E0DFF8E4C0604502D14FF0010C1DE0DD
:1005A000DFF8D8C0604502D14FF0020C16E0DFF84A
:1005B000D0C0604502D14FF0030C0FE0DFF8C4C09B
:1005C000604502D14FF0040C08E0DFF8BCC0604584
:1005D00002D14FF0050C01E04FF0060C0CFA05FCBF
:1005E0004CEA060CC7F808C04D68ED0305D5D9F8EC
:1005F00000501543C9F8005004E0D9F80050954365
:10060000C9F800504D68AD0305D5DAF80050154320
:10061000CAF8005004E0DAF800509543CAF80050D8
:100620004D68ED0205D5DBF800501543CBF80050BE
:1006300004E0DBF800509543CBF800504D68AD0264
:1006400005D5DEF800501543CEF8005004E0DEF882
:1006500000509543CEF80050641C102CFFF41CAFE2
:10066000BDE8F88F000401400000111000100240A6
:100670000000014000080140000C01400010014052
:100680000014014000180140001C0140C2684A40AB
:10069000C2607047002A01D00161704709040161FE
:1006A0007047000001480068704700000400002007
:1006B00010B50748016841F010010160032000F007
:1006C00069F8002000F006F800F016F8002010BDD0
:1006D0000020024010B5044600F0CAF94FF47A72C7
:1006E000B0FBF2F000F088FD00222146501E00F021
:1006F00031F8002010BD000008B51548816941F0AF
:1007000001018161806900F001000090052000F086
:1007100041F8002211466FF00B0000F01BF8002298
:1007200011466FF00A0000F015F8002211466FF034
:10073000090000F00FF800221146101F00F00AF81F
:100740000022BDE808401146501E00F003B800002A
:1007500000100240F0B40D460D4B1B68C3F302239A
:10076000C3F10704042C00D90424191D072901D260
:10077000002300E0DB1E012606FA04F1491E294091
:1007800099409E40761E16403143F0BC00F0E4BD17
:100790000CED00E000F00701054A10684FF6FF037A
:1007A000184040EA012003490843106070470000E8
:1007B0000CED00E00000FA052DE9F04704460F4675
:1007C000DFF8A492D9F80000A84D00F0070101203D
:1007D000430446064FF0020C41F28838B9426FD20A
:1007E000D9F8001021F007013943C9F80010D9F8F1
:1007F000001001F00701B94201D0BDE8F08721786F
:10080000890705D56968A26821F0F0011143696084
:100810002178C90761D0616801290BD002291FD056
:100820009CFAACF2B2FA82F242F0200252092DD0C8
:100830002A682CE093FAA3F2B2FA82F242F0200284
:10084000520901D02A6800E06A6A93FAA3F3B3FA66
:1008500083F303F01F039840024223D10120CCE729
:1008600096FAA6F2B2FA82F242F02002520901D0C0
:100870002A6800E06A6A96FAA6F3B3FA83F303F0F3
:100880001F03984002420DD10120B6E76A6A9CFA24
:10089000ACF3B3FA83F303F01F039840024201D193
:1008A0000120AAE7686820F0030008436860FFF7AA
:1008B000F9FE0646606801280AD0022815D021E01A
:1008C00025E0FFF7EFFE801B404501D9032094E7A8
:1008D0006868C0F381000128F3D1ADE0FFF7E2FEC4
:1008E000801B404501D9032087E76868C0F3810079
:1008F0000228F3D1A0E0FFF7D5FE801B404501D9C7
:1009000003207AE7686810F00C0FF4D194E02178A6
:10091000890705D56968A26821F0F0011143696073
:100920002178C90779D0616801290BD002291FD02D
:100930009CFAACF2B2FA82F242F0200252092DD0B7
:100940002A682CE093FAA3F2B2FA82F242F0200273
:10095000520901D02A6800E06A6A93FAA3F3B3FA55
:1009600083F303F01F039840024223D1012044E7A0
:1009700096FAA6F2B2FA82F242F02002520901D0AF
:100980002A6800E06A6A96FAA6F3B3FA83F303F0E2
:100990001F03984002420DD101202EE76A6A9CFA9B
:1009A000ACF3B3FA83F303F01F039840024201D182
:1009B000012022E7686820F0030008436860FFF721
:1009C00071FE06466068012809D0022814D020E094
:1009D000FFF768FE801B404501D903200DE76868DA
:1009E000C0F381000128F3D117E0FFF75BFE801B05
:1009F000404501D9032000E76868C0F38100022860
:100A0000F3D10AE0FFF74EFE801B404501D90320D9
:100A1000F3E6686810F00C0FF4D1D9F8000020F06C
:100A200007003843C9F80000D9F8000000F00700BB
:100A3000B84201D00120E0E62078400705D568687B
:100A4000E16820F4E060084368602078000706D57C
:100A50006868216920F4605040EAC10068600020A5
:100A6000FFF738FE0020C8E60020024000100240D8
:100A700000B500F017F808494968F02292FAA2F28E
:100A800001F0F001B2FA82F2D140044A515CC84050
:100A90000349086000BD0000001002403C47000808
:100AA0000000002010B585B01AA0D0E90031D0E9CF
:100AB0000220CDE90131CDE903201AA000680090A1
:100AC000194B5968194801F00C02042A1DD0082A54
:100AD0001BD14FF4701494FAA4F401F47012B4FA18
:100AE00084F4E24001ACA25CC90310D559684FF40C
:100AF000003393FAA3F301F40031B3FA83F3D9403E
:100B00001DF80110B0FBF1F0504305B010BD0848CE
:100B10005043FAE702030405060708090A0B0C0D07
:100B20000E0F1010010200000010024000127A00A7
:100B300000093D002DE9F84F0446F94D20784FF0AB
:100B40000106C00775D068687704C0F381000128EA
:100B500007D06868C0F3810002281DD16868C0030F
:100B60001AD597FAA7F0B0FA80F040F020004009BB
:100B700001D0286800E0686A97FAA7F1B1FA81F11C
:100B800001F01F0206FA02F1084252D06068002804
:100B90004FD10120BDE8F88F286820F4803028600C
:100BA000286820F480202860FFF77CFD804607E05D
:100BB000FFF778FDA0EB0800642801D90320E9E7DE
:100BC00097FAA7F0B0FA80F040F02000400901D079
:100BD000286800E0686A97FAA7F1B1FA81F101F09C
:100BE0001F0106FA01F10842E2D16068B0F5803FCA
:100BF00011D0A8B1B0F5A02F1CD0286820F4803007
:100C00002860286820F4802028606068C8B3FFF757
:100C100049FD80461FE0286840F480302860F4E7F2
:100C2000286820F480302860286820F4802028601C
:100C3000EBE748E0286840F480202860286840F40A
:100C400080302860E1E7FFF72DFDA0EB0800642865
:100C500001D903209EE797FAA7F0B0FA80F040F0A0
:100C60002000400901D0286800E0686A97FAA7F1DF
:100C7000B1FA81F101F01F0106FA01F10842E2D058
:100C800021E0FFE7FFF70EFD804607E0FFF70AFDD2
:100C9000A0EB0800642801D903207BE797FAA7F0AE
:100CA000B0FA80F040F02000400901D0286800E050
:100CB000686A97FAA7F1B1FA81F101F01F0106FA0B
:100CC00001F10842E2D12078DFF8588280074FF026
:100CD000000B4FF0020732D568684FF0F80A10F0A9
:100CE0000C0F07D06868C0F38100022828D168681B
:100CF000C00325D497FAA7F0B0FA80F040F02000A6
:100D0000400901D0286800E0686A97FAA7F1B1FAB3
:100D100081F101F01F0106FA01F1084204D02069B7
:100D2000012801D0012035E728689AFAAAF2616902
:100D3000B2FA82F220F0F8009140084328605CE0AB
:100D4000206990B396FAA6F0B0FA80F048F82060D7
:100D5000FFF7A8FC814607E0FFF7A4FCA0EB090021
:100D6000022801D9032015E797FAA7F0B0FA80F01E
:100D700040F02000400901D0286800E0686A97FA36
:100D8000A7F1B1FA81F101F01F0106FA01F1084261
:100D9000E2D028689AFAAAF26169B2FA82F220F0E7
:100DA000F80091400843286027E0FFE796FAA6F094
:100DB000B0FA80F048F820B0FFF774FC814607E0F5
:100DC000FFF770FCA0EB0900022801D90320E1E63F
:100DD00097FAA7F0B0FA80F040F02000400901D067
:100DE000286800E0686A97FAA7F1B1FA81F101F08A
:100DF0001F0106FA01F10842E2D12078000770D500
:100E0000A069C0B396FAA6F0B0FA80F008EB8000B3
:100E1000C0F88064FFF746FC814607E0FFF742FC1C
:100E2000A0EB0900022801D90320B3E697FAA7F046
:100E3000B0FA80F040F06000B6EB501F01D1286896
:100E40000BE097FAA7F0B0FA80F040F06000B7EB43
:100E5000501F01D1286A00E0686A97FAA7F1B1FA39
:100E600081F101F01F0206FA02F10842D6D00120FA
:100E7000FFF7F9FA35E0FFE796FAA6F0B0FA80F04E
:100E800008EB8000C0F880B4FFF70CFC814607E057
:100E9000FFF708FCA0EB0900022801D9032079E63E
:100EA00097FAA7F0B0FA80F040F06000B6EB501F60
:100EB00001D128680BE097FAA7F0B0FA80F040F073
:100EC0006000B7EB501F01D1286A00E0686A97FA0A
:100ED000A7F1B1FA81F101F01F0206FA02F108420E
:100EE000D6D12078400770D5E86940F08050E8619D
:100EF000E86900F080500090DFF82CA0DAF80000DC
:100F000040F48070CAF80000FFF7CCFB81460DE08A
:100F1000FFF7C8FBA0EB0900642807D9032039E6D6
:100F2000001002400000424200700040DAF8000069
:100F3000C005EDD5286A20F001002862286A20F05B
:100F400004002862FFF7AEFB814641F2883A07E0D1
:100F5000FFF7A8FBA0EB0900504501D9032019E6D3
:100F600097FAA7F0B0FA80F040F04000B6EB501FBF
:100F700001D128680BE097FAA7F0B0FA80F040F0B2
:100F80004000B7EB501F01D1286A00E0686A97FA69
:100F9000A7F1B1FA81F101F01F0106FA01F108424F
:100FA000D6D1E068012811D0A8B105281CD0286A44
:100FB00020F001002862286A20F004002862E0681E
:100FC000C8B3FFF76FFB81461FE06EE0286A40F070
:100FD00001002862F3E7286A20F001002862286AED
:100FE00020F004002862EAE7286A40F00400286242
:100FF000286A40F001002862E1E7FFF753FBA0EB0D
:101000000900504501D90320C4E597FAA7F0B0FACA
:1010100080F040F04000B6EB501F01D128680CE092
:1010200097FAA7F0B0FA80F040F04000B7EB501FFD
:1010300002D1286A01E00BE0686A97FAA7F1B1FAD9
:1010400081F101F01F0206FA02F10842D5D02CE02E
:10105000FFF728FB814607E0FFF724FBA0EB090020
:10106000504501D9032095E597FAA7F0B0FA80F032
:1010700040F04000B6EB501F01D128680BE097FA12
:10108000A7F0B0FA80F040F04000B7EB501F01D15C
:10109000286A00E0686A97FAA7F1B1FA81F101F0D5
:1010A0001F0206FA02F10842D6D1E06980B36968EE
:1010B000C1F38101022970D04FF080794FF00077A1
:1010C000022809D099FAA9F0B0FA80F048F820B0C7
:1010D000FFF7E8FA044668E099FAA9F0B0FA80F060
:1010E00048F820B0FFF7DEFA824607E0FFF7DAFAA9
:1010F000A0EB0A00022801D903204BE597FAA7F0DC
:10110000B0FA80F040F02000400902D0286801E0E9
:1011100060E0686A97FAA7F1B1FA81F101F01F0166
:1011200006FA01F10842E1D1206AB0F5803F05D10D
:101130006868A16820F4003008436860D4E90801B9
:101140000843696821F474110843686099FAA9F0AA
:10115000B0FA80F048F82060FFF7A4FA044606E0F1
:10116000FFF7A0FA001B022801D9032012E597FA25
:10117000A7F0B0FA80F040F02000400901D02968C3
:1011800000E0696A97FAA7F0B0FA80F000F01F005B
:1011900006FA00F00142E3D01CE01DE0FFF782FAFE
:1011A000001B022801D90320F4E497FAA7F0B0FA53
:1011B00080F040F02000400901D0296800E0696A11
:1011C00097FAA7F0B0FA80F000F01F0006FA00F0DE
:1011D0000142E3D10020DDE40120DBE44FF0E02117
:1011E000042804D0086920F00400086170470869E9
:1011F00040F004000861704710B5401EB0F1807FD8
:1012000001D3012010BD4FF0E02460610F21601771
:1012100000F0A2F80020A06107202061002010BD8E
:10122000FEE70000F0B585B02248816941F0080171
:101230008161816901F008010091816941F4807147
:101240008161816901F480710091816941F480714B
:101250008161806900F480700090174F00220121A5
:101260003846FFF717FA154E002240213046FFF7A7
:1012700011FA002280213046FFF70CFA0124019474
:1012800002940225049501A93846FFF7F7F840209B
:1012900001900294049501A93046FFF7EFF88020F1
:1012A00001900294049501A93046FFF7E7F805B0D4
:1012B000F0BD000000100240000C01400020014081
:1012C000FEE70A46002100F023B800000D480E4951
:1012D00001600246426000218160C160016141619C
:1012E0008161C16101620163C162416200F1480133
:1012F0008163C1634FF4D8410164416403480260D3
:1013000070470000D40900204845415024000020C7
:1013100010B5002A1ED000281CD0002300241B0278
:101320000B43641C042CFAD300F0030424B909E035
:1013300000F8011B521E641C22B1042CF8D301E0FA
:1013400008C0121F042AFBD202E000F8011B521E43
:10135000002AFAD110BD70470907090E002806DAE5
:1013600000F00F0000F1E02080F8141D704700F13C
:10137000E02080F8001470477047000002480068C1
:10138000002800D0004770473C00002010B50446FC
:1013900000F0C0F8474800220270474802704748F2
:1013A0000270474802604748026047480270474859
:1013B0000270474802704748026047480260474849
:1013C00002604748027047480A210068B0FBF1F00C
:1013D000454908604549086840B14548006828B15A
:1013E000096801E0491E04C00029FBD141480260A0
:1013F0004148026041480260414802604148026041
:1014000041480260414802604148027001F05AFDC3
:1014100001F01CFE204601F03BF82088002847D14F
:10142000204601F04FFB2088002841D1204601F0E2
:1014300055FB208800283BD1204601F0F1FB208895
:10144000002835D1204601F069FD208800282FD1E1
:10145000204601F04FFF2088002829D1204602F0C5
:10146000D5F92088002823D1204601F0A1FA208850
:1014700000281DD1204601F02DF92088002817D121
:10148000204602F0FBFE2088002811D1204602F001
:1014900011F9208800280BD1204602F045FF208852
:1014A000002805D100F0F2FFBDE81040FFF764BF4F
:1014B00010BD00005000002058000020A0000020B7
:1014C000F4000020F80000208600002087000020A3
:1014D0008800002094000020980000209C0000203C
:1014E000A800002094470008A400002070470008CE
:1014F0006C47000830000020340000203800002035
:101500003C00002040000020440000204800002053
:10151000D600002030B5094D29680020084A002374
:1015200001E008C1401C1468A042FAD32868116881
:1015300000EB81000349001F086030BD6C470008C4
:10154000704700082800002010B5234800780128C3
:1015500040D1FEF70DFE04462049087840B1401EF8
:10156000C0B2087048B12046BDE81040FEF704BE86
:101570002046BDE81040FEF7FFBD1948007820B1B5
:101580002046BDE81040FEF7F7BD01F089FC154983
:101590000870154900EB400051F82000134908601D
:1015A00013490968884204D12046BDE81040FEF77F
:1015B000E3BD50F8901F491C01600E480168491CAA
:1015C00001600D494FF0805008602046BDE8104092
:1015D000FEF7D2BD10BD00005800002050000020D2
:1015E000A000002087000020488C0020F800002088
:1015F000F4000020CC00002004ED00E010B51848F5
:10160000007800282BD117480078002827D1FEF752
:10161000AFFD044601F044FC13490870134900EB88
:10162000400051F8200012490860124909688842B8
:1016300004D12046BDE81040FEF79EBD50F8901F33
:10164000491C01600C480168491C01600B494FF0BE
:10165000805008602046BDE81040FEF78DBD10BDEB
:1016600050000020A000002087000020488C0020AF
:10167000F8000020F4000020CC00002004ED00E081
:1016800070B5044614480078002803D046F662502E
:10169000208070BD11480078012803D045F689608C
:1016A000208070BD0E4D2878FA2803D345F209201A
:1016B000208070BDFEF75CFD0646FEF767FE2878C9
:1016C000401C287001F090FDFEF772FE3046FEF7D8
:1016D00053FD0020208070BD5000002058000020E5
:1016E000A000002070B504461A480078002803D0F6
:1016F00046F66550208070BD17480078012803D059
:1017000045F68960208070BD144D287890B1FEF7B1
:101710002FFD0646FEF73AFE2878401EC0B228701C
:1017200060B1FEF745FE3046FEF726FD46F66350F3
:10173000208070BD46F66450208070BD01F062FDCF
:10174000FEF736FE3046FEF717FDFFF757FF002085
:10175000208070BD5000002058000020A000002014
:1017600070B504460F4D2878002803D045F68A60EE
:10177000208070BD01F094FB0B4908700B49087084
:101780000B4900EB400051F820000A4908600A4963
:10179000086001202870FEF713FD43F69920208091
:1017A00070BD000058000020870000208600002047
:1017B000488C0020F8000020F40000202DE9F041C2
:1017C0000646FEF7D5FC0446FEF7E0FD334800254B
:1017D0000560334805803348058033480560334849
:1017E0000560334805603348056033480560334879
:1017F0000581FEF7DDFD2046FEF7BEFCFEF7B8FCD6
:101800000746FEF7C3FD2E480468FEF7D1FD3846B3
:10181000FEF7B2FC1CE0FEF7ABFC0746FEF7B6FD98
:101820007834E563256425602563A561A582E5829A
:101830006562A562FEF710FE2062783C2146A1F8A1
:101840007050D4F8C040FEF7B3FD3846FEF794FC64
:10185000002CE0D1FEF78CFC0746FEF797FD1948F7
:101860000468FEF7A5FD3846FEF786FC0CE0FEF79F
:101870007FFC0746FEF78AFD21468D85A469FEF7A9
:1018800097FD3846FEF778FC002CF0D102F000FC02
:1018900002F02CFE3580BDE8F08100006C000020D5
:1018A00066000020B6000020C8000020DC000020F8
:1018B000E400002054000020980000203C8C002010
:1018C000D00000208C000020F8B504466946284866
:1018D00000F0DAFBBDF8000008B12080F8BD6A46D0
:1018E0000021022000F02EFCBDF8000008B120808D
:1018F000F8BDFEF73DFC0746FEF748FD1D4E0025EE
:101900003560FEF755FD3846FEF736FC00201A49D3
:101910001A4A0B681768BB4203D908681268B0FB03
:10192000F2F018B909680A20B1FBF0F06A4600210C
:1019300000F008FC69460E4800F00EFABDF8000001
:1019400008B12080F8BDFEF713FC0746FEF71EFD28
:101950000B4805600B49306808600B49012008708E
:10196000FEF726FD3846FEF707FC2580F8BD00008F
:10197000588F0020B80000209447000880470008D6
:10198000C8000020BC000020C400002002480068FD
:10199000002800D000477047400000202DE9FF4F8D
:1019A00083B00446DDE91795DDE91087DDF854B012
:1019B000139E79480078002805D047F24A10288005
:1019C00007B0BDE8F08F54B1059860B17FB173489E
:1019D000006886420FD246F630602880F0E747F272
:1019E000AD102880ECE747F24F102880E8E746F674
:1019F0002F602880E4E71298B04203D346F63160A6
:101A00002880DDE746F27320B8F1200F01D328804B
:101A1000D6E7B8F1000F04D161498C4201D028808B
:101A2000CEE7B8F11F0F04D15E498C4201D0288067
:101A3000C6E7204601F0FAFE4FF0000AA5F800A024
:101A40005FEAC9700BD05FEA897008D5384600217B
:101A500003E0C0F800A0001D491CB142F9D3129860
:101A600007EB8005CDE90069DDE905012B463A4623
:101A700000F0D8FA0599A1620699E1620499216201
:101A800084F837802060A560C4F854B0BBF1000F23
:101A900025D0C4F858B0169860606762A663A4F8B1
:101AA0003C90002004EB8001C1F87CA0401CC0B237
:101AB0000028F7D004F16400149901F061F8204681
:101AC00000F07CF8FEF754FB0646FEF75FFC364D4F
:101AD0002878401CC0B22870012804D005E03348A3
:101AE0000068A065D7E701F07FFBFEF761FC304698
:101AF000FEF742FB94F8370001F0F0F9204601F0C0
:101B0000EDFA204601F050FE29480188491C018069
:101B100028480078012828D0FEF72AFB0446FEF763
:101B200035FC2978491EC9B2297039B1FEF740FC4D
:101B300007B02046BDE8F04FFEF71EBB01F062FB88
:101B40001D48008848B1FEF733FC2046FEF714FB21
:101B500007B0BDE8F04F01F023BBFEF729FC07B04A
:101B60002046BDE8F04FFEF707BBFEF701FB044639
:101B7000FEF70CFC2978491EC9B2297009B901F099
:101B800041FBFEF715FC2046FEF7F6FA07B0BDE86C
:101B9000F04FFFF733BD00005000002090470008D1
:101BA000748B0020AC8A0020A0000020A40000203C
:101BB000D400002058000020640000200249096879
:101BC000002900D008477047300000202DE9F0417F
:101BD00004460D4655480078002804D047F24E10C0
:101BE0002880BDE8F0815248844203D147F24C106E
:101BF0002880F6E74F48844203D147F24D102880F1
:101C0000EFE75CB9FEF7B4FA0646FEF7BFFB4A48B9
:101C10000468FEF7CDFB3046FEF7AEFAFEF7A8FAF1
:101C20000746FEF7B3FB454E3078401CC0B230701B
:101C3000012801D101F0D8FAFEF7BAFB3846FEF7C9
:101C40009BFA94F8360008283CD2DFE800F004083C
:101C50000C0C1C080C0C204601F078FA13E020460E
:101C600002F0FAF90FE0204602F0F6F994F8340099
:101C7000072808D2DFE800F0070407040404040082
:101C8000204601F07FF804F1640000F05DFF20467B
:101C900000F05AF8204601F099FD29490888401EB5
:101CA0000880204601F0C2FDFF2084F83600FEF7D0
:101CB0005FFA0446FEF76AFB3078401EC1B231700D
:101CC00031B327E0FEF754FA0446FEF75FFB3078A5
:101CD000401EC1B2317041B1FEF76AFB2046FEF7EB
:101CE0004BFA46F62D6028807BE701F08BFA154809
:101CF000008838B1FEF75CFB2046FEF73DFA01F0A4
:101D00004FFAEEE7FEF754FB2046FEF735FAE8E718
:101D100001F078FAFEF74CFB2046FEF72DFA002082
:101D20002880BDE8F041FFF769BC000050000020AA
:101D3000AC8A0020748B0020F4000020A00000205A
:101D4000D40000206400002002490968002900D066
:101D500008477047340000207FB504460D46FEF763
:101D600007FA0646FEF712FB1CB1134800688442CE
:101D700008D1FEF71DFB3046FEF7FEF947F257107B
:101D800028807FBDFEF714FB3046FEF7F5F90B48BF
:101D9000007850B10022CDE902250092019213464D
:101DA0002146074800F0CAFC7FBD04B02946204602
:101DB000BDE8704001F082BEF40000205000002019
:101DC0005452455302490968002900D0084770471A
:101DD000380000202DE9F05F83468A4614461D46F0
:101DE0005D480078002805D046F2AE10288000201B
:101DF000BDE8F09FBAF1000F07D0BAF5004F04D04C
:101E000045F6256028800020F2E7002604B1266010
:101E1000FEF7AEF98146FEF7B9FA504F3868D0F8B0
:101E20004480B8F1000F1CD0A8F10108C0F844802C
:101E30000CB1006C2060FEF70FFB01463868026CA5
:101E4000891AC0F8A410D0F8A8208A4201D2C0F89C
:101E5000A810FEF7ADFA4846FEF78EF92E804046F0
:101E6000C6E75FEA0A4009D5FEF7A2FA4846FEF740
:101E700083F946F2B01028800020B9E7DFF8E0804F
:101E800098F8000048B1FEF793FA4846FEF774F957
:101E900046F6635028800020AAE7012088F8000059
:101EA00001F0A2F9FEF784FA4846FEF765F9002131
:101EB0005B460722084600F0BFFEFEF759F981464F
:101EC000FEF764FA98F80000401EC1B288F80010CE
:101ED00009B901F097F9FEF76BFA4846FEF74CF99D
:101EE000FFF78CFBFEF744F98046FEF74FFA39689E
:101EF00091F8350078B1012820D0032825D046F686
:101F00002E6028803868446CFEF752FA4046FEF78F
:101F100033F920466CE77CB1086C2060FEF79CFA30
:101F200001463868026C891AC0F8A410D0F8A820BD
:101F30008A4201D2C0F8A8102E80E3E70CB1086CE9
:101F4000206046F2A9102880DCE704B1266047F241
:101F5000D9202880D6E7000050000020F40000209F
:101F6000A00000202DE9F0470646884691461F460E
:101F70002A480078002804D047F259103880BDE87C
:101F8000F08746F2D520B8F1000F09D0B9F1000F63
:101F900008D0FEF7EDF80446FEF7F8F926B105E0A3
:101FA0003880ECE73880EAE71D4806684FF0000A01
:101FB000306858B196F83C00C00714D0FEF7F8F925
:101FC0002046FEF7D9F80024756A1BE0FEF7F0F909
:101FD0002046FEF7D1F8C8F800A0C9F800A047F2E3
:101FE00052103880CBE7FEF7E3F92046FEF7C4F83D
:101FF000C8F800A0C9F800A047F254103880BEE726
:102000002D1D641C28680028FAD0C8F80040B06B69
:10201000001BC9F80000A7F800A0B0E7500000209E
:10202000F400002010B5029C02EB84024FF0807493
:1020300042F8044C42F8080C0C3A12481060A2F125
:1020400030004FF01234C4624FF0033282624FF01E
:10205000023242620362C1614FF011318161D100ED
:102060004161611001619100C1604FF007318160F1
:102070004FF0063141604FF0053140F8041951002E
:10208000016010BDD13B00081FB5104A904203D13A
:1020900047F25B1008801FBD0D4A904203D147F202
:1020A0005C1008801FBD0B4A127852B10022CDE9A6
:1020B00002210146009201921346074800F03EFBC0
:1020C0001FBD04B0BDE8104001F0ACBEAC8A0020DA
:1020D000748B0020500000205453555370B51548A0
:1020E0000068002800D08047FEF7B6F9124C134A6A
:1020F00021681268914206D094314B68C31A0B6074
:102100008D682B448B60C2F89800FEF721F9216896
:10211000D1F8B420824201D2C1F8B400084AD1F803
:10212000B8301068834201D2C1F8B80000201060B6
:1021300070BD000044000020F4000020F8000020E2
:102140009C0000202DE9F04107460D461446374813
:102150000078002804D047F275202080BDE8F08187
:10216000334E307818B146F663502080F6E74DB113
:10217000022D07D0042D06D0082D03D045F625608A
:102180002080EBE75FB1FDF7F3FF8046FEF7FEF836
:102190003078401CC0B23070012804D005E047F20E
:1021A0007E202080DAE701F01FF8FEF701F94046B3
:1021B000FDF7E2FFDFF87C800121D8F8000080F80D
:1021C000361023462A46394601F0CEFE208890B1CB
:1021D000FDF7CEFF0446FEF7D9F83178491EC9B2A3
:1021E000317009B901F00EF8FEF7E2F82046BDE8BB
:1021F000F041FDF7C1BFD8F8000000F0A7FFFDF7E0
:10220000B7FF0546FEF7C2F83078401EC1B2317004
:1022100009B900F0F7FFFEF7CBF82846FDF7ACFF51
:10222000FFF7ECF90020208098E700005000002024
:10223000A0000020F40000202DE9F0471646DDE95B
:102240000824644D2D78002D04D047F2752020809D
:10225000BDE8F087604F3D781DB146F663502080A1
:10226000F6E702F00E0547F27E2845F6256945B1EE
:10227000022D06D0042D08D0082D02D0A4F800901D
:10228000E6E713B90EB901B928B132F01E0C05D03A
:102290004FF0010C04E0A4F80080D9E74FF0000CE7
:1022A000BCF1010F0FD0C2F3001247F2792947F2B7
:1022B000782A4FF47A7C4AB142F20F7291421BD9CC
:1022C000A4F80090C4E7A4F80090C1E7634503D3E5
:1022D00047F27B202080BBE73B2E03D947F27A20D0
:1022E0002080B5E73B2902D9A4F80090B0E7632825
:1022F00007D9A4F800A0ABE7604502D3A4F800A07A
:10230000A6E7364A12684FF4FA79B9FBF2F94B4462
:102310005343B3FBFCF34FF4616C00FB0CF0C1EBD7
:10232000011100EB8100304400FB0236F6B3FDF7EB
:102330001FFF8046FEF72AF83878401CC2B23A7078
:10234000012A01D100F050FFFEF732F84046FDF7B8
:1023500013FFDFF88C800121D8F8000080F83610D8
:1023600023462A46314601F0FFFD208890B1FDF753
:10237000FFFE0446FEF70AF83978491EC9B23970E3
:1023800009B900F03FFFFEF713F82046BDE8F0471B
:10239000FDF7F2BED8F8000000F0D8FEFDF7E8FE29
:1023A0000546FDF7F3FF3878401E00E00EE0C1B2AD
:1023B000397009B900F026FFFDF7FAFF2846FDF74E
:1023C000DBFEFFF71BF90020208041E7A4F8008026
:1023D0003EE7000050000020A000002094470008C5
:1023E000F400002000B585B000F01CF8FEF734F8CA
:1023F00004AACDE90202002107480091019100786A
:10240000064900EB400001EB800100231A46044816
:1024100000F094F905B000BD86000020488C002033
:102420005449434B02480068002800D000477047D9
:102430004800002010B5FDF79BFE0446FDF7A6FFFF
:10244000074A1178491C1170FDF7B2FF2046FDF7CD
:1024500093FEFFF7C7FFBDE81040FFF775B8000017
:10246000500000204FF0E021401E4861064A1068ED
:1024700020F07F401060086940F00500086108699D
:1024800040F002000861704720ED00E07047000056
:10249000034A00211160034A118001807047000047
:1024A00070000020740000202DE9F05F04460F4604
:1024B00090469A460A9EFDF75BFE0546FDF766FFCD
:1024C000B8F1000F29D0B8F1010F07D0B8F5004FCF
:1024D00023D06FF4004018EB000F13D1206AB843EB
:1024E0002062C4F824A004F1080B4FF00009BBF8E7
:1024F0000800B0B1584F3878401CC0B2387001287D
:1025000018D019E0FDF754FF2846FDF735FE45F6D3
:10251000256030800020BDE8F09F206A38432062AB
:10252000DFE7FDF745FF2846FDF726FEA6F80090F9
:10253000206AF0E700F058FEFDF73AFF2846FDF765
:102540001BFEDBF80050A8685EE06D6890F888100C
:1025500001F00F0101292CD0022935D0042915D012
:1025600008291DD0FDF704FE0446FDF70FFF38785B
:10257000401EC1B2397091B3FDF71AFF2046FDF736
:10258000FBFD43F6FF2030800020C4E7216AD0F82D
:10259000802011408A421FD1524600F061F81BE0B2
:1025A000216AD0F880201140B1B1524600F058F8AD
:1025B00012E0D0F88010236A0A4699438A420BD170
:1025C000524600F04DF807E0D0F88010226A91439F
:1025D00011B1524600F044F8ADB1A86814E0FFE72D
:1025E00000F010FE1D48008838B1FDF7E1FE2046DE
:1025F000FDF7C2FD00F0D4FDC3E7FDF7D9FE20468C
:10260000FDF7BAFDBDE7002000289ED1FDF7B0FD23
:102610000546FDF7BBFE3878401EC0B2387008B9D9
:1026200000F0F0FDFDF7C4FE2846FDF7A5FD5FEACA
:10263000084001D4FEF7E2FFFDF79AFD0546FDF7DD
:10264000A5FE246AFDF7B4FE2846FDF795FDA6F821
:10265000009020465FE70000A000002064000020FA
:1026600070B5044634342165002565702570E2603C
:10267000A078343C08280ED2DFE800F00D0D0404E9
:102680000D0D0A0A204601F009FA84F8365002E0DE
:10269000042084F836002046BDE8704000F072BB8C
:1026A0000A4C0B4DFDF764FD0646FDF76FFE2168F1
:1026B000491C21602968491C2960FDF779FE3046D4
:1026C000FDF75AFDFEF75AFEECE700004C00002033
:1026D000B800002000B589B00D4A002111600B221E
:1026E000CDE9061208900C4A05910A480B4B126876
:1026F00000681B68CDE90132CDE903011F2000907D
:102700000023074A07A10C48FFF748F909B000BDAC
:102710004C00002054470008504700084C47000870
:10272000A126000875432F4F532D4949492049647C
:102730006C65205461736B00AC8A00202DE9F84F62
:102740000546DDE90BAB0E4617469846DDF82890A6
:102750000D9CFDF70DFD0090FDF718FE1D491E4A6A
:1027600008881288904227D2401C80B208801B49FA
:102770000A88824200D2088019490868056086608C
:10278000C760A0F81080C0F81490A0F818A0C0F896
:102790001CB04068086013480121018112490160A2
:1027A0004160002000F09AFB1048007808B1104901
:1027B00008700020208006E00E490888401C088030
:1027C00044F253602080FDF7F3FD0098BDE8F84F18
:1027D000FDF7D2BC640000205C47000866000020C2
:1027E0005C000020488C0020748B002086000020B4
:1027F00088000020680000203EB53A4C3A4A02ABFF
:10280000206801688D1A914249D015DC374A891831
:102810002DD0374A891822D0364A891833D0364A03
:10282000D14208D1C169CDE90013038B028AC16886
:10283000806801F057F83EBD304969181ED0304A13
:10284000891827D02F4AD142F5D1C169CDE90013AB
:10285000038B028AC168806800F06CFB3EBD009368
:10286000028BC36941698068FFF71EFE3EBD018B84
:10287000C269806802AB00F049FD3EBD806802A9D4
:1028800001F01CF93EBD018BC269806802AB01F00A
:10289000ABF93EBD806802A901F0C4FA3EBD1A48FA
:1028A0001A49007800EB400001EB800000F0C8FC02
:1028B000206802AB0021C269154801F095F915495D
:1028C0000868401E08600028E8D1134800680860C6
:1028D000FDF7C2FD024602AB0021104801F084F969
:1028E0003EBD0000600000205449434BADBAB2BE6B
:1028F0000DF90BFAF2F8F7FF0006F6FF00F7FDF707
:1029000000FFEFFF03FE0FFE88000020488C002030
:10291000908E0020F0000020EC000020588F002056
:102920001F4E204D0024FDF723FC0746FDF72EFD2A
:10293000288820B3FDF73CFD3846FDF71DFCFDF768
:102940008BFD0746FFF758FFFDF786FDC01B31687A
:10295000814200D23060FDF70BFC0746FDF716FD03
:1029600011480168496801602988491E2980FDF7DE
:102970001FFD3846FDF700FC002CD4D0D2E70B4AEF
:102980000021118111605160002000F0B7FAFDF7BD
:102990000FFD3846FDF7F0FBFEF730FE0124EBE7B4
:1029A0006C0000206400002060000020488C0020A3
:1029B000F0B589B02D4900240C802D4D29680029DF
:1029C00008D02C4E3188022908D244F2546101808B
:1029D00009B0F0BD44F252610180F9E726490C606C
:1029E000296801F120020023244F0AE00F608C6067
:1029F000CC600C824C610C834A60203120325B1C1D
:102A00009BB2B6F800C06345F0D32A6841F81C2C8D
:102A10001B490A601B490A601B490C801B490C803A
:102A20001B4A116849B11B491B4D0B682D68AB420D
:102A300007D244F256610180CAE744F25561018031
:102A4000C6E70323CDE906430594089008681349B7
:102A5000126800230968CDE90304CDE90042029120
:102A60000F4A10A11648FEF799FFB1E76800002051
:102A7000584700085C4700086C0000204E4F4E4548
:102A80005C00002060000020640000206600002040
:102A9000604700086847000890470008644700083E
:102AA0002129000875432F4F532D49494920495387
:102AB00052205175657565205461736B00000000EC
:102AC000748B0020034A00211160034A11800180A9
:102AD00070470000780000207C000020F0B5174E01
:102AE000316800290BD0164F398861B131683268DE
:102AF00010323B885B1E9DB2002300240FE045F29C
:102B00001E710180F0BD45F21D710180F0BD0A60AB
:102B10004C600C81CC60103110325B1C9BB2AB421C
:102B2000F5D30C604C600C81CC60064932680A60B9
:102B30003A888A80CC800C810480F0BD78470008F8
:102B4000744700083C8C002010B54289002A12D03E
:102B500003680A490C681C6043680B60CB88448991
:102B60001B1BCB808B88448923448B8000214181AF
:102B7000818101604160104610BD00003C8C002046
:102B80000181002141818181016041607047000025
:102B90002DE9F041DDE906C744890589AC4204D33B
:102BA00046F293503880BDE8F0811C4EB588CDB117
:102BB0003468D4F80080C6F800806D1EB580F588B2
:102BC0006D1CADB2F580B6F80880A84500D23581FD
:102BD0004689002556B1DB060ED403681C600460EC
:102BE00025600CE045F21D703880DCE7046044602D
:102BF00001234381256005E04368236044604389E5
:102C00005B1C4381868943899E4200D28381616037
:102C10002281C4F80CC03D80C5E700003C8C002038
:102C2000034A00211160034A1180018070470000AF
:102C300080000020840000202DE9F0410C4607466A
:102C40001946104D286880F83420002680F8356039
:102C500000F090FD64B104F10806FC6001223946E1
:102C6000286800F011F83946304600F05DF802E0BF
:102C70002868C687066320462968BDE8F04100F051
:102C800017B80000F400002010B5C28701630024CB
:102C9000002309E04B600B600B614B610B83CB6140
:102CA00088602031641CA4B29442F3D310BD0000AC
:102CB000002809D04268C1F8C42000F10801096861
:102CC0008968096AC161704791F83400022805D00B
:102CD000072807D005A0C1F8C400704704A0C1F8B8
:102CE000C400704704A0C1F8C40070472000000071
:102CF0005461736B205100005461736B2053656DF8
:102D00000000000007A2C1F8C42000F10801096812
:102D1000002903D08968096AC161704701A1C161B6
:102D2000704700002000000030B58A6892F83740F4
:102D300002890025002A03D0521C028102680CE09F
:102D4000012202814D600D600160416030BD9368D9
:102D500093F83730A34202D85268002AF7D132B133
:102D6000136853B10B604A605960116030BD4D600B
:102D700042680A605160416030BD11600D604A6078
:102D8000016030BD70B50646356BF48F07E0E8682A
:102D90000830294600F009F82035641EA4B2002C42
:102DA000F5D10020F087306370BD10B50289002492
:102DB000012A0BD00A6862B14B6873B153601A6084
:102DC0000289521E02814C600C6010BD0460446098
:102DD000F6E74A6814600260F2E754604260EFE789
:102DE000F8B5064606980C46002594F836100829D2
:102DF0001CD2DFE801F01B1B04041B1B222294F8E9
:102E00003410032913D0E265A4F86030206436B191
:102E10002046FFF7B7FF21463046FFF773FF2046F5
:102E200000F03CFE3434A57065702570F8BD00904C
:102E30002146304600F020F8E9E794F834100329E1
:102E400014D0E265A4F860302064204601F004F953
:102E500036B12046FFF796FF21463046FFF752FF76
:102E600004203434A07065702570F8BD00902146B0
:102E7000304600F001F8E8E770B5049D0C6BC98F8F
:102E80000AE0E668864204D1206162612383E5613D
:102E900070BD2034491E89B20029F2D170BD0000F6
:102EA00010B50024064802E02034E4B2001D016899
:102EB0000029F9D00068FDF766F92044C0B210BDC2
:102EC0002C0000200020044A002142F82010401C61
:102ED0000028FAD0704700002C000020410900F0C3
:102EE0001F020120C2F11F029040034B53F8212022
:102EF000024343F8212070472C000020410900F0D4
:102F00001F020120C2F11F029040034B53F8212001
:102F1000824343F8212070472C000020034A0021FF
:102F20001160034A11800180704700008C0000206E
:102F3000900000202DE9FF4F83B08146DDE9107A33
:102F40008B461E46FDF714F90446FDF71FFADFF81D
:102F5000F48098F80000401CC0B288F800000128F6
:102F600001D100F041F9FDF723FA2046FDF704F9FD
:102F700009F10800048924B1B10500D401240568D1
:102F800041E0F00601D4002300E01023CDE9007AEF
:102F9000594609F12000059AFFF7FAFDFDF7E8F818
:102FA0000446FDF7F3F998F80010491EC9B288F8F5
:102FB000001039B1FDF7FCF907B02046BDE8F04F2D
:102FC000FDF7DAB800F01EF91F48008848B1FDF798
:102FD000EFF92046FDF7D0F807B0BDE8F04F00F05C
:102FE000DFB8FDF7E5F907B02046BDE8F04FFDF783
:102FF000C3B8A9686D6800975A464846059BFFF715
:10300000EFFE641EA4B2002CF3D1FDF7B1F8044624
:10301000FDF7BCF998F80000401EC1B288F8001016
:1030200009B900F0EFF8FDF7C3F92046FDF7A4F861
:10303000300401D4FEF7E2FA0020AAF8000007B03D
:10304000BDE8F08FA0000020640000200020074BA6
:10305000002200EB400103EB81010A810A604A6013
:10306000401CC0B22028F4D370470000488C0020D8
:1030700010B5044694F83700FFF730FF074994F87D
:1030800037000978884204D12046BDE8104000F09E
:1030900025B82046BDE8104000F002B886000020A8
:1030A00090F837100C4A01EB410102EB810100233B
:1030B0000A89002A08D0521C0A810A68C26003618A
:1030C0000A6810610860704701220A81C3600361C9
:1030D0000860486070470000488C002090F8371066
:1030E0000B4A01EB410102EB810100230A89002A0E
:1030F00007D0521C0A81C3604A680261D0604860F0
:10310000704701220A81C36003610860486070470C
:10311000488C002010B5018900290DD001290BD061
:103120000024022909D001684368CA681461CC6090
:103130000B61D9600260416010BD016842680A619C
:10314000CC601461D1600260416010BD70B504466E
:10315000124994F8370000EB400001EB8001206930
:10316000E2680025002808D00B895B1E0B81C26035
:1031700092B110612561E56070BD2AB10889401ED9
:10318000088115610A60F5E70D810D604D6094F8C6
:103190003700FFF7B3FEEDE74860EBE7488C00200F
:1031A00010B5FCF7E5FF0B4A002111700B4A0A49E4
:1031B000116051F8902F521C0A6009490A68521C8C
:1031C0000A60084A4FF080511160BDE81040FCF7DA
:1031D000D3BF000087000020748B0020F80000207F
:1031E000CC00002004ED00E010B504480078012870
:1031F00003D1FDF731F90249086010BDA00000209D
:103200009400002010B50A48007800280ED1FDF780
:1032100023F908490968401A07490A68824200D21E
:10322000086006490A68824200D2086010BD0000AA
:10323000A000002094000020980000209C000020A6
:1032400070B504462748007801284AD1FCF790FF62
:103250000546FDF79BF8216849B1234881420DD10D
:10326000FDF7A6F82846BDE87040FCF785BFFDF7DE
:103270009FF82846BDE87040FCF77EBF886D08B116
:10328000401E8865886D30B1FDF792F82846BDE88C
:103290007040FCF771BF2089022806D2FDF788F83C
:1032A0002846BDE87040FCF767BF1048007830B191
:1032B000FDF77EF82846BDE87040FCF75DBF20466C
:1032C000FFF728FF2068416D39B18165FDF770F87F
:1032D0002846BDE87040FCF74FBF05490968816585
:1032E000F4E770BDA8000020AC8A0020A0000020F8
:1032F000A4000020034A00211160034A11800180CC
:1033000070470000AC000020B00000202DE9F84F0D
:103310000646894690461F46FCF72AFF0446FDF7FD
:1033200035F806F108054FF0000B288950B1DFF899
:10333000BCA09AF80000401CC0B28AF80000012826
:103340001BD01CE0356A681C0DD06D1C3562C6F8B8
:103350002480FDF72DF82046FCF70EFFA7F800B0FB
:103360002846BDE8F88FFDF723F82046FCF704FF58
:1033700046F6C55038800020F3E7FFF735FFFDF72C
:1033800017F82046FCF7F8FE5FEA895001D52C8932
:1033900000E001242D680AE0A9686D6800231A4640
:1033A0003046CDF80080FFF71BFD641EA4B2002C50
:1033B000F2D1346AFCF7DCFE0546FCF7E7FF9AF829
:1033C0000000401EC1B28AF8001009B9FFF71AFFC9
:1033D000FCF7EEFF2846FCF7CFFE5FEA094001D478
:1033E000FEF70CF9A7F800B02046BAE7A0000020CD
:1033F0000EB59E4E9E4D3068440004E0204602AA61
:103400000021FEF79FFE28780128F7D102A8FEF7D9
:10341000D5F94FF0000A974832680168914203D904
:1034200001683268B1FBF2FABAF1000F03D100680B
:103430000A21B0FBF1FA4FF47A7942F210764FF09C
:103440000008F5E08C48824202D23046012113E0A8
:103450008A48824202D248460A210DE088488242C8
:1034600002D26420642107E08648824202D20A2008
:10347000494601E001203146B2FBF1F15843B0FB6F
:10348000F1F08149301A80B2088080490A8882426E
:1034900003D2088001E07C480680FEF777FA002717
:1034A000FCF766FE8346FCF771FF794C2568FCF754
:1034B0007FFF5846FCF760FE3AE0FCF759FE0090AB
:1034C000FCF764FFDFF8CCB19BF80000401CC0B2F1
:1034D0008BF80000012801D1FFF786FEFCF768FF9A
:1034E0000098FCF749FED5F89C00C5F8A000C5F887
:1034F0009C80FCF73DFE0090FCF748FF9BF8000025
:10350000401EC0B28BF80000D8B1FCF751FF009804
:10351000FCF732FE55F8A00F0744FCF729FE83465E
:10352000FCF734FF2D6AFCF743FF5846FCF724FEF6
:10353000002DC2D17FB35048874215D235460120B5
:1035400026E0FFF75FFE5448008838B1FCF730FFF3
:103550000098FCF711FEFFF723FEDBE7FCF728FFDE
:103560000098FCF709FED5E74448874202D24D4651
:103570000A200DE04248874202D26425642007E019
:103580004048874202D20A25484601E001253046DC
:10359000B7FBF0F702E0FFE700250127FCF7E8FDA5
:1035A0008346FCF7F3FE2468FCF702FF5846FCF75D
:1035B000E3FD23E0D4F8A0006843B0FBF7F080B24D
:1035C000B04200D93046A4F88C00B4F88E10814285
:1035D00001D2A4F88E0004F1AC0202AB111D20460A
:1035E000FEF7C0FCFCF7C4FD8346FCF7CFFED4F821
:1035F000C040FCF7DDFE5846FCF7BEFD002CD9D1DB
:1036000026480178012904D180F8008002A8FEF73D
:10361000D5F8FCF721FF01460198081A20490A68ED
:10362000824200D2086002AA00215046FEF78AFDBD
:10363000FCF712FF0190FCF79BFE1A490860FCF7AB
:1036400097FD0546FCF7A2FE1748184C016821605B
:10365000C0F80080FCF7ACFE2846FCF78DFD14484E
:10366000236802689A427FF616AFEBE680470008AF
:10367000C400002094470008801A060000093D009D
:10368000005A62020084D717B4000020B600002060
:10369000D0000020A000002064000020B200002024
:1036A000C800002054000020B8000020C000002006
:1036B000BC00002030B589B01D4A002111601D4AB0
:1036C00011601D4A11601D4A11701D4A11701D4A7A
:1036D0001368002B0AD01C4C1C4D23682D68AB428C
:1036E00008D246F62C61018009B030BD46F62B6148
:1036F0000180F9E7164B1D781F2D03D346F62A618A
:103700000180F1E70325CDE90615089005911148E0
:10371000246812680068CDE90341CDE901201878DA
:10372000009000230C4A0DA11148FEF737F9DBE7A2
:10373000B8000020C0000020BC000020C400002011
:10374000B2000020844700088C470008904700081A
:103750007C47000888470008F133000875432F4F65
:10376000532D4949492053746174205461736B008F
:10377000C88D002038B50446022500290ED06B46BE
:103780000222204600F0F0FBBDF8000010B184F8E2
:10379000365005E0032084F8360001E084F8365006
:1037A0002046FFF7D3FC38BD0023C0F8BC30064AE2
:1037B0001168002905D0C0F8C010C1F8BC00106025
:1037C0007047C0F8C030FAE7D0000020D0F8BC2025
:1037D000D0F8C0100023002A08D079B1C2F8C01078
:1037E000C1F8BC20BC30436003607047064A1160DA
:1037F00009B1C1F8BC30C0F8C0307047C2F8C03061
:10380000C0F8BC3070470000D0000020044A0021FE
:103810001160044A1180044A116001807047000061
:10382000D0000020D4000020CC00002070B5044659
:1038300000252560A5606560E56025616561A5617D
:10384000E56125A020626562A562E5622563E587E2
:103850002564E565A4F86050002104F16400FFF7D9
:103860008FF944F8745F6560E560A5822561743C5A
:10387000002004EB8001CD67401CC0B20028F8D0C6
:103880003434256125676567656084F85650E567BF
:10389000A56725814FF000406061A561E561256263
:1038A0006562A4F85850A4F85A50E5652566FCF7FF
:1038B000D3FD6066A566C4F88050C4F884502570B6
:1038C0006570A5702020E070C4F88850C4F88C5052
:1038D00003A0C4F8900070BD3F5461736B000000FA
:1038E000200000002DE9FC5F0446DDE90C758946E7
:1038F00092469846FCF73CFC8346FCF747FD644E35
:103900003078401CC0B23070012801D1FFF76CFC48
:10391000FCF74EFD5846FCF72FFC0CB95D480468D7
:103920000020288094F83600DFF86CB108287CD29B
:10393000DFE800F00404333304043333CDE90075C9
:1039400043465246494604F16400FFF721F9FCF76B
:103950000FFC0446FCF71AFD3178491EC9B23170DC
:1039600031B1FCF725FD2046BDE8FC5FFCF704BC47
:10397000FFF748FCBBF8000040B1FCF719FD2046FA
:10398000FCF7FAFBBDE8FC5FFFF70ABCFCF710FD93
:103990002046BDE8FC5FFCF7EFBB94F8340002283A
:1039A00019D0CDE9007543465246494604F16400FA
:1039B000FFF7EEF8FCF7DCFB0446FCF7E7FC317898
:1039C000491EC9B2317029B3FCF7F2FC2046BDE8AC
:1039D000FC5FFCF7D1BB53464A46214600200097C6
:1039E000FFF7FEF9FCF7C4FB0446FCF7CFFC307888
:1039F000401EC1B2317009B9FFF704FCFCF7D8FCD6
:103A00002046FCF7B9FB5FEA08402CD4BDE8FC5F18
:103A1000FDF7F4BDFFF7F6FBBBF8000050B1FCF773
:103A2000C7FC2046FCF7A8FB00E00AE0BDE8FC5F0D
:103A3000FFF7B6BBFCF7BCFC2046BDE8FC5FFCF71B
:103A40009BBBFCF795FB0446FCF7A0FC3178491EB4
:103A5000C9B2317049B1FCF7ABFC2046FCF78CFBD6
:103A600046F62D602880BDE8FC9FFFF7CBFBBBF836
:103A7000000038B1FCF79CFC2046FCF77DFBFFF70B
:103A80008FFBEDE7FCF794FC2046FCF775FBE7E7BE
:103A9000A0000020F40000206400002010B50446BF
:103AA000204600F0D9FA94F83610490704D420468D
:103AB000BDE81040FFF7DCBA10BD00002DE9F04171
:103AC00004460D46FCF754FB0646FCF75FFC002756
:103AD0002F8094F8360008286DD2DFE800F0040447
:103AE00004040D394959FCF763FC3046FCF744FBEC
:103AF00047F2531028805AE0344D2878401CC0B259
:103B00002870012801D1FFF76FFBFCF751FC30460C
:103B1000FCF732FB94F88A00401EC0B284F88A0099
:103B200020B984F836702046FFF7B8FFFCF720FB79
:103B30000446FCF72BFC2978491EC9B2297009B943
:103B4000FFF760FBFCF734FC2046FCF715FB2EE08A
:103B500094F88A00401EC0B284F88A0010B901208F
:103B600084F83600FCF724FC3046FCF705FB1EE029
:103B700094F88A00401EC0B284F88A0010B902206E
:103B800084F83600FCF714FC3046FCF7F5FA0EE03A
:103B900094F88A00401EC0B284F88A0010B903204D
:103BA00084F83600FCF704FC3046FCF7E5FABDE883
:103BB000F041FDF723BDFCF7FBFB3046FCF7DCFAD8
:103BC00046F62D602880BDE8F0810000A0000020AE
:103BD00008B504480068FEF7F5F869460020FDF7CF
:103BE000F5FF08BDF40000202DE9F84F04468A4691
:103BF00016461F46FCF7BCFA8046FCF7C7FB864D0D
:103C00002878401CC0B22870012801D1FFF7ECFAD7
:103C1000FCF7CEFB4046FCF7AFFA0CB97F480468CE
:103C200026640020388094F83600DFF8F48146F6E8
:103C3000C55908287ED2DFE800F004045353040479
:103C40005353666C701C11D0761C6664FCF790FAB6
:103C50000446FCF79BFB2878401EC0B2287060B376
:103C6000FCF7A6FB2046FCF787FAC0E0FCF780FAD9
:103C70000446FCF78BFB2878401EC1B2297049B17D
:103C8000FCF796FB2046FCF777FAA7F80090002097
:103C9000BDE8F88FFFF7B6FAB8F8000038B1FCF7C6
:103CA00087FB2046FCF768FAFFF77AFAEDE7FCF7A6
:103CB0007FFB2046FCF760FAE7E7FFF7A3FAB8F8C6
:103CC000000038B1FCF774FB2046FCF755FAFFF70B
:103CD00067FA8CE0FCF76CFB2046FCF74DFA86E0B7
:103CE00094F83400072814D0666C701C32D0761C0F
:103CF0006664FCF73DFA0446FCF748FB2878401E52
:103D0000C0B22870C8B3FCF753FB2046FCF734FA66
:103D10006DE000231A46214618460096FFF760F82A
:103D2000666CFCF725FA0446FCF730FB2878401E49
:103D3000C0B200E048E0287008B9FFF763FAFCF76A
:103D400037FB2046FCF718FA5FEA0A404FD4FDF72C
:103D500055FC4CE0FCF70CFA0446FCF717FB2878FE
:103D6000401EC1B2297049B1FCF722FB2046FCF786
:103D700003FAA7F8009000208AE712E0FFF742FA62
:103D8000B8F8000038B1FCF713FB2046FCF7F4F953
:103D9000FFF706FAEDE7FCF70BFB2046FCF7ECF922
:103DA000E7E7FFF72FFAB8F8000038B1FCF700FB9F
:103DB0002046FCF7E1F9FFF7F3F918E0FCF7F8FA11
:103DC0002046FCF7D9F912E0FCF7D2F90446FCF7DB
:103DD000DDFA2878401EC1B2297051B1FCF7E8FA2B
:103DE0002046FCF7C9F946F62D603880002630469B
:103DF0004EE7FFF707FAB8F8000038B1FCF7D8FA39
:103E00002046FCF7B9F9FFF7CBF9ECE7FCF7D0FA5D
:103E10002046FCF7B1F9E6E7A0000020F4000020FE
:103E2000640000202DE9F04104460D46FCF7A0F99E
:103E30008046FCF7ABFA3F4804B9046800683E4F7F
:103E400084420BD1387848B1FCF7B2FA4046FCF70F
:103E500093F946F663502880BDE8F0810020288061
:103E600094F83600012608285AD2DFE800F0042B27
:103E700036414C4C4C4C3878401CC0B2387001284C
:103E800001D1FFF7B1F9FCF793FA4046FCF774F95A
:103E9000042084F8360084F88A602046FFF756F93B
:103EA000FCF766F90446FCF771FA3978491EC9B285
:103EB000397009B9FFF7A6F9FCF77AFA2046FCF742
:103EC0005BF929E0052084F8360084F88A60FCF765
:103ED0006FFA4046FCF750F91EE0062084F83600E1
:103EE00084F88A60FCF764FA4046FCF745F913E071
:103EF000072084F8360084F88A60FCF759FA4046B7
:103F0000FCF73AF908E014F88A0F401C2070FCF71F
:103F10004FFA4046FCF730F9BDE8F041FDF76EBBC3
:103F2000FCF746FA4046FCF727F946F62D60288054
:103F300092E70000F4000020A000002010B500204F
:103F40000022074B074C06E003EBC0010A608A80A1
:103F5000CA80401C80B221888842F5D310BD000081
:103F60009C870020A8470008F0B5384E002547F28E
:103F70007E273468042A08D099B33746082A3F6858
:103F80000F4410D0C76401651CE00A1B521E12F5D5
:103F9000803F04D9C5640565C5611F80F0BDC1645B
:103FA000521C02650EE0826C0A44A2EB040CACF1D8
:103FB000010C8C4501D2C26400E0C764C16C0A1BCD
:103FC00002658164224AC16C1288B1FBF2F402FBE3
:103FD000141189B21F4A02EBC102918839B11168EC
:103FE00022E0FFE7C5640565C5611F80F0BD45613E
:103FF00085611060012191801BE0CC6C3768E41B67
:104000000C65076DA74208D94C690CB121460BE03D
:10401000456181614861002106E08C698CB1846151
:1040200041616061886100210029E6D19188491CC5
:104030009180D48891888C4200D2D180C2611D8049
:10404000F0BD8561416188611060ECE7D800002017
:10405000A84700089C87002010B5C169002915D029
:10406000002404650A68824204D142690A6032B1C0
:10407000946104E0836942695A6102B193614461C9
:104080008461C461C4648888401E888010BD0000BB
:1040900010B500200022064B064C04E003EBC001E3
:1040A000CA80401C80B221888842F7D310BD00002E
:1040B0009C870020A84700082DE9F05FFCF758F81E
:1040C0000446FCF763F95D4A1178491CC9B21170C6
:1040D000012901D1FFF788F8FCF76AF92046FCF7BF
:1040E0004BF8FCF7B9F98346554E3068401C3060F8
:1040F00054490988B0FBF1F201FB120080B2524929
:1041000001EBC00004680025A8464FF003094FF0FA
:10411000040A94B3676994F83600082859D2DFE896
:1041200000F058045812582F583DE06C3168421A7C
:104130002265884205D184F836802046FFF7AEFC20
:1041400047E0012545E0E06C3168421A226588426B
:1041500014D1C4F85C80A4F86080FCF77DF9206479
:104160002046FEF70FFE2046FFF798FC84F83680C5
:1041700084F8359084F834802BE02CE0012528E089
:10418000E06C3168421A2265884205D184F836A075
:104190002046FFF761FF1CE001251AE0E06C316862
:1041A000421A2265884213D1C4F85C80A4F860806A
:1041B000FCF752F920642046FEF7E4FD2046FFF7A5
:1041C0004BFF84F836A084F8359084F8348000E002
:1041D00001253C4600E00125002D9AD0FCF73CF972
:1041E000A0EB0B0019490A68824200D20860FBF775
:1041F000BFFF0446FCF7CAF8104A1178491EC9B23D
:10420000117031B1FCF7D4F82046BDE8F05FFBF740
:10421000B3BFFEF7F7FF0E48008840B1FCF7C8F8BF
:104220002046FBF7A9FFBDE8F05FFEF7B9BFFCF73A
:10423000BFF82046BDE8F05FFBF79EBFA00000205E
:10424000D8000020A84700089C870020DC00002040
:10425000640000201CB5084C002101AB6A460846EA
:10426000FDF7B8FDBDF804000028F5D1207801283D
:10427000F2D1FFF721FFEFE75800002030B589B0F9
:1042800004461B48002505601A480560FFF756FEE6
:104290001948016851B11949194B0A681B689A42BB
:1042A00008D247F21320208009B030BD47F2122017
:1042B0002080F9E7134A13781F2B03D347F211200C
:1042C0002080F1E70B23CDE90653059508940E4BAA
:1042D000096800681B68CDE90315CDE90103107872
:1042E00000900023094A0AA10E48FDF757FBDBE7BF
:1042F000D8000020DC0000209C470008A4470008EC
:104300009047000898470008A04700085542000859
:1043100075432F4F532D494949205469636B2054ED
:1043200061736B00908E002030B589B02C4900235A
:104330000B602C4C2C4A2D492568002D05D01268A5
:104340002468B2FBF4F20A6004E012680A24B2FBAB
:10435000F4F20A60264A0968116026490B60264972
:104360000B600021254C264D06E004EBC102938032
:10437000D3801360491C89B22A889142F5D3214A1F
:10438000116851B12049214D0C682D68AC4208D20A
:1043900047F24831018009B030BD47F24731018012
:1043A000F9E71B4C25781F2D03D347F246310180D6
:1043B000F1E70B25CDE90635059308900868154906
:1043C00012680968CDE90303CDE901212078009046
:1043D0000023114A11A11748FDF7E0FADBE70000BE
:1043E000E0000020AC47000894470008EC000020E3
:1043F000F0000020E8000020E4000020248A0020D3
:10440000BC470008B0470008B847000890470008BC
:10441000AA470008B44700081545000875432F4F08
:10442000532D4949492054696D6572205461736B5D
:1044300000000000588F002070B5022280F82A206A
:10444000274C0129236815D0016AB9B1194481614B
:10445000244A81691288B1FBF2F502FB151292B26F
:10446000214D05EBC202002516685EB1C91AC16173
:10447000116824E0416A19448161E9E7416A1944FD
:104480008161E5E7056145611060012090801BE0D6
:104490008B6926689B1BCB61C6699E4208D90B6954
:1044A0000BB119460BE0056141610861002106E08E
:1044B0004B697BB1436101611861486100210029AA
:1044C000E6D19088401C9080D1889088814200D2AB
:1044D000D08070BD4561016148611060EEE7000069
:1044E000E8000020BC470008248A002010B5002006
:1044F0000022064B064C04E003EBC001CA80401CBE
:1045000080B221888842F7D310BD0000248A0020A1
:10451000BC4700081CB5DFF89CA0DFF89CB0274F13
:10452000DFF89C90002101AB6A460846FDF752FC7B
:1045300001A8FDF7A5F8FBF78FFF80463868401CFF
:104540003860BAF80010B0FBF1F201FB120080B243
:104550000BEBC00004680025DCB12669A06939684E
:10456000884214D1204600F02DF8208D022809D071
:10457000032084F82A00A26812B12046E16890471F
:10458000344607E001212046FFF756FFF3E70125F7
:1045900000E00125002DDFD0FBF75EFFA0EB080453
:1045A00001A8FDF79FF8D9F80000A042BAD2C9F8D7
:1045B0000040B7E7BC470008248A0020E80000203C
:1045C000E400002010B5104A81691288B1FBF2F3B3
:1045D00002FB131189B20D4A02EBC10100240B68E2
:1045E0000269834203D10A602AB1546103E043693E
:1045F0001A6102B15361012280F82A2004614461EA
:104600008888401E888010BDBC470008248A00208E
:1046100030B58FB001200590000406900024079467
:1046200002250C950D904FF4E0100E9005A8FCF7B4
:1046300081FA0F200090019502946802039004947F
:1046400002216846FCF7B8F8FCF712FA4FF47A71C9
:10465000B0FBF1F0FCF7D0FD0420FCF7BFFD002219
:104660001146501EFCF776F80FB030BD0D480168BA
:1046700041F00101016041680B4A1140416001684D
:104680000A4A11400160016821F4802101604168FB
:1046900021F4FE0141604FF41F0181600449C00311
:1046A00008607047001002400000FFF8FFFFF6FEB0
:1046B00008ED00E0FEE702E008C8121F08C1002A6A
:1046C000FAD170477047002001E001C1121F002A93
:1046D000FBD1704700B58BB0FBF7EAFFFFF798FFFF
:1046E0000AA8FCF753FE00200AA903220590CDE991
:1046F0000721069033220B4BCDE901324FF40071B4
:10470000CDE903100220009006480023064A07A1C5
:10471000C838FDF743F90AA8FDF722F80BB00020CE
:1047200000BD0000C4010020490200084170702053
:104730005461736B205374617274000000000000B8
:104740000102030401020304060708091C76002085
:104750000C000000800000001C7800200A0000000F
:104760005C7900200C000000800000005C7B0020D1
:1047700080000000640000005C7D00200B00000051
:104780000A0000009C8300200C0000008000000054
:1047900040000000E80300000A0000009C850020A3
:1047A0000C0000008000000011000B000A00000057
:1047B000248800200C000000800000001100000090
:1047C000E047000800000020FC000000B64600089A
:1047D000DC480008FC000020249F0000C6460008BA
:1047E00000A24A04000000000000000000000000D9
:1047F00000000000000000000000000000000000B9
:1048000000000000000000000000000000000000A8
:104810000000000000000000000000000000000098
:104820000000000000000000000000000000000088
:104830000000000000000000000000000000000078
:104840000000000000000000000000000000000068
:104850000000000000000000000000000000000058
:104860000000000000000000000000000000000048
:104870000000000000000000000000000000000038
:104880000000000000000000000000000000000028
:104890000000000000000000000000000000000018
:1048A0000000000000000000000000000000000008
:1048B00000000000000000000000000000000000F8
:1048C00000000000000000000000000000000000E8
:0C48D000000000000000000000000000DC
:0400000508000131BD
:00000001FF
