:020000040800F2
:1000000068060020CD0100080D150008A3130008A4
:1000100009150008870200081516000800000000F6
:10002000000000000000000000000000DF010008E8
:100030008B02000800000000E301000849150008D9
:10004000E7010008E7010008E7010008E7010008F0
:10005000E7010008E7010008E7010008E7010008E0
:10006000E7010008E7010008E7010008E7010008D0
:10007000E7010008E7010008E7010008E7010008C0
:10008000E7010008E7010008E7010008E7010008B0
:10009000E7010008E7010008E7010008E7010008A0
:1000A000E7010008E7010008E7010008E701000890
:1000B000E7010008E7010008E7010008E701000880
:1000C000E7010008E7010008E7010008E701000870
:1000D000E7010008E7010008E7010008E701000860
:1000E000E7010008E7010008E7010008E701000850
:1000F000E7010008E7010008E7010008E701000840
:10010000E7010008E7010008E7010008E70100082F
:10011000E7010008E7010008E7010008E70100081F
:10012000E7010008E7010008E7010008E70100080F
:1001300000F002F800F03AF80AA090E8000C8244BF
:100140008344AAF10107DA4501D100F02FF8AFF29C
:10015000090EBAE80F0013F0010F18BFFB1A43F0A5
:100160000103184794150000B4150000103A24BF8D
:1001700078C878C1FAD8520724BF30C830C144BF0C
:1001800004680C607047000000230024002500264E
:10019000103A28BF78C1FBD8520728BF30C148BFEA
:1001A0000B6070471FB51FBD10B510BD00F031F8D2
:1001B0001146FFF7F7FF01F02FFA00F04FF803B4F4
:1001C000FFF7F2FF03BC00F057F800000948804732
:1001D00009480047FEE7FEE7FEE7FEE7FEE7FEE729
:1001E000FEE7FEE7FEE7FEE704480549054A064B41
:1001F00070470000BD1500083101000868000020AC
:1002000068060020680200206802002070477047DE
:100210007047754600F02CF8AE4605006946534617
:1002200020F00700854618B020B5FFF7DDFFBDE8D8
:1002300020404FF000064FF000074FF000084FF04D
:10024000000B21F00701AC46ACE8C009ACE8C009DE
:10025000ACE8C009ACE8C0098D46704710B504464B
:10026000AFF300802046BDE81040FFF7A8BF0000B4
:10027000004870470800002001491820ABBEFEE787
:1002800026000200704700BFFEE700BFFEE731B561
:10029000002400F0B3F9044600BF00F0AFF9001BE2
:1002A00000998842F9D338BD2DE9F8470246002469
:1002B000002000258446002700237BE14FF0010841
:1002C00008FA03F4D1F8008008EA0400A0427DD1C6
:1002D000DFF8ECA2D1F80480A8EB0A09D0453AD0A7
:1002E00014DCB8F1030F50D009DCB8F1000F31D0A5
:1002F000B8F1010F1CD0B8F1020F49D120E0B8F1DC
:10030000110F18D0B8F1120F42D11EE0B9F5881FB5
:1003100025D006DCB9F5803F20D0B9F5801F37D154
:100320001AE0B9F5001F18D0B9F5041F30D117E055
:10033000D1F80CC02DE0D1F80C8008F1040C28E0B5
:10034000D1F80C8008F1080C23E0D1F80C8008F1FA
:100350000C0C1EE000BF00BF00BF00BF00BF00BF0D
:10036000D1F80880B8F1000F02D14FF0040C0BE077
:10037000D1F80880B8F1010F03D14FF0080C1461D7
:1003800002E04FF0080C546103E04FF0000C00E075
:1003900000BF00BFFF2801D8904601E002F1040829
:1003A0004646FF2802D84FEA830803E0A3F1080875
:1003B0004FEA88084746D6F800804FF00F0909FA3F
:1003C00007F928EA09080CFA07F900E07AE048EA98
:1003D0000908C6F80080D1F8048008F08058B8F108
:1003E000805F6FD100BFDFF8DC81D8F8188048F05B
:1003F0000108DFF8D091C9F81880C846D8F81880ED
:1004000008F00108CDF8008000BF00BF4FEAB938FE
:100410004FEA930958F829504FEA83784FEA187940
:100420004FF00F0808FA09F825EA0805DFF8988167
:10043000424502D14FF0000824E0DFF890814245A8
:1004400002D14FF001081DE0DFF88481424502D15E
:100450004FF0020816E0DFF87C81424502D14FF0F0
:1004600003080FE0DFF87081424502D14FF0040825
:1004700008E0DFF86881424502D14FF0050801E04D
:100480004FF006084FEA83794FEA197908FA09F81C
:1004900048EA0505DFF848814FEA930948F82950F2
:1004A000D1F8048008F48038B8F5803F0BD1DFF82C
:1004B0003481D8F8008048EA0008DFF82891C9F8AC
:1004C00000800AE075E0DFF81C81D8F8008028EA97
:1004D0000008DFF81091C9F80080D1F8048008F412
:1004E0000038B8F5003F0ED1DFF8F88008F10408B5
:1004F000D8F8008048EA0008DFF8E89009F104091C
:10050000C9F800800DE0DFF8DC8008F10408D8F8B5
:10051000008028EA0008DFF8CC9009F10409C9F846
:100520000080D1F8048008F48018B8F5801F0ED13F
:10053000DFF8B08008F10808D8F8008048EA000821
:10054000DFF8A09009F10809C9F800800DE0DFF894
:10055000948008F10808D8F8008028EA0008DFF83D
:10056000849009F10809C9F80080D1F8048008F4E2
:100570000018B8F5001F0ED1DFF8688008F10C08EC
:10058000D8F8008048EA0008DFF8589009F10C0913
:10059000C9F800800DE0DFF84C8008F10C08D8F8AD
:1005A000008028EA0008DFF83C9009F10C09C9F83E
:1005B00000805B1C102BFFF481AEBDE8F8870000C3
:1005C000000011100010024000080140000C014022
:1005D000001001400014014000180140001C0140BF
:1005E0000800014000040140C2684A40C2607047F0
:1005F0000AB1016101E00B04036170470148006822
:10060000704700000400002002480068401C0149B7
:10061000086070470400002010B50848006840F0EA
:10062000100006490860032000F08CF80F2000F04D
:1006300007F800F017F8002010BD0000002002406D
:1006400070B5044600F0DEF94FF47A71B0FBF1F5B5
:10065000284600F088FE00222146501E00F034F8A3
:10066000002070BD08B500BF1648806940F0010049
:10067000144988610846806900F00100009000BFBD
:1006800000BF032000F05EF8002211466FF00B005F
:1006900000F01AF8002211466FF00A0000F014F87A
:1006A000002211466FF0090000F00EF800221146FA
:1006B000101F00F009F800221146501E00F004F847
:1006C00008BD0000001002402DE9F05F80460D4695
:1006D0001646002700F01CFF074639462A463346D7
:1006E00001F00700C0F1070ABAF1040F02D94FF078
:1006F000040A01E0C0F1070AD14600F1040ABAF188
:10070000070F02D24FF0000A01E0A0F1030AD4461D
:100710004FF0010A0AFA09FAAAF1010A0AEA020AE2
:100720000AFA0CFA4FF0010B0BFA0CFBABF1010BC0
:100730000BEA030B4AEA0B042146404600F0F0FEA8
:10074000BDE8F09F00BF00F00702064B19684FF6A6
:10075000FF031940044B0B4343EA0221014B19608C
:1007600000BF70470CED00E00000FA0570B50446CC
:100770000D4600269F48006800F00700A8420ED2F0
:100780009C48006820F0070028439A490860084602
:10079000006800F00700A84201D0012070BD207859
:1007A00000F00200022807D19348406820F0F000D2
:1007B000A168084390494860207800F001000028B3
:1007C0007CD0606801282DD12020010391FAA1F18D
:1007D000B1FA81F108430121B1EB601F02D18648D3
:1007E00000680FE02020010391FAA1F1B1FA81F134
:1007F00008430221B1EB601F02D17F48006A01E08B
:100800007D48406A20210A0392FAA2F2B2FA82F2EB
:10081000114301F01F02012191400840002860D1DE
:100820000120BBE7606802282CD12020010591FA45
:10083000A1F1B1FA81F108430121B1EB601F02D1AE
:100840006D4800680FE02020010591FAA1F1B1FA8E
:1008500081F108430221B1EB601F02D16648006AB2
:1008600001E06548406A20210A0592FAA2F2B2FA34
:1008700082F2114301F01F0201219140084078BB30
:1008800001208BE72020022191FAA1F1B1FA81F138
:1008900008430121B1EB601F02D15748006810E006
:1008A0002020022191FAA1F1B1FA81F1084302213D
:1008B000B1EB601F03D15048006A02E054E04E489B
:1008C000406A2021022292FAA2F2B2FA82F2114385
:1008D00001F01F0201219140084008B901205DE7A5
:1008E000FFE74548406820F003006168084342493B
:1008F0004860FFF783FE06466068012810D108E0D3
:10090000FFF77CFE801B41F28831884201D9032029
:1009100044E73948406800F00C000428F0D123E097
:100920006068022810D108E0FFF768FE801B41F2E2
:100930008831884201D9032030E72F48406800F011
:100940000C000828F0D10FE008E0FFF757FE801BED
:1009500041F28831884201D903201FE726484068C8
:1009600000F00C000028F0D12248006800F00700D9
:10097000A8420ED91F48006820F0070028431D49EF
:1009800008600846006800F00700A84201D0012076
:1009900004E7207800F00400042807D116484068D6
:1009A00020F4E060E168084313494860207800F0D3
:1009B0000800082808D11048406820F460502169D8
:1009C00040EAC1000C49486000F022F80A49496831
:1009D00001F0F001F02292FAA2F2B2FA82F2D140D2
:1009E000064A515CC840064908600F20FFF728FE00
:1009F0000020D3E60020024000100240E01600086C
:100A0000000000200148006870470000000000203E
:100A1000F0B585B00FF28C0C9CE8E01001A8A0E8BE
:100A2000E01024A52D680095002100240022002359
:100A30000020214D696801F00C056DB3042D02D032
:100A4000082D28D101E01D4828E001F470154FF46D
:100A5000701696FAA6F6B6FA86F6F54001AE735D04
:100A600001F4803595B1144D6D6805F400354FF4EF
:100A7000003696FAA6F6B6FA86F6F5401DF8054059
:100A80000E4DB5FBF4F505FB03F202E00C4D03FB44
:100A900005F2104602E000BF084800BF00BF05B0E5
:100AA000F0BD000002030405060708090A0B0C0D3F
:100AB0000E0F1010010200000010024000127A0018
:100AC00000093D0038B504460025207800F00100FB
:100AD00000287CD0F848406800F00C0004280CD0B6
:100AE000F548406800F00C00082837D1F24840680B
:100AF00000F48030B0F5803F30D12020010391FA1E
:100B0000A1F1B1FA81F108430121B1EB601F02D1DB
:100B1000E94800680FE02020010391FAA1F1B1FA41
:100B200081F108430221B1EB601F02D1E248006A63
:100B300001E0E148406A20210A0392FAA2F2B2FAE7
:100B400082F2114301F01F02012191400840002868
:100B5000BFD0606800283AD1012038BD00BF60686E
:100B6000B0F5803F06D1D448006840F48030D249C7
:100B7000086028E0606858B9CF48006820F48030E9
:100B8000CD4908600846006820F4802008601AE01B
:100B90006068B0F5A02F0BD1C748006840F48020F2
:100BA000C54908600846006840F4803008600AE0E3
:100BB000C148006820F48030BF49086008460068DA
:100BC00020F48020086000BF6068C8B300E06FE0D8
:100BD000FFF714FD054606E0FFF710FD401B6428F3
:100BE00001D90320B9E72020010391FAA1F1B1FA5C
:100BF00081F108430121B1EB601F02D1AE480068CA
:100C00000FE02020010391FAA1F1B1FA81F108432C
:100C10000221B1EB601F02D1A748006A01E0A6489B
:100C2000406A20210A0392FAA2F2B2FA82F2114338
:100C300001F01F020121914008400028CCD037E08C
:100C4000FFE7FFF7DBFC054606E0FFF7D7FC401B9C
:100C5000642801D9032080E72020010391FAA1F143
:100C6000B1FA81F108430121B1EB601F02D1924832
:100C700000680FE02020010391FAA1F1B1FA81F19F
:100C800008430221B1EB601F02D18B48006A01E0EA
:100C90008948406A20210A0392FAA2F2B2FA82F24B
:100CA000114301F01F020121914008400028CCD1DE
:100CB000207800F0020002284ED17F48406800F002
:100CC0000C0050B17C48406800F00C00082844D16A
:100CD0007948406800F4803078BB2020022191FAE6
:100CE000A1F1B1FA81F108430121B1EB601F02D1FA
:100CF000714800680FE02020022191FAA1F1B1FAB9
:100D000081F108430221B1EB601F02D16A48006AF9
:100D100001E06948406A2021022292FAA2F2B2FA66
:100D200082F2114301F01F0201219140084028B1D5
:100D30002069012802D001200FE70EE05E4800681C
:100D400020F0F800F82292FAA2F2B2FA82F2616977
:100D5000914008435849086091E02069F0B30120B0
:100D600090FAA0F1B1FA81F1544A42F82100FFF75C
:100D700045FC054606E0FFF741FC401B022801D96F
:100D80000320EAE62020022191FAA1F1B1FA81F1D3
:100D900008430121B1EB601F02D1474800680FE012
:100DA0002020022191FAA1F1B1FA81F10843022138
:100DB000B1EB601F02D14048006A01E03E48406A42
:100DC0002021022292FAA2F2B2FA82F2114301F039
:100DD0001F02012191400840002800E00FE0CAD026
:100DE0003548006820F0F800F82292FAA2F2B2FA30
:100DF00082F26169914008432F4908603FE000207A
:100E0000012191FAA1F1B1FA81F12C4A42F82100B5
:100E1000FFF7F4FB054606E0FFF7F0FB401B022856
:100E200001D9032099E62020022191FAA1F1B1FA1B
:100E300081F108430121B1EB601F02D11E48006817
:100E40000FE02020022191FAA1F1B1FA81F10843CB
:100E50000221B1EB601F02D11748006A01E0164879
:100E6000406A2021022292FAA2F2B2FA82F21143DF
:100E700001F01F020121914008400028CCD12078C8
:100E800000F0080008284BD1A069A8B3012191FA0D
:100E9000A1F0B0FA80F0094A02EB8000C0F880149B
:100EA000FFF7ACFB05460BE0FFF7A8FB401B022851
:100EB00006D9032051E60000001002400000424223
:100EC0006020022191FAA1F1B1FA81F108430121D8
:100ED000B1EB601F02D1F948006810E060200221E8
:100EE00091FAA1F1B1FA81F108430221B1EB601F3F
:100EF00003D1F248006A02E013E0F048406A602142
:100F0000022292FAA2F2B2FA82F2114301F01F0217
:100F10000121914008400028C6D00120FFF7B7F911
:100F200041E00020012191FAA1F1B1FA81F1E44AF6
:100F300002EB8101C1F88004FFF760FB054606E083
:100F4000FFF75CFB401B022801D9032005E6602067
:100F5000022191FAA1F1B1FA81F108430121B1EB2B
:100F6000601F02D1D54800680FE06020022191FA8D
:100F7000A1F1B1FA81F108430221B1EB601F02D166
:100F8000CE48006A01E0CD48406A6021022292FA10
:100F9000A2F2B2FA82F2114301F01F020121914044
:100FA00008400028CCD1207800F00400042875D136
:100FB00000BFC248C06940F08050C049C8610846BF
:100FC000C06900F08050009000BF00BFBD480068BD
:100FD00040F48070BB490860FFF710FB054606E04F
:100FE000FFF70CFB401B642801D90320B5E5B54889
:100FF000006800F480700028F2D000BFE06801288B
:1010000006D1AE48006A40F00100AC49086227E012
:10101000E06858B9A948006A20F00100A7490862B1
:101020000846006A20F00400086219E0E06805281C
:101030000BD1A248006A40F00400A04908620846AB
:10104000006A40F0010008620AE09C48006A20F053
:1010500001009A4908620846006A20F0040008620C
:1010600000BFE068D0B3FFF7C9FA054608E0FFF714
:10107000C5FA401B41F28831884201D903206CE552
:101080004020022191FAA1F1B1FA81F10843012136
:10109000B1EB601F03D18948006810E058E04020A0
:1010A000022191FAA1F1B1FA81F108430221B1EBD9
:1010B000601F02D18148006A01E08048406A4021F7
:1010C000022292FAA2F2B2FA82F2114301F01F0256
:1010D0000121914008400028C9D039E0FFE7FFF71F
:1010E0008DFA054608E0FFF789FA401B41F2883186
:1010F000884201D9032030E54020022191FAA1F174
:10110000B1FA81F108430121B1EB601F02D16B48B4
:1011100000680FE04020022191FAA1F1B1FA81F1BB
:1011200008430221B1EB601F02D16448006A01E06C
:101130006248406A4021022292FAA2F2B2FA82F296
:10114000114301F01F020121914008400028CAD13B
:10115000E069002873D05948406800F00C00082866
:101160006ED0E06902286CD100204FF0807191FAB6
:10117000A1F1B1FA81F1524A42F82100FFF73EFA9B
:10118000054606E0FFF73AFA401B022801D9032082
:10119000E3E42020010591FAA1F1B1FA81F10843BD
:1011A0000121B1EB601F02D1444800680FE020200C
:1011B000010591FAA1F1B1FA81F108430221B1EBE5
:1011C000601F02D13D48006A01E03C48406A20218E
:1011D0000A0592FAA2F2B2FA82F2114301F01F025A
:1011E0000121914008400028CCD1206AB0F5803F11
:1011F00007D13248406820F40030A16808432F49E5
:101200004860D4E9080108432C49496821F4741165
:1012100008432A4948600121080690FAA0F0B0FA74
:1012200080F0274A42F82010FFF7E8F9054609E068
:10123000FFF7E4F9401B022804D903208DE479E08C
:1012400076E02CE02020010591FAA1F1B1FA81F1BC
:1012500008430121B1EB601F02D1184800680FE07C
:101260002020010591FAA1F1B1FA81F10843022190
:10127000B1EB601F02D11148006A01E00F48406ADB
:1012800020210A0592FAA2F2B2FA82F2114301F089
:101290001F020121914008400028C9D04AE00020E7
:1012A0004FF0807191FAA1F1B1FA81F1044A42F84C
:1012B0002100FFF7A3F905460DE0000000100240F1
:1012C0000000424200700040FFF798F9401B0228DE
:1012D00001D9032041E42020010591FAA1F1B1FADE
:1012E00081F108430121B1EB601F02D1124800686F
:1012F0000FE02020010591FAA1F1B1FA81F1084334
:101300000221B1EB601F02D10B48006A01E00A48DC
:10131000406A20210A0592FAA2F2B2FA82F211433F
:1013200001F01F020121914008400028CCD101E0CA
:10133000012012E4002010E400100240042808D12B
:101340004FF0E021096941F004014FF0E022116102
:1013500007E04FF0E021096921F004014FF0E0229D
:1013600011617047704770B504462546681EB0F19C
:10137000807F01D301200FE0681E4FF0E02148611B
:101380000F214FF0FF3000F0CBF800204FF0E021AC
:10139000886107200861002070BD10B5FFF7E2FFEB
:1013A00010BD00BFFEE7000000B585B000BF2A48B1
:1013B000806940F00800284988610846806900F08B
:1013C0000800009000BF00BF00BF0846806940F4DD
:1013D000807088610846806900F48070009000BFCA
:1013E00000BF00BF0846806940F4807088610846ED
:1013F000806900F48070009000BF00BF00220121CE
:101400001648FFF7F5F8002240211548FFF7F0F8DD
:10141000002280211248FFF7EBF801200190029092
:101420000220049001A90D48FEF73EFF40200190E4
:10143000012002900220049001A90948FEF734FF20
:1014400080200190012002900220049001A904480C
:10145000FEF72AFF05B000BD00100240000C01405D
:101460000020014070B504460D46C5B904F00100E6
:1014700020B1002201212248FFF7BAF804F002004F
:1014800020B1002240211F48FFF7B2F804F0040009
:10149000F8B1002280211B48FFF7AAF82FE0012DA8
:1014A00018D104F0010020B1012211461448FFF7C1
:1014B0009FF804F0020020B1012240211148FFF7FB
:1014C00097F804F0040020B1012280210D48FFF7B5
:1014D0008FF814E004F0010018B101210848FFF76B
:1014E00083F804F0020018B140210648FFF77CF8A9
:1014F00004F0040018B180210248FFF775F870BDB0
:10150000000C01400020014000BFFEE770470000D2
:1015100002480068C0F30220704700000CED00E0B4
:1015200010B5002807DA0A07140E054A00F00F0369
:101530001B1FD45403E00A07130E024A135410BDB4
:1015400018ED00E000E400E010B5FFF75DF8FFF7EC
:1015500024FF10BD10B590B0012006900004079044
:101560000020089002200D90C1030E914FF4E0116D
:101570000F9106A8FFF7A6FA0F2001900220029013
:10158000002003904FF48060049000200590022119
:1015900001A8FFF7EBF8FFF735FA4FF47A71B0FBCB
:1015A000F1F42046FFF7DFFE0420FFF7C7FE00221C
:1015B0001146501EFFF788F810B010BD11480068A2
:1015C00040F001000F490860084640680E49084095
:1015D0000C494860084600680C4908400949086001
:1015E0000846006820F4802008600846406820F41F
:1015F000FE0048604FF41F008860C803044908607B
:1016000070470000001002400000FFF8FFFFF6FEE8
:1016100008ED00E000BFFEE70024FEF7FDFFFFF746
:1016200099FFFFF7C1FE55E0072C49D2DFE804F02F
:1016300004090E17222D380000210720FFF712FFA2
:101640003EE001210846FFF70DFF39E000210120AF
:10165000FFF708FF01210220FFF704FF30E000221E
:1016600040211D48FEF7C4FF012280211A48FEF7E1
:10167000BFFF25E0002280211748FEF7B9FF0122B5
:1016800040211548FEF7B4FF1AE00022402112481D
:10169000FEF7AEFF012211461048FEF7A9FF0FE04A
:1016A000012211460D48FEF7A3FF012240210A48FE
:1016B000FEF79EFF012280210748FEF799FF00BF39
:1016C00000BF4FF47A70FEF7E2FD601CC4B2072C35
:1016D00000D10024A8E7000000200140000C0140D8
:1016E00000000000000000000102030406070809D2
:1016F0000000000001020304181700080000002089
:10170000080000006C0100082017000808000020F5
:10171000600600008801000800A24A0400000000E2
:0400000508000131BD
:00000001FF
